{
	"Crowdfunding/CrowFund.sol": {
		"CrowFund": {
			"abi": [
				{
					"inputs": [
						{
							"internalType": "uint256",
							"name": "_goal",
							"type": "uint256"
						},
						{
							"internalType": "uint256",
							"name": "_durationMinutes",
							"type": "uint256"
						}
					],
					"stateMutability": "nonpayable",
					"type": "constructor"
				},
				{
					"anonymous": false,
					"inputs": [
						{
							"indexed": true,
							"internalType": "address",
							"name": "donor",
							"type": "address"
						},
						{
							"indexed": false,
							"internalType": "uint256",
							"name": "amount",
							"type": "uint256"
						}
					],
					"name": "Donated",
					"type": "event"
				},
				{
					"anonymous": false,
					"inputs": [
						{
							"indexed": true,
							"internalType": "address",
							"name": "owner",
							"type": "address"
						},
						{
							"indexed": false,
							"internalType": "uint256",
							"name": "amount",
							"type": "uint256"
						}
					],
					"name": "FundsWithdrawn",
					"type": "event"
				},
				{
					"anonymous": false,
					"inputs": [
						{
							"indexed": true,
							"internalType": "address",
							"name": "donor",
							"type": "address"
						},
						{
							"indexed": false,
							"internalType": "uint256",
							"name": "amount",
							"type": "uint256"
						}
					],
					"name": "Refunded",
					"type": "event"
				},
				{
					"inputs": [
						{
							"internalType": "address",
							"name": "",
							"type": "address"
						}
					],
					"name": "contributions",
					"outputs": [
						{
							"internalType": "uint256",
							"name": "",
							"type": "uint256"
						}
					],
					"stateMutability": "view",
					"type": "function"
				},
				{
					"inputs": [],
					"name": "deadline",
					"outputs": [
						{
							"internalType": "uint256",
							"name": "",
							"type": "uint256"
						}
					],
					"stateMutability": "view",
					"type": "function"
				},
				{
					"inputs": [],
					"name": "donate",
					"outputs": [],
					"stateMutability": "payable",
					"type": "function"
				},
				{
					"inputs": [],
					"name": "fundsWithdrawn",
					"outputs": [
						{
							"internalType": "bool",
							"name": "",
							"type": "bool"
						}
					],
					"stateMutability": "view",
					"type": "function"
				},
				{
					"inputs": [],
					"name": "getBalance",
					"outputs": [
						{
							"internalType": "uint256",
							"name": "",
							"type": "uint256"
						}
					],
					"stateMutability": "view",
					"type": "function"
				},
				{
					"inputs": [],
					"name": "getTimeLeft",
					"outputs": [
						{
							"internalType": "uint256",
							"name": "",
							"type": "uint256"
						}
					],
					"stateMutability": "view",
					"type": "function"
				},
				{
					"inputs": [],
					"name": "goal",
					"outputs": [
						{
							"internalType": "uint256",
							"name": "",
							"type": "uint256"
						}
					],
					"stateMutability": "view",
					"type": "function"
				},
				{
					"inputs": [],
					"name": "goalReached",
					"outputs": [
						{
							"internalType": "bool",
							"name": "",
							"type": "bool"
						}
					],
					"stateMutability": "view",
					"type": "function"
				},
				{
					"inputs": [],
					"name": "owner",
					"outputs": [
						{
							"internalType": "address",
							"name": "",
							"type": "address"
						}
					],
					"stateMutability": "view",
					"type": "function"
				},
				{
					"inputs": [],
					"name": "refund",
					"outputs": [],
					"stateMutability": "nonpayable",
					"type": "function"
				},
				{
					"inputs": [],
					"name": "totalRaised",
					"outputs": [
						{
							"internalType": "uint256",
							"name": "",
							"type": "uint256"
						}
					],
					"stateMutability": "view",
					"type": "function"
				},
				{
					"inputs": [],
					"name": "withdrawFunds",
					"outputs": [],
					"stateMutability": "nonpayable",
					"type": "function"
				}
			],
			"devdoc": {
				"kind": "dev",
				"methods": {},
				"version": 1
			},
			"evm": {
				"assembly": "    /* \"Crowdfunding/CrowFund.sol\":58:2273  contract CrowFund {... */\n  mstore(0x40, 0x80)\n    /* \"Crowdfunding/CrowFund.sol\":477:660  constructor(uint _goal, uint _durationMinutes) {... */\n  callvalue\n  dup1\n  iszero\n  tag_1\n  jumpi\n  revert(0x00, 0x00)\ntag_1:\n  pop\n  mload(0x40)\n  sub(codesize, bytecodeSize)\n  dup1\n  bytecodeSize\n  dup4\n  codecopy\n  dup2\n  dup2\n  add\n  0x40\n  mstore\n  dup2\n  add\n  swap1\n  tag_2\n  swap2\n  swap1\n  tag_3\n  jump\t// in\ntag_2:\n    /* \"Crowdfunding/CrowFund.sol\":542:552  msg.sender */\n  caller\n    /* \"Crowdfunding/CrowFund.sol\":534:539  owner */\n  0x00\n  0x00\n    /* \"Crowdfunding/CrowFund.sol\":534:552  owner = msg.sender */\n  0x0100\n  exp\n  dup2\n  sload\n  dup2\n  0xffffffffffffffffffffffffffffffffffffffff\n  mul\n  not\n  and\n  swap1\n  dup4\n  0xffffffffffffffffffffffffffffffffffffffff\n  and\n  mul\n  or\n  swap1\n  sstore\n  pop\n    /* \"Crowdfunding/CrowFund.sol\":577:584  1 ether */\n  0x0de0b6b3a7640000\n    /* \"Crowdfunding/CrowFund.sol\":569:574  _goal */\n  dup3\n    /* \"Crowdfunding/CrowFund.sol\":569:584  _goal * 1 ether */\n  tag_6\n  swap2\n  swap1\n  tag_7\n  jump\t// in\ntag_6:\n    /* \"Crowdfunding/CrowFund.sol\":562:566  goal */\n  0x01\n    /* \"Crowdfunding/CrowFund.sol\":562:584  goal = _goal * 1 ether */\n  dup2\n  swap1\n  sstore\n  pop\n    /* \"Crowdfunding/CrowFund.sol\":643:652  1 minutes */\n  0x3c\n    /* \"Crowdfunding/CrowFund.sol\":624:640  _durationMinutes */\n  dup2\n    /* \"Crowdfunding/CrowFund.sol\":624:652  _durationMinutes * 1 minutes */\n  tag_8\n  swap2\n  swap1\n  tag_7\n  jump\t// in\ntag_8:\n    /* \"Crowdfunding/CrowFund.sol\":605:620  block.timestamp */\n  timestamp\n    /* \"Crowdfunding/CrowFund.sol\":605:653  block.timestamp + (_durationMinutes * 1 minutes) */\n  tag_9\n  swap2\n  swap1\n  tag_10\n  jump\t// in\ntag_9:\n    /* \"Crowdfunding/CrowFund.sol\":594:602  deadline */\n  0x02\n    /* \"Crowdfunding/CrowFund.sol\":594:653  deadline = block.timestamp + (_durationMinutes * 1 minutes) */\n  dup2\n  swap1\n  sstore\n  pop\n    /* \"Crowdfunding/CrowFund.sol\":477:660  constructor(uint _goal, uint _durationMinutes) {... */\n  pop\n  pop\n    /* \"Crowdfunding/CrowFund.sol\":58:2273  contract CrowFund {... */\n  jump(tag_11)\n    /* \"#utility.yul\":88:205   */\ntag_13:\n    /* \"#utility.yul\":197:198   */\n  0x00\n    /* \"#utility.yul\":194:195   */\n  0x00\n    /* \"#utility.yul\":187:199   */\n  revert\n    /* \"#utility.yul\":334:411   */\ntag_15:\n    /* \"#utility.yul\":371:378   */\n  0x00\n    /* \"#utility.yul\":400:405   */\n  dup2\n    /* \"#utility.yul\":389:405   */\n  swap1\n  pop\n    /* \"#utility.yul\":334:411   */\n  swap2\n  swap1\n  pop\n  jump\t// out\n    /* \"#utility.yul\":417:539   */\ntag_16:\n    /* \"#utility.yul\":490:514   */\n  tag_25\n    /* \"#utility.yul\":508:513   */\n  dup2\n    /* \"#utility.yul\":490:514   */\n  tag_15\n  jump\t// in\ntag_25:\n    /* \"#utility.yul\":483:488   */\n  dup2\n    /* \"#utility.yul\":480:515   */\n  eq\n    /* \"#utility.yul\":470:533   */\n  tag_26\n  jumpi\n    /* \"#utility.yul\":529:530   */\n  0x00\n    /* \"#utility.yul\":526:527   */\n  0x00\n    /* \"#utility.yul\":519:531   */\n  revert\n    /* \"#utility.yul\":470:533   */\ntag_26:\n    /* \"#utility.yul\":417:539   */\n  pop\n  jump\t// out\n    /* \"#utility.yul\":545:688   */\ntag_17:\n    /* \"#utility.yul\":602:607   */\n  0x00\n    /* \"#utility.yul\":633:639   */\n  dup2\n    /* \"#utility.yul\":627:640   */\n  mload\n    /* \"#utility.yul\":618:640   */\n  swap1\n  pop\n    /* \"#utility.yul\":649:682   */\n  tag_28\n    /* \"#utility.yul\":676:681   */\n  dup2\n    /* \"#utility.yul\":649:682   */\n  tag_16\n  jump\t// in\ntag_28:\n    /* \"#utility.yul\":545:688   */\n  swap3\n  swap2\n  pop\n  pop\n  jump\t// out\n    /* \"#utility.yul\":694:1201   */\ntag_3:\n    /* \"#utility.yul\":773:779   */\n  0x00\n    /* \"#utility.yul\":781:787   */\n  0x00\n    /* \"#utility.yul\":830:832   */\n  0x40\n    /* \"#utility.yul\":818:827   */\n  dup4\n    /* \"#utility.yul\":809:816   */\n  dup6\n    /* \"#utility.yul\":805:828   */\n  sub\n    /* \"#utility.yul\":801:833   */\n  slt\n    /* \"#utility.yul\":798:917   */\n  iszero\n  tag_30\n  jumpi\n    /* \"#utility.yul\":836:915   */\n  tag_31\n  tag_13\n  jump\t// in\ntag_31:\n    /* \"#utility.yul\":798:917   */\ntag_30:\n    /* \"#utility.yul\":956:957   */\n  0x00\n    /* \"#utility.yul\":981:1045   */\n  tag_32\n    /* \"#utility.yul\":1037:1044   */\n  dup6\n    /* \"#utility.yul\":1028:1034   */\n  dup3\n    /* \"#utility.yul\":1017:1026   */\n  dup7\n    /* \"#utility.yul\":1013:1035   */\n  add\n    /* \"#utility.yul\":981:1045   */\n  tag_17\n  jump\t// in\ntag_32:\n    /* \"#utility.yul\":971:1045   */\n  swap3\n  pop\n    /* \"#utility.yul\":927:1055   */\n  pop\n    /* \"#utility.yul\":1094:1096   */\n  0x20\n    /* \"#utility.yul\":1120:1184   */\n  tag_33\n    /* \"#utility.yul\":1176:1183   */\n  dup6\n    /* \"#utility.yul\":1167:1173   */\n  dup3\n    /* \"#utility.yul\":1156:1165   */\n  dup7\n    /* \"#utility.yul\":1152:1174   */\n  add\n    /* \"#utility.yul\":1120:1184   */\n  tag_17\n  jump\t// in\ntag_33:\n    /* \"#utility.yul\":1110:1184   */\n  swap2\n  pop\n    /* \"#utility.yul\":1065:1194   */\n  pop\n    /* \"#utility.yul\":694:1201   */\n  swap3\n  pop\n  swap3\n  swap1\n  pop\n  jump\t// out\n    /* \"#utility.yul\":1207:1387   */\ntag_18:\n    /* \"#utility.yul\":1255:1332   */\n  0x4e487b7100000000000000000000000000000000000000000000000000000000\n    /* \"#utility.yul\":1252:1253   */\n  0x00\n    /* \"#utility.yul\":1245:1333   */\n  mstore\n    /* \"#utility.yul\":1352:1356   */\n  0x11\n    /* \"#utility.yul\":1349:1350   */\n  0x04\n    /* \"#utility.yul\":1342:1357   */\n  mstore\n    /* \"#utility.yul\":1376:1380   */\n  0x24\n    /* \"#utility.yul\":1373:1374   */\n  0x00\n    /* \"#utility.yul\":1366:1381   */\n  revert\n    /* \"#utility.yul\":1393:1803   */\ntag_7:\n    /* \"#utility.yul\":1433:1440   */\n  0x00\n    /* \"#utility.yul\":1456:1476   */\n  tag_36\n    /* \"#utility.yul\":1474:1475   */\n  dup3\n    /* \"#utility.yul\":1456:1476   */\n  tag_15\n  jump\t// in\ntag_36:\n    /* \"#utility.yul\":1451:1476   */\n  swap2\n  pop\n    /* \"#utility.yul\":1490:1510   */\n  tag_37\n    /* \"#utility.yul\":1508:1509   */\n  dup4\n    /* \"#utility.yul\":1490:1510   */\n  tag_15\n  jump\t// in\ntag_37:\n    /* \"#utility.yul\":1485:1510   */\n  swap3\n  pop\n    /* \"#utility.yul\":1545:1546   */\n  dup3\n    /* \"#utility.yul\":1542:1543   */\n  dup3\n    /* \"#utility.yul\":1538:1547   */\n  mul\n    /* \"#utility.yul\":1567:1597   */\n  tag_38\n    /* \"#utility.yul\":1585:1596   */\n  dup2\n    /* \"#utility.yul\":1567:1597   */\n  tag_15\n  jump\t// in\ntag_38:\n    /* \"#utility.yul\":1556:1597   */\n  swap2\n  pop\n    /* \"#utility.yul\":1746:1747   */\n  dup3\n    /* \"#utility.yul\":1737:1744   */\n  dup3\n    /* \"#utility.yul\":1733:1748   */\n  div\n    /* \"#utility.yul\":1730:1731   */\n  dup5\n    /* \"#utility.yul\":1727:1749   */\n  eq\n    /* \"#utility.yul\":1707:1708   */\n  dup4\n    /* \"#utility.yul\":1700:1709   */\n  iszero\n    /* \"#utility.yul\":1680:1763   */\n  or\n    /* \"#utility.yul\":1657:1796   */\n  tag_39\n  jumpi\n    /* \"#utility.yul\":1776:1794   */\n  tag_40\n  tag_18\n  jump\t// in\ntag_40:\n    /* \"#utility.yul\":1657:1796   */\ntag_39:\n    /* \"#utility.yul\":1441:1803   */\n  pop\n    /* \"#utility.yul\":1393:1803   */\n  swap3\n  swap2\n  pop\n  pop\n  jump\t// out\n    /* \"#utility.yul\":1809:2000   */\ntag_10:\n    /* \"#utility.yul\":1849:1852   */\n  0x00\n    /* \"#utility.yul\":1868:1888   */\n  tag_42\n    /* \"#utility.yul\":1886:1887   */\n  dup3\n    /* \"#utility.yul\":1868:1888   */\n  tag_15\n  jump\t// in\ntag_42:\n    /* \"#utility.yul\":1863:1888   */\n  swap2\n  pop\n    /* \"#utility.yul\":1902:1922   */\n  tag_43\n    /* \"#utility.yul\":1920:1921   */\n  dup4\n    /* \"#utility.yul\":1902:1922   */\n  tag_15\n  jump\t// in\ntag_43:\n    /* \"#utility.yul\":1897:1922   */\n  swap3\n  pop\n    /* \"#utility.yul\":1945:1946   */\n  dup3\n    /* \"#utility.yul\":1942:1943   */\n  dup3\n    /* \"#utility.yul\":1938:1947   */\n  add\n    /* \"#utility.yul\":1931:1947   */\n  swap1\n  pop\n    /* \"#utility.yul\":1966:1969   */\n  dup1\n    /* \"#utility.yul\":1963:1964   */\n  dup3\n    /* \"#utility.yul\":1960:1970   */\n  gt\n    /* \"#utility.yul\":1957:1993   */\n  iszero\n  tag_44\n  jumpi\n    /* \"#utility.yul\":1973:1991   */\n  tag_45\n  tag_18\n  jump\t// in\ntag_45:\n    /* \"#utility.yul\":1957:1993   */\ntag_44:\n    /* \"#utility.yul\":1809:2000   */\n  swap3\n  swap2\n  pop\n  pop\n  jump\t// out\n    /* \"Crowdfunding/CrowFund.sol\":58:2273  contract CrowFund {... */\ntag_11:\n  dataSize(sub_0)\n  dup1\n  dataOffset(sub_0)\n  0x00\n  codecopy\n  0x00\n  return\nstop\n\nsub_0: assembly {\n        /* \"Crowdfunding/CrowFund.sol\":58:2273  contract CrowFund {... */\n      mstore(0x40, 0x80)\n      jumpi(tag_1, lt(calldatasize, 0x04))\n      shr(0xe0, calldataload(0x00))\n      dup1\n      0x7d3d6522\n      gt\n      tag_14\n      jumpi\n      dup1\n      0x7d3d6522\n      eq\n      tag_8\n      jumpi\n      dup1\n      0x8da5cb5b\n      eq\n      tag_9\n      jumpi\n      dup1\n      0xac307fcf\n      eq\n      tag_10\n      jumpi\n      dup1\n      0xc5c4744c\n      eq\n      tag_11\n      jumpi\n      dup1\n      0xc7e284b8\n      eq\n      tag_12\n      jumpi\n      dup1\n      0xed88c68e\n      eq\n      tag_13\n      jumpi\n      jump(tag_1)\n    tag_14:\n      dup1\n      0x12065fe0\n      eq\n      tag_2\n      jumpi\n      dup1\n      0x24600fc3\n      eq\n      tag_3\n      jumpi\n      dup1\n      0x29dcb0cf\n      eq\n      tag_4\n      jumpi\n      dup1\n      0x40193883\n      eq\n      tag_5\n      jumpi\n      dup1\n      0x42e94c90\n      eq\n      tag_6\n      jumpi\n      dup1\n      0x590e1ae3\n      eq\n      tag_7\n      jumpi\n    tag_1:\n      revert(0x00, 0x00)\n        /* \"Crowdfunding/CrowFund.sol\":2008:2104  function getBalance() external view returns (uint) {... */\n    tag_2:\n      callvalue\n      dup1\n      iszero\n      tag_15\n      jumpi\n      revert(0x00, 0x00)\n    tag_15:\n      pop\n      tag_16\n      tag_17\n      jump\t// in\n    tag_16:\n      mload(0x40)\n      tag_18\n      swap2\n      swap1\n      tag_19\n      jump\t// in\n    tag_18:\n      mload(0x40)\n      dup1\n      swap2\n      sub\n      swap1\n      return\n        /* \"Crowdfunding/CrowFund.sol\":1325:1640  function withdrawFunds() external onlyOwner campaignEnded{... */\n    tag_3:\n      callvalue\n      dup1\n      iszero\n      tag_20\n      jumpi\n      revert(0x00, 0x00)\n    tag_20:\n      pop\n      tag_21\n      tag_22\n      jump\t// in\n    tag_21:\n      stop\n        /* \"Crowdfunding/CrowFund.sol\":130:150  uint public deadline */\n    tag_4:\n      callvalue\n      dup1\n      iszero\n      tag_23\n      jumpi\n      revert(0x00, 0x00)\n    tag_23:\n      pop\n      tag_24\n      tag_25\n      jump\t// in\n    tag_24:\n      mload(0x40)\n      tag_26\n      swap2\n      swap1\n      tag_19\n      jump\t// in\n    tag_26:\n      mload(0x40)\n      dup1\n      swap2\n      sub\n      swap1\n      return\n        /* \"Crowdfunding/CrowFund.sol\":108:124  uint public goal */\n    tag_5:\n      callvalue\n      dup1\n      iszero\n      tag_27\n      jumpi\n      revert(0x00, 0x00)\n    tag_27:\n      pop\n      tag_28\n      tag_29\n      jump\t// in\n    tag_28:\n      mload(0x40)\n      tag_30\n      swap2\n      swap1\n      tag_19\n      jump\t// in\n    tag_30:\n      mload(0x40)\n      dup1\n      swap2\n      sub\n      swap1\n      return\n        /* \"Crowdfunding/CrowFund.sol\":247:292  mapping(address => uint) public contributions */\n    tag_6:\n      callvalue\n      dup1\n      iszero\n      tag_31\n      jumpi\n      revert(0x00, 0x00)\n    tag_31:\n      pop\n      tag_32\n      0x04\n      dup1\n      calldatasize\n      sub\n      dup2\n      add\n      swap1\n      tag_33\n      swap2\n      swap1\n      tag_34\n      jump\t// in\n    tag_33:\n      tag_35\n      jump\t// in\n    tag_32:\n      mload(0x40)\n      tag_36\n      swap2\n      swap1\n      tag_19\n      jump\t// in\n    tag_36:\n      mload(0x40)\n      dup1\n      swap2\n      sub\n      swap1\n      return\n        /* \"Crowdfunding/CrowFund.sol\":1649:1993  function refund() external campaignEnded {... */\n    tag_7:\n      callvalue\n      dup1\n      iszero\n      tag_37\n      jumpi\n      revert(0x00, 0x00)\n    tag_37:\n      pop\n      tag_38\n      tag_39\n      jump\t// in\n    tag_38:\n      stop\n        /* \"Crowdfunding/CrowFund.sol\":185:208  bool public goalReached */\n    tag_8:\n      callvalue\n      dup1\n      iszero\n      tag_40\n      jumpi\n      revert(0x00, 0x00)\n    tag_40:\n      pop\n      tag_41\n      tag_42\n      jump\t// in\n    tag_41:\n      mload(0x40)\n      tag_43\n      swap2\n      swap1\n      tag_44\n      jump\t// in\n    tag_43:\n      mload(0x40)\n      dup1\n      swap2\n      sub\n      swap1\n      return\n        /* \"Crowdfunding/CrowFund.sol\":82:102  address public owner */\n    tag_9:\n      callvalue\n      dup1\n      iszero\n      tag_45\n      jumpi\n      revert(0x00, 0x00)\n    tag_45:\n      pop\n      tag_46\n      tag_47\n      jump\t// in\n    tag_46:\n      mload(0x40)\n      tag_48\n      swap2\n      swap1\n      tag_49\n      jump\t// in\n    tag_48:\n      mload(0x40)\n      dup1\n      swap2\n      sub\n      swap1\n      return\n        /* \"Crowdfunding/CrowFund.sol\":214:240  bool public fundsWithdrawn */\n    tag_10:\n      callvalue\n      dup1\n      iszero\n      tag_50\n      jumpi\n      revert(0x00, 0x00)\n    tag_50:\n      pop\n      tag_51\n      tag_52\n      jump\t// in\n    tag_51:\n      mload(0x40)\n      tag_53\n      swap2\n      swap1\n      tag_44\n      jump\t// in\n    tag_53:\n      mload(0x40)\n      dup1\n      swap2\n      sub\n      swap1\n      return\n        /* \"Crowdfunding/CrowFund.sol\":156:179  uint public totalRaised */\n    tag_11:\n      callvalue\n      dup1\n      iszero\n      tag_54\n      jumpi\n      revert(0x00, 0x00)\n    tag_54:\n      pop\n      tag_55\n      tag_56\n      jump\t// in\n    tag_55:\n      mload(0x40)\n      tag_57\n      swap2\n      swap1\n      tag_19\n      jump\t// in\n    tag_57:\n      mload(0x40)\n      dup1\n      swap2\n      sub\n      swap1\n      return\n        /* \"Crowdfunding/CrowFund.sol\":2110:2262  function getTimeLeft() external view returns (uint) { ... */\n    tag_12:\n      callvalue\n      dup1\n      iszero\n      tag_58\n      jumpi\n      revert(0x00, 0x00)\n    tag_58:\n      pop\n      tag_59\n      tag_60\n      jump\t// in\n    tag_59:\n      mload(0x40)\n      tag_61\n      swap2\n      swap1\n      tag_19\n      jump\t// in\n    tag_61:\n      mload(0x40)\n      dup1\n      swap2\n      sub\n      swap1\n      return\n        /* \"Crowdfunding/CrowFund.sol\":989:1319  function donate() external payable campaignActive {... */\n    tag_13:\n      tag_62\n      tag_63\n      jump\t// in\n    tag_62:\n      stop\n        /* \"Crowdfunding/CrowFund.sol\":2008:2104  function getBalance() external view returns (uint) {... */\n    tag_17:\n        /* \"Crowdfunding/CrowFund.sol\":2053:2057  uint */\n      0x00\n        /* \"Crowdfunding/CrowFund.sol\":2076:2097  address(this).balance */\n      selfbalance\n        /* \"Crowdfunding/CrowFund.sol\":2069:2097  return address(this).balance */\n      swap1\n      pop\n        /* \"Crowdfunding/CrowFund.sol\":2008:2104  function getBalance() external view returns (uint) {... */\n      swap1\n      jump\t// out\n        /* \"Crowdfunding/CrowFund.sol\":1325:1640  function withdrawFunds() external onlyOwner campaignEnded{... */\n    tag_22:\n        /* \"Crowdfunding/CrowFund.sol\":719:724  owner */\n      0x00\n      0x00\n      swap1\n      sload\n      swap1\n      0x0100\n      exp\n      swap1\n      div\n      0xffffffffffffffffffffffffffffffffffffffff\n      and\n        /* \"Crowdfunding/CrowFund.sol\":705:724  msg.sender == owner */\n      0xffffffffffffffffffffffffffffffffffffffff\n      and\n        /* \"Crowdfunding/CrowFund.sol\":705:715  msg.sender */\n      caller\n        /* \"Crowdfunding/CrowFund.sol\":705:724  msg.sender == owner */\n      0xffffffffffffffffffffffffffffffffffffffff\n      and\n      eq\n        /* \"Crowdfunding/CrowFund.sol\":697:738  require(msg.sender == owner, \"Not owner\") */\n      tag_66\n      jumpi\n      mload(0x40)\n      0x08c379a000000000000000000000000000000000000000000000000000000000\n      dup2\n      mstore\n      0x04\n      add\n      tag_67\n      swap1\n      tag_68\n      jump\t// in\n    tag_67:\n      mload(0x40)\n      dup1\n      swap2\n      sub\n      swap1\n      revert\n    tag_66:\n        /* \"Crowdfunding/CrowFund.sol\":933:941  deadline */\n      sload(0x02)\n        /* \"Crowdfunding/CrowFund.sol\":914:929  block.timestamp */\n      timestamp\n        /* \"Crowdfunding/CrowFund.sol\":914:941  block.timestamp >= deadline */\n      lt\n      iszero\n        /* \"Crowdfunding/CrowFund.sol\":906:968  require(block.timestamp >= deadline, \"Campaign still running\") */\n      tag_70\n      jumpi\n      mload(0x40)\n      0x08c379a000000000000000000000000000000000000000000000000000000000\n      dup2\n      mstore\n      0x04\n      add\n      tag_71\n      swap1\n      tag_72\n      jump\t// in\n    tag_71:\n      mload(0x40)\n      dup1\n      swap2\n      sub\n      swap1\n      revert\n    tag_70:\n        /* \"Crowdfunding/CrowFund.sol\":1400:1411  goalReached */\n      0x04\n      0x00\n      swap1\n      sload\n      swap1\n      0x0100\n      exp\n      swap1\n      div\n      0xff\n      and\n        /* \"Crowdfunding/CrowFund.sol\":1392:1432  require(goalReached, \"Goal not reached\") */\n      tag_74\n      jumpi\n      mload(0x40)\n      0x08c379a000000000000000000000000000000000000000000000000000000000\n      dup2\n      mstore\n      0x04\n      add\n      tag_75\n      swap1\n      tag_76\n      jump\t// in\n    tag_75:\n      mload(0x40)\n      dup1\n      swap2\n      sub\n      swap1\n      revert\n    tag_74:\n        /* \"Crowdfunding/CrowFund.sol\":1451:1465  fundsWithdrawn */\n      0x04\n      0x01\n      swap1\n      sload\n      swap1\n      0x0100\n      exp\n      swap1\n      div\n      0xff\n      and\n        /* \"Crowdfunding/CrowFund.sol\":1450:1465  !fundsWithdrawn */\n      iszero\n        /* \"Crowdfunding/CrowFund.sol\":1442:1487  require(!fundsWithdrawn, \"Already withdrawn\") */\n      tag_77\n      jumpi\n      mload(0x40)\n      0x08c379a000000000000000000000000000000000000000000000000000000000\n      dup2\n      mstore\n      0x04\n      add\n      tag_78\n      swap1\n      tag_79\n      jump\t// in\n    tag_78:\n      mload(0x40)\n      dup1\n      swap2\n      sub\n      swap1\n      revert\n    tag_77:\n        /* \"Crowdfunding/CrowFund.sol\":1514:1518  true */\n      0x01\n        /* \"Crowdfunding/CrowFund.sol\":1497:1511  fundsWithdrawn */\n      0x04\n      0x01\n        /* \"Crowdfunding/CrowFund.sol\":1497:1518  fundsWithdrawn = true */\n      0x0100\n      exp\n      dup2\n      sload\n      dup2\n      0xff\n      mul\n      not\n      and\n      swap1\n      dup4\n      iszero\n      iszero\n      mul\n      or\n      swap1\n      sstore\n      pop\n        /* \"Crowdfunding/CrowFund.sol\":1536:1541  owner */\n      0x00\n      0x00\n      swap1\n      sload\n      swap1\n      0x0100\n      exp\n      swap1\n      div\n      0xffffffffffffffffffffffffffffffffffffffff\n      and\n        /* \"Crowdfunding/CrowFund.sol\":1528:1551  payable(owner).transfer */\n      0xffffffffffffffffffffffffffffffffffffffff\n      and\n        /* \"Crowdfunding/CrowFund.sol\":1528:1574  payable(owner).transfer(address(this).balance) */\n      0x08fc\n        /* \"Crowdfunding/CrowFund.sol\":1552:1573  address(this).balance */\n      selfbalance\n        /* \"Crowdfunding/CrowFund.sol\":1528:1574  payable(owner).transfer(address(this).balance) */\n      swap1\n      dup2\n      iszero\n      mul\n      swap1\n      mload(0x40)\n      0x00\n      mload(0x40)\n      dup1\n      dup4\n      sub\n      dup2\n      dup6\n      dup9\n      dup9\n      call\n      swap4\n      pop\n      pop\n      pop\n      pop\n      iszero\n      dup1\n      iszero\n      tag_81\n      jumpi\n      returndatacopy(0x00, 0x00, returndatasize)\n      revert(0x00, returndatasize)\n    tag_81:\n      pop\n        /* \"Crowdfunding/CrowFund.sol\":1604:1609  owner */\n      0x00\n      0x00\n      swap1\n      sload\n      swap1\n      0x0100\n      exp\n      swap1\n      div\n      0xffffffffffffffffffffffffffffffffffffffff\n      and\n        /* \"Crowdfunding/CrowFund.sol\":1589:1633  FundsWithdrawn(owner, address(this).balance) */\n      0xffffffffffffffffffffffffffffffffffffffff\n      and\n      0xeaff4b37086828766ad3268786972c0cd24259d4c87a80f9d3963a3c3d999b0d\n        /* \"Crowdfunding/CrowFund.sol\":1611:1632  address(this).balance */\n      selfbalance\n        /* \"Crowdfunding/CrowFund.sol\":1589:1633  FundsWithdrawn(owner, address(this).balance) */\n      mload(0x40)\n      tag_82\n      swap2\n      swap1\n      tag_19\n      jump\t// in\n    tag_82:\n      mload(0x40)\n      dup1\n      swap2\n      sub\n      swap1\n      log2\n        /* \"Crowdfunding/CrowFund.sol\":1325:1640  function withdrawFunds() external onlyOwner campaignEnded{... */\n      jump\t// out\n        /* \"Crowdfunding/CrowFund.sol\":130:150  uint public deadline */\n    tag_25:\n      sload(0x02)\n      dup2\n      jump\t// out\n        /* \"Crowdfunding/CrowFund.sol\":108:124  uint public goal */\n    tag_29:\n      sload(0x01)\n      dup2\n      jump\t// out\n        /* \"Crowdfunding/CrowFund.sol\":247:292  mapping(address => uint) public contributions */\n    tag_35:\n      mstore(0x20, 0x05)\n      dup1\n      0x00\n      mstore\n      keccak256(0x00, 0x40)\n      0x00\n      swap2\n      pop\n      swap1\n      pop\n      sload\n      dup2\n      jump\t// out\n        /* \"Crowdfunding/CrowFund.sol\":1649:1993  function refund() external campaignEnded {... */\n    tag_39:\n        /* \"Crowdfunding/CrowFund.sol\":933:941  deadline */\n      sload(0x02)\n        /* \"Crowdfunding/CrowFund.sol\":914:929  block.timestamp */\n      timestamp\n        /* \"Crowdfunding/CrowFund.sol\":914:941  block.timestamp >= deadline */\n      lt\n      iszero\n        /* \"Crowdfunding/CrowFund.sol\":906:968  require(block.timestamp >= deadline, \"Campaign still running\") */\n      tag_84\n      jumpi\n      mload(0x40)\n      0x08c379a000000000000000000000000000000000000000000000000000000000\n      dup2\n      mstore\n      0x04\n      add\n      tag_85\n      swap1\n      tag_72\n      jump\t// in\n    tag_85:\n      mload(0x40)\n      dup1\n      swap2\n      sub\n      swap1\n      revert\n    tag_84:\n        /* \"Crowdfunding/CrowFund.sol\":1709:1720  goalReached */\n      0x04\n      0x00\n      swap1\n      sload\n      swap1\n      0x0100\n      exp\n      swap1\n      div\n      0xff\n      and\n        /* \"Crowdfunding/CrowFund.sol\":1708:1720  !goalReached */\n      iszero\n        /* \"Crowdfunding/CrowFund.sol\":1700:1749  require(!goalReached, \"Goal reached, no refunds\") */\n      tag_87\n      jumpi\n      mload(0x40)\n      0x08c379a000000000000000000000000000000000000000000000000000000000\n      dup2\n      mstore\n      0x04\n      add\n      tag_88\n      swap1\n      tag_89\n      jump\t// in\n    tag_88:\n      mload(0x40)\n      dup1\n      swap2\n      sub\n      swap1\n      revert\n    tag_87:\n        /* \"Crowdfunding/CrowFund.sol\":1759:1770  uint amount */\n      0x00\n        /* \"Crowdfunding/CrowFund.sol\":1773:1786  contributions */\n      0x05\n        /* \"Crowdfunding/CrowFund.sol\":1773:1798  contributions[msg.sender] */\n      0x00\n        /* \"Crowdfunding/CrowFund.sol\":1787:1797  msg.sender */\n      caller\n        /* \"Crowdfunding/CrowFund.sol\":1773:1798  contributions[msg.sender] */\n      0xffffffffffffffffffffffffffffffffffffffff\n      and\n      0xffffffffffffffffffffffffffffffffffffffff\n      and\n      dup2\n      mstore\n      0x20\n      add\n      swap1\n      dup2\n      mstore\n      0x20\n      add\n      0x00\n      keccak256\n      sload\n        /* \"Crowdfunding/CrowFund.sol\":1759:1798  uint amount = contributions[msg.sender] */\n      swap1\n      pop\n        /* \"Crowdfunding/CrowFund.sol\":1825:1826  0 */\n      0x00\n        /* \"Crowdfunding/CrowFund.sol\":1816:1822  amount */\n      dup2\n        /* \"Crowdfunding/CrowFund.sol\":1816:1826  amount > 0 */\n      gt\n        /* \"Crowdfunding/CrowFund.sol\":1808:1856  require(amount > 0, \"No contribution to refund\") */\n      tag_90\n      jumpi\n      mload(0x40)\n      0x08c379a000000000000000000000000000000000000000000000000000000000\n      dup2\n      mstore\n      0x04\n      add\n      tag_91\n      swap1\n      tag_92\n      jump\t// in\n    tag_91:\n      mload(0x40)\n      dup1\n      swap2\n      sub\n      swap1\n      revert\n    tag_90:\n        /* \"Crowdfunding/CrowFund.sol\":1895:1896  0 */\n      0x00\n        /* \"Crowdfunding/CrowFund.sol\":1867:1880  contributions */\n      0x05\n        /* \"Crowdfunding/CrowFund.sol\":1867:1892  contributions[msg.sender] */\n      0x00\n        /* \"Crowdfunding/CrowFund.sol\":1881:1891  msg.sender */\n      caller\n        /* \"Crowdfunding/CrowFund.sol\":1867:1892  contributions[msg.sender] */\n      0xffffffffffffffffffffffffffffffffffffffff\n      and\n      0xffffffffffffffffffffffffffffffffffffffff\n      and\n      dup2\n      mstore\n      0x20\n      add\n      swap1\n      dup2\n      mstore\n      0x20\n      add\n      0x00\n      keccak256\n        /* \"Crowdfunding/CrowFund.sol\":1867:1896  contributions[msg.sender] = 0 */\n      dup2\n      swap1\n      sstore\n      pop\n        /* \"Crowdfunding/CrowFund.sol\":1914:1924  msg.sender */\n      caller\n        /* \"Crowdfunding/CrowFund.sol\":1906:1934  payable(msg.sender).transfer */\n      0xffffffffffffffffffffffffffffffffffffffff\n      and\n        /* \"Crowdfunding/CrowFund.sol\":1906:1942  payable(msg.sender).transfer(amount) */\n      0x08fc\n        /* \"Crowdfunding/CrowFund.sol\":1935:1941  amount */\n      dup3\n        /* \"Crowdfunding/CrowFund.sol\":1906:1942  payable(msg.sender).transfer(amount) */\n      swap1\n      dup2\n      iszero\n      mul\n      swap1\n      mload(0x40)\n      0x00\n      mload(0x40)\n      dup1\n      dup4\n      sub\n      dup2\n      dup6\n      dup9\n      dup9\n      call\n      swap4\n      pop\n      pop\n      pop\n      pop\n      iszero\n      dup1\n      iszero\n      tag_94\n      jumpi\n      returndatacopy(0x00, 0x00, returndatasize)\n      revert(0x00, returndatasize)\n    tag_94:\n      pop\n        /* \"Crowdfunding/CrowFund.sol\":1967:1977  msg.sender */\n      caller\n        /* \"Crowdfunding/CrowFund.sol\":1958:1986  Refunded(msg.sender, amount) */\n      0xffffffffffffffffffffffffffffffffffffffff\n      and\n      0xd7dee2702d63ad89917b6a4da9981c90c4d24f8c2bdfd64c604ecae57d8d0651\n        /* \"Crowdfunding/CrowFund.sol\":1979:1985  amount */\n      dup3\n        /* \"Crowdfunding/CrowFund.sol\":1958:1986  Refunded(msg.sender, amount) */\n      mload(0x40)\n      tag_95\n      swap2\n      swap1\n      tag_19\n      jump\t// in\n    tag_95:\n      mload(0x40)\n      dup1\n      swap2\n      sub\n      swap1\n      log2\n        /* \"Crowdfunding/CrowFund.sol\":1690:1993  {... */\n      pop\n        /* \"Crowdfunding/CrowFund.sol\":1649:1993  function refund() external campaignEnded {... */\n      jump\t// out\n        /* \"Crowdfunding/CrowFund.sol\":185:208  bool public goalReached */\n    tag_42:\n      0x04\n      0x00\n      swap1\n      sload\n      swap1\n      0x0100\n      exp\n      swap1\n      div\n      0xff\n      and\n      dup2\n      jump\t// out\n        /* \"Crowdfunding/CrowFund.sol\":82:102  address public owner */\n    tag_47:\n      0x00\n      0x00\n      swap1\n      sload\n      swap1\n      0x0100\n      exp\n      swap1\n      div\n      0xffffffffffffffffffffffffffffffffffffffff\n      and\n      dup2\n      jump\t// out\n        /* \"Crowdfunding/CrowFund.sol\":214:240  bool public fundsWithdrawn */\n    tag_52:\n      0x04\n      0x01\n      swap1\n      sload\n      swap1\n      0x0100\n      exp\n      swap1\n      div\n      0xff\n      and\n      dup2\n      jump\t// out\n        /* \"Crowdfunding/CrowFund.sol\":156:179  uint public totalRaised */\n    tag_56:\n      sload(0x03)\n      dup2\n      jump\t// out\n        /* \"Crowdfunding/CrowFund.sol\":2110:2262  function getTimeLeft() external view returns (uint) { ... */\n    tag_60:\n        /* \"Crowdfunding/CrowFund.sol\":2156:2160  uint */\n      0x00\n        /* \"Crowdfunding/CrowFund.sol\":2194:2202  deadline */\n      sload(0x02)\n        /* \"Crowdfunding/CrowFund.sol\":2176:2191  block.timestamp */\n      timestamp\n        /* \"Crowdfunding/CrowFund.sol\":2176:2202  block.timestamp > deadline */\n      gt\n        /* \"Crowdfunding/CrowFund.sol\":2173:2212  if(block.timestamp > deadline) return 0 */\n      iszero\n      tag_97\n      jumpi\n        /* \"Crowdfunding/CrowFund.sol\":2211:2212  0 */\n      0x00\n        /* \"Crowdfunding/CrowFund.sol\":2204:2212  return 0 */\n      swap1\n      pop\n      jump(tag_96)\n        /* \"Crowdfunding/CrowFund.sol\":2173:2212  if(block.timestamp > deadline) return 0 */\n    tag_97:\n        /* \"Crowdfunding/CrowFund.sol\":2240:2255  block.timestamp */\n      timestamp\n        /* \"Crowdfunding/CrowFund.sol\":2229:2237  deadline */\n      sload(0x02)\n        /* \"Crowdfunding/CrowFund.sol\":2229:2255  deadline - block.timestamp */\n      tag_98\n      swap2\n      swap1\n      tag_99\n      jump\t// in\n    tag_98:\n        /* \"Crowdfunding/CrowFund.sol\":2222:2255  return deadline - block.timestamp */\n      swap1\n      pop\n        /* \"Crowdfunding/CrowFund.sol\":2110:2262  function getTimeLeft() external view returns (uint) { ... */\n    tag_96:\n      swap1\n      jump\t// out\n        /* \"Crowdfunding/CrowFund.sol\":989:1319  function donate() external payable campaignActive {... */\n    tag_63:\n        /* \"Crowdfunding/CrowFund.sol\":824:832  deadline */\n      sload(0x02)\n        /* \"Crowdfunding/CrowFund.sol\":806:821  block.timestamp */\n      timestamp\n        /* \"Crowdfunding/CrowFund.sol\":806:832  block.timestamp < deadline */\n      lt\n        /* \"Crowdfunding/CrowFund.sol\":798:851  require(block.timestamp < deadline, \"Campaign ended\") */\n      tag_101\n      jumpi\n      mload(0x40)\n      0x08c379a000000000000000000000000000000000000000000000000000000000\n      dup2\n      mstore\n      0x04\n      add\n      tag_102\n      swap1\n      tag_103\n      jump\t// in\n    tag_102:\n      mload(0x40)\n      dup1\n      swap2\n      sub\n      swap1\n      revert\n    tag_101:\n        /* \"Crowdfunding/CrowFund.sol\":1069:1070  0 */\n      0x00\n        /* \"Crowdfunding/CrowFund.sol\":1057:1066  msg.value */\n      callvalue\n        /* \"Crowdfunding/CrowFund.sol\":1057:1070  msg.value > 0 */\n      gt\n        /* \"Crowdfunding/CrowFund.sol\":1049:1106  require(msg.value > 0, \"Donation must be greater than 0\") */\n      tag_105\n      jumpi\n      mload(0x40)\n      0x08c379a000000000000000000000000000000000000000000000000000000000\n      dup2\n      mstore\n      0x04\n      add\n      tag_106\n      swap1\n      tag_107\n      jump\t// in\n    tag_106:\n      mload(0x40)\n      dup1\n      swap2\n      sub\n      swap1\n      revert\n    tag_105:\n        /* \"Crowdfunding/CrowFund.sol\":1145:1154  msg.value */\n      callvalue\n        /* \"Crowdfunding/CrowFund.sol\":1116:1129  contributions */\n      0x05\n        /* \"Crowdfunding/CrowFund.sol\":1116:1141  contributions[msg.sender] */\n      0x00\n        /* \"Crowdfunding/CrowFund.sol\":1130:1140  msg.sender */\n      caller\n        /* \"Crowdfunding/CrowFund.sol\":1116:1141  contributions[msg.sender] */\n      0xffffffffffffffffffffffffffffffffffffffff\n      and\n      0xffffffffffffffffffffffffffffffffffffffff\n      and\n      dup2\n      mstore\n      0x20\n      add\n      swap1\n      dup2\n      mstore\n      0x20\n      add\n      0x00\n      keccak256\n      0x00\n        /* \"Crowdfunding/CrowFund.sol\":1116:1154  contributions[msg.sender] += msg.value */\n      dup3\n      dup3\n      sload\n      tag_108\n      swap2\n      swap1\n      tag_109\n      jump\t// in\n    tag_108:\n      swap3\n      pop\n      pop\n      dup2\n      swap1\n      sstore\n      pop\n        /* \"Crowdfunding/CrowFund.sol\":1179:1188  msg.value */\n      callvalue\n        /* \"Crowdfunding/CrowFund.sol\":1164:1175  totalRaised */\n      0x03\n      0x00\n        /* \"Crowdfunding/CrowFund.sol\":1164:1188  totalRaised += msg.value */\n      dup3\n      dup3\n      sload\n      tag_110\n      swap2\n      swap1\n      tag_109\n      jump\t// in\n    tag_110:\n      swap3\n      pop\n      pop\n      dup2\n      swap1\n      sstore\n      pop\n        /* \"Crowdfunding/CrowFund.sol\":1218:1222  goal */\n      sload(0x01)\n        /* \"Crowdfunding/CrowFund.sol\":1203:1214  totalRaised */\n      sload(0x03)\n        /* \"Crowdfunding/CrowFund.sol\":1203:1222  totalRaised >= goal */\n      lt\n        /* \"Crowdfunding/CrowFund.sol\":1199:1267  if (totalRaised >= goal) {... */\n      tag_111\n      jumpi\n        /* \"Crowdfunding/CrowFund.sol\":1252:1256  true */\n      0x01\n        /* \"Crowdfunding/CrowFund.sol\":1238:1249  goalReached */\n      0x04\n      0x00\n        /* \"Crowdfunding/CrowFund.sol\":1238:1256  goalReached = true */\n      0x0100\n      exp\n      dup2\n      sload\n      dup2\n      0xff\n      mul\n      not\n      and\n      swap1\n      dup4\n      iszero\n      iszero\n      mul\n      or\n      swap1\n      sstore\n      pop\n        /* \"Crowdfunding/CrowFund.sol\":1199:1267  if (totalRaised >= goal) {... */\n    tag_111:\n        /* \"Crowdfunding/CrowFund.sol\":1290:1300  msg.sender */\n      caller\n        /* \"Crowdfunding/CrowFund.sol\":1282:1312  Donated(msg.sender, msg.value) */\n      0xffffffffffffffffffffffffffffffffffffffff\n      and\n      0x2a01595cddf097c90216094025db714da3f4e5bd8877b56ba86a24ecead8e543\n        /* \"Crowdfunding/CrowFund.sol\":1302:1311  msg.value */\n      callvalue\n        /* \"Crowdfunding/CrowFund.sol\":1282:1312  Donated(msg.sender, msg.value) */\n      mload(0x40)\n      tag_112\n      swap2\n      swap1\n      tag_19\n      jump\t// in\n    tag_112:\n      mload(0x40)\n      dup1\n      swap2\n      sub\n      swap1\n      log2\n        /* \"Crowdfunding/CrowFund.sol\":989:1319  function donate() external payable campaignActive {... */\n      jump\t// out\n        /* \"#utility.yul\":7:84   */\n    tag_113:\n        /* \"#utility.yul\":44:51   */\n      0x00\n        /* \"#utility.yul\":73:78   */\n      dup2\n        /* \"#utility.yul\":62:78   */\n      swap1\n      pop\n        /* \"#utility.yul\":7:84   */\n      swap2\n      swap1\n      pop\n      jump\t// out\n        /* \"#utility.yul\":90:208   */\n    tag_114:\n        /* \"#utility.yul\":177:201   */\n      tag_146\n        /* \"#utility.yul\":195:200   */\n      dup2\n        /* \"#utility.yul\":177:201   */\n      tag_113\n      jump\t// in\n    tag_146:\n        /* \"#utility.yul\":172:175   */\n      dup3\n        /* \"#utility.yul\":165:202   */\n      mstore\n        /* \"#utility.yul\":90:208   */\n      pop\n      pop\n      jump\t// out\n        /* \"#utility.yul\":214:436   */\n    tag_19:\n        /* \"#utility.yul\":307:311   */\n      0x00\n        /* \"#utility.yul\":345:347   */\n      0x20\n        /* \"#utility.yul\":334:343   */\n      dup3\n        /* \"#utility.yul\":330:348   */\n      add\n        /* \"#utility.yul\":322:348   */\n      swap1\n      pop\n        /* \"#utility.yul\":358:429   */\n      tag_148\n        /* \"#utility.yul\":426:427   */\n      0x00\n        /* \"#utility.yul\":415:424   */\n      dup4\n        /* \"#utility.yul\":411:428   */\n      add\n        /* \"#utility.yul\":402:408   */\n      dup5\n        /* \"#utility.yul\":358:429   */\n      tag_114\n      jump\t// in\n    tag_148:\n        /* \"#utility.yul\":214:436   */\n      swap3\n      swap2\n      pop\n      pop\n      jump\t// out\n        /* \"#utility.yul\":523:640   */\n    tag_116:\n        /* \"#utility.yul\":632:633   */\n      0x00\n        /* \"#utility.yul\":629:630   */\n      0x00\n        /* \"#utility.yul\":622:634   */\n      revert\n        /* \"#utility.yul\":769:895   */\n    tag_118:\n        /* \"#utility.yul\":806:813   */\n      0x00\n        /* \"#utility.yul\":846:888   */\n      0xffffffffffffffffffffffffffffffffffffffff\n        /* \"#utility.yul\":839:844   */\n      dup3\n        /* \"#utility.yul\":835:889   */\n      and\n        /* \"#utility.yul\":824:889   */\n      swap1\n      pop\n        /* \"#utility.yul\":769:895   */\n      swap2\n      swap1\n      pop\n      jump\t// out\n        /* \"#utility.yul\":901:997   */\n    tag_119:\n        /* \"#utility.yul\":938:945   */\n      0x00\n        /* \"#utility.yul\":967:991   */\n      tag_154\n        /* \"#utility.yul\":985:990   */\n      dup3\n        /* \"#utility.yul\":967:991   */\n      tag_118\n      jump\t// in\n    tag_154:\n        /* \"#utility.yul\":956:991   */\n      swap1\n      pop\n        /* \"#utility.yul\":901:997   */\n      swap2\n      swap1\n      pop\n      jump\t// out\n        /* \"#utility.yul\":1003:1125   */\n    tag_120:\n        /* \"#utility.yul\":1076:1100   */\n      tag_156\n        /* \"#utility.yul\":1094:1099   */\n      dup2\n        /* \"#utility.yul\":1076:1100   */\n      tag_119\n      jump\t// in\n    tag_156:\n        /* \"#utility.yul\":1069:1074   */\n      dup2\n        /* \"#utility.yul\":1066:1101   */\n      eq\n        /* \"#utility.yul\":1056:1119   */\n      tag_157\n      jumpi\n        /* \"#utility.yul\":1115:1116   */\n      0x00\n        /* \"#utility.yul\":1112:1113   */\n      0x00\n        /* \"#utility.yul\":1105:1117   */\n      revert\n        /* \"#utility.yul\":1056:1119   */\n    tag_157:\n        /* \"#utility.yul\":1003:1125   */\n      pop\n      jump\t// out\n        /* \"#utility.yul\":1131:1270   */\n    tag_121:\n        /* \"#utility.yul\":1177:1182   */\n      0x00\n        /* \"#utility.yul\":1215:1221   */\n      dup2\n        /* \"#utility.yul\":1202:1222   */\n      calldataload\n        /* \"#utility.yul\":1193:1222   */\n      swap1\n      pop\n        /* \"#utility.yul\":1231:1264   */\n      tag_159\n        /* \"#utility.yul\":1258:1263   */\n      dup2\n        /* \"#utility.yul\":1231:1264   */\n      tag_120\n      jump\t// in\n    tag_159:\n        /* \"#utility.yul\":1131:1270   */\n      swap3\n      swap2\n      pop\n      pop\n      jump\t// out\n        /* \"#utility.yul\":1276:1605   */\n    tag_34:\n        /* \"#utility.yul\":1335:1341   */\n      0x00\n        /* \"#utility.yul\":1384:1386   */\n      0x20\n        /* \"#utility.yul\":1372:1381   */\n      dup3\n        /* \"#utility.yul\":1363:1370   */\n      dup5\n        /* \"#utility.yul\":1359:1382   */\n      sub\n        /* \"#utility.yul\":1355:1387   */\n      slt\n        /* \"#utility.yul\":1352:1471   */\n      iszero\n      tag_161\n      jumpi\n        /* \"#utility.yul\":1390:1469   */\n      tag_162\n      tag_116\n      jump\t// in\n    tag_162:\n        /* \"#utility.yul\":1352:1471   */\n    tag_161:\n        /* \"#utility.yul\":1510:1511   */\n      0x00\n        /* \"#utility.yul\":1535:1588   */\n      tag_163\n        /* \"#utility.yul\":1580:1587   */\n      dup5\n        /* \"#utility.yul\":1571:1577   */\n      dup3\n        /* \"#utility.yul\":1560:1569   */\n      dup6\n        /* \"#utility.yul\":1556:1578   */\n      add\n        /* \"#utility.yul\":1535:1588   */\n      tag_121\n      jump\t// in\n    tag_163:\n        /* \"#utility.yul\":1525:1588   */\n      swap2\n      pop\n        /* \"#utility.yul\":1481:1598   */\n      pop\n        /* \"#utility.yul\":1276:1605   */\n      swap3\n      swap2\n      pop\n      pop\n      jump\t// out\n        /* \"#utility.yul\":1611:1701   */\n    tag_122:\n        /* \"#utility.yul\":1645:1652   */\n      0x00\n        /* \"#utility.yul\":1688:1693   */\n      dup2\n        /* \"#utility.yul\":1681:1694   */\n      iszero\n        /* \"#utility.yul\":1674:1695   */\n      iszero\n        /* \"#utility.yul\":1663:1695   */\n      swap1\n      pop\n        /* \"#utility.yul\":1611:1701   */\n      swap2\n      swap1\n      pop\n      jump\t// out\n        /* \"#utility.yul\":1707:1816   */\n    tag_123:\n        /* \"#utility.yul\":1788:1809   */\n      tag_166\n        /* \"#utility.yul\":1803:1808   */\n      dup2\n        /* \"#utility.yul\":1788:1809   */\n      tag_122\n      jump\t// in\n    tag_166:\n        /* \"#utility.yul\":1783:1786   */\n      dup3\n        /* \"#utility.yul\":1776:1810   */\n      mstore\n        /* \"#utility.yul\":1707:1816   */\n      pop\n      pop\n      jump\t// out\n        /* \"#utility.yul\":1822:2032   */\n    tag_44:\n        /* \"#utility.yul\":1909:1913   */\n      0x00\n        /* \"#utility.yul\":1947:1949   */\n      0x20\n        /* \"#utility.yul\":1936:1945   */\n      dup3\n        /* \"#utility.yul\":1932:1950   */\n      add\n        /* \"#utility.yul\":1924:1950   */\n      swap1\n      pop\n        /* \"#utility.yul\":1960:2025   */\n      tag_168\n        /* \"#utility.yul\":2022:2023   */\n      0x00\n        /* \"#utility.yul\":2011:2020   */\n      dup4\n        /* \"#utility.yul\":2007:2024   */\n      add\n        /* \"#utility.yul\":1998:2004   */\n      dup5\n        /* \"#utility.yul\":1960:2025   */\n      tag_123\n      jump\t// in\n    tag_168:\n        /* \"#utility.yul\":1822:2032   */\n      swap3\n      swap2\n      pop\n      pop\n      jump\t// out\n        /* \"#utility.yul\":2038:2156   */\n    tag_124:\n        /* \"#utility.yul\":2125:2149   */\n      tag_170\n        /* \"#utility.yul\":2143:2148   */\n      dup2\n        /* \"#utility.yul\":2125:2149   */\n      tag_119\n      jump\t// in\n    tag_170:\n        /* \"#utility.yul\":2120:2123   */\n      dup3\n        /* \"#utility.yul\":2113:2150   */\n      mstore\n        /* \"#utility.yul\":2038:2156   */\n      pop\n      pop\n      jump\t// out\n        /* \"#utility.yul\":2162:2384   */\n    tag_49:\n        /* \"#utility.yul\":2255:2259   */\n      0x00\n        /* \"#utility.yul\":2293:2295   */\n      0x20\n        /* \"#utility.yul\":2282:2291   */\n      dup3\n        /* \"#utility.yul\":2278:2296   */\n      add\n        /* \"#utility.yul\":2270:2296   */\n      swap1\n      pop\n        /* \"#utility.yul\":2306:2377   */\n      tag_172\n        /* \"#utility.yul\":2374:2375   */\n      0x00\n        /* \"#utility.yul\":2363:2372   */\n      dup4\n        /* \"#utility.yul\":2359:2376   */\n      add\n        /* \"#utility.yul\":2350:2356   */\n      dup5\n        /* \"#utility.yul\":2306:2377   */\n      tag_124\n      jump\t// in\n    tag_172:\n        /* \"#utility.yul\":2162:2384   */\n      swap3\n      swap2\n      pop\n      pop\n      jump\t// out\n        /* \"#utility.yul\":2390:2559   */\n    tag_125:\n        /* \"#utility.yul\":2474:2485   */\n      0x00\n        /* \"#utility.yul\":2508:2514   */\n      dup3\n        /* \"#utility.yul\":2503:2506   */\n      dup3\n        /* \"#utility.yul\":2496:2515   */\n      mstore\n        /* \"#utility.yul\":2548:2552   */\n      0x20\n        /* \"#utility.yul\":2543:2546   */\n      dup3\n        /* \"#utility.yul\":2539:2553   */\n      add\n        /* \"#utility.yul\":2524:2553   */\n      swap1\n      pop\n        /* \"#utility.yul\":2390:2559   */\n      swap3\n      swap2\n      pop\n      pop\n      jump\t// out\n        /* \"#utility.yul\":2565:2724   */\n    tag_126:\n        /* \"#utility.yul\":2705:2716   */\n      0x4e6f74206f776e65720000000000000000000000000000000000000000000000\n        /* \"#utility.yul\":2701:2702   */\n      0x00\n        /* \"#utility.yul\":2693:2699   */\n      dup3\n        /* \"#utility.yul\":2689:2703   */\n      add\n        /* \"#utility.yul\":2682:2717   */\n      mstore\n        /* \"#utility.yul\":2565:2724   */\n      pop\n      jump\t// out\n        /* \"#utility.yul\":2730:3095   */\n    tag_127:\n        /* \"#utility.yul\":2872:2875   */\n      0x00\n        /* \"#utility.yul\":2893:2959   */\n      tag_176\n        /* \"#utility.yul\":2957:2958   */\n      0x09\n        /* \"#utility.yul\":2952:2955   */\n      dup4\n        /* \"#utility.yul\":2893:2959   */\n      tag_125\n      jump\t// in\n    tag_176:\n        /* \"#utility.yul\":2886:2959   */\n      swap2\n      pop\n        /* \"#utility.yul\":2968:3061   */\n      tag_177\n        /* \"#utility.yul\":3057:3060   */\n      dup3\n        /* \"#utility.yul\":2968:3061   */\n      tag_126\n      jump\t// in\n    tag_177:\n        /* \"#utility.yul\":3086:3088   */\n      0x20\n        /* \"#utility.yul\":3081:3084   */\n      dup3\n        /* \"#utility.yul\":3077:3089   */\n      add\n        /* \"#utility.yul\":3070:3089   */\n      swap1\n      pop\n        /* \"#utility.yul\":2730:3095   */\n      swap2\n      swap1\n      pop\n      jump\t// out\n        /* \"#utility.yul\":3101:3520   */\n    tag_68:\n        /* \"#utility.yul\":3267:3271   */\n      0x00\n        /* \"#utility.yul\":3305:3307   */\n      0x20\n        /* \"#utility.yul\":3294:3303   */\n      dup3\n        /* \"#utility.yul\":3290:3308   */\n      add\n        /* \"#utility.yul\":3282:3308   */\n      swap1\n      pop\n        /* \"#utility.yul\":3354:3363   */\n      dup2\n        /* \"#utility.yul\":3348:3352   */\n      dup2\n        /* \"#utility.yul\":3344:3364   */\n      sub\n        /* \"#utility.yul\":3340:3341   */\n      0x00\n        /* \"#utility.yul\":3329:3338   */\n      dup4\n        /* \"#utility.yul\":3325:3342   */\n      add\n        /* \"#utility.yul\":3318:3365   */\n      mstore\n        /* \"#utility.yul\":3382:3513   */\n      tag_179\n        /* \"#utility.yul\":3508:3512   */\n      dup2\n        /* \"#utility.yul\":3382:3513   */\n      tag_127\n      jump\t// in\n    tag_179:\n        /* \"#utility.yul\":3374:3513   */\n      swap1\n      pop\n        /* \"#utility.yul\":3101:3520   */\n      swap2\n      swap1\n      pop\n      jump\t// out\n        /* \"#utility.yul\":3526:3698   */\n    tag_128:\n        /* \"#utility.yul\":3666:3690   */\n      0x43616d706169676e207374696c6c2072756e6e696e6700000000000000000000\n        /* \"#utility.yul\":3662:3663   */\n      0x00\n        /* \"#utility.yul\":3654:3660   */\n      dup3\n        /* \"#utility.yul\":3650:3664   */\n      add\n        /* \"#utility.yul\":3643:3691   */\n      mstore\n        /* \"#utility.yul\":3526:3698   */\n      pop\n      jump\t// out\n        /* \"#utility.yul\":3704:4070   */\n    tag_129:\n        /* \"#utility.yul\":3846:3849   */\n      0x00\n        /* \"#utility.yul\":3867:3934   */\n      tag_182\n        /* \"#utility.yul\":3931:3933   */\n      0x16\n        /* \"#utility.yul\":3926:3929   */\n      dup4\n        /* \"#utility.yul\":3867:3934   */\n      tag_125\n      jump\t// in\n    tag_182:\n        /* \"#utility.yul\":3860:3934   */\n      swap2\n      pop\n        /* \"#utility.yul\":3943:4036   */\n      tag_183\n        /* \"#utility.yul\":4032:4035   */\n      dup3\n        /* \"#utility.yul\":3943:4036   */\n      tag_128\n      jump\t// in\n    tag_183:\n        /* \"#utility.yul\":4061:4063   */\n      0x20\n        /* \"#utility.yul\":4056:4059   */\n      dup3\n        /* \"#utility.yul\":4052:4064   */\n      add\n        /* \"#utility.yul\":4045:4064   */\n      swap1\n      pop\n        /* \"#utility.yul\":3704:4070   */\n      swap2\n      swap1\n      pop\n      jump\t// out\n        /* \"#utility.yul\":4076:4495   */\n    tag_72:\n        /* \"#utility.yul\":4242:4246   */\n      0x00\n        /* \"#utility.yul\":4280:4282   */\n      0x20\n        /* \"#utility.yul\":4269:4278   */\n      dup3\n        /* \"#utility.yul\":4265:4283   */\n      add\n        /* \"#utility.yul\":4257:4283   */\n      swap1\n      pop\n        /* \"#utility.yul\":4329:4338   */\n      dup2\n        /* \"#utility.yul\":4323:4327   */\n      dup2\n        /* \"#utility.yul\":4319:4339   */\n      sub\n        /* \"#utility.yul\":4315:4316   */\n      0x00\n        /* \"#utility.yul\":4304:4313   */\n      dup4\n        /* \"#utility.yul\":4300:4317   */\n      add\n        /* \"#utility.yul\":4293:4340   */\n      mstore\n        /* \"#utility.yul\":4357:4488   */\n      tag_185\n        /* \"#utility.yul\":4483:4487   */\n      dup2\n        /* \"#utility.yul\":4357:4488   */\n      tag_129\n      jump\t// in\n    tag_185:\n        /* \"#utility.yul\":4349:4488   */\n      swap1\n      pop\n        /* \"#utility.yul\":4076:4495   */\n      swap2\n      swap1\n      pop\n      jump\t// out\n        /* \"#utility.yul\":4501:4667   */\n    tag_130:\n        /* \"#utility.yul\":4641:4659   */\n      0x476f616c206e6f74207265616368656400000000000000000000000000000000\n        /* \"#utility.yul\":4637:4638   */\n      0x00\n        /* \"#utility.yul\":4629:4635   */\n      dup3\n        /* \"#utility.yul\":4625:4639   */\n      add\n        /* \"#utility.yul\":4618:4660   */\n      mstore\n        /* \"#utility.yul\":4501:4667   */\n      pop\n      jump\t// out\n        /* \"#utility.yul\":4673:5039   */\n    tag_131:\n        /* \"#utility.yul\":4815:4818   */\n      0x00\n        /* \"#utility.yul\":4836:4903   */\n      tag_188\n        /* \"#utility.yul\":4900:4902   */\n      0x10\n        /* \"#utility.yul\":4895:4898   */\n      dup4\n        /* \"#utility.yul\":4836:4903   */\n      tag_125\n      jump\t// in\n    tag_188:\n        /* \"#utility.yul\":4829:4903   */\n      swap2\n      pop\n        /* \"#utility.yul\":4912:5005   */\n      tag_189\n        /* \"#utility.yul\":5001:5004   */\n      dup3\n        /* \"#utility.yul\":4912:5005   */\n      tag_130\n      jump\t// in\n    tag_189:\n        /* \"#utility.yul\":5030:5032   */\n      0x20\n        /* \"#utility.yul\":5025:5028   */\n      dup3\n        /* \"#utility.yul\":5021:5033   */\n      add\n        /* \"#utility.yul\":5014:5033   */\n      swap1\n      pop\n        /* \"#utility.yul\":4673:5039   */\n      swap2\n      swap1\n      pop\n      jump\t// out\n        /* \"#utility.yul\":5045:5464   */\n    tag_76:\n        /* \"#utility.yul\":5211:5215   */\n      0x00\n        /* \"#utility.yul\":5249:5251   */\n      0x20\n        /* \"#utility.yul\":5238:5247   */\n      dup3\n        /* \"#utility.yul\":5234:5252   */\n      add\n        /* \"#utility.yul\":5226:5252   */\n      swap1\n      pop\n        /* \"#utility.yul\":5298:5307   */\n      dup2\n        /* \"#utility.yul\":5292:5296   */\n      dup2\n        /* \"#utility.yul\":5288:5308   */\n      sub\n        /* \"#utility.yul\":5284:5285   */\n      0x00\n        /* \"#utility.yul\":5273:5282   */\n      dup4\n        /* \"#utility.yul\":5269:5286   */\n      add\n        /* \"#utility.yul\":5262:5309   */\n      mstore\n        /* \"#utility.yul\":5326:5457   */\n      tag_191\n        /* \"#utility.yul\":5452:5456   */\n      dup2\n        /* \"#utility.yul\":5326:5457   */\n      tag_131\n      jump\t// in\n    tag_191:\n        /* \"#utility.yul\":5318:5457   */\n      swap1\n      pop\n        /* \"#utility.yul\":5045:5464   */\n      swap2\n      swap1\n      pop\n      jump\t// out\n        /* \"#utility.yul\":5470:5637   */\n    tag_132:\n        /* \"#utility.yul\":5610:5629   */\n      0x416c72656164792077697468647261776e000000000000000000000000000000\n        /* \"#utility.yul\":5606:5607   */\n      0x00\n        /* \"#utility.yul\":5598:5604   */\n      dup3\n        /* \"#utility.yul\":5594:5608   */\n      add\n        /* \"#utility.yul\":5587:5630   */\n      mstore\n        /* \"#utility.yul\":5470:5637   */\n      pop\n      jump\t// out\n        /* \"#utility.yul\":5643:6009   */\n    tag_133:\n        /* \"#utility.yul\":5785:5788   */\n      0x00\n        /* \"#utility.yul\":5806:5873   */\n      tag_194\n        /* \"#utility.yul\":5870:5872   */\n      0x11\n        /* \"#utility.yul\":5865:5868   */\n      dup4\n        /* \"#utility.yul\":5806:5873   */\n      tag_125\n      jump\t// in\n    tag_194:\n        /* \"#utility.yul\":5799:5873   */\n      swap2\n      pop\n        /* \"#utility.yul\":5882:5975   */\n      tag_195\n        /* \"#utility.yul\":5971:5974   */\n      dup3\n        /* \"#utility.yul\":5882:5975   */\n      tag_132\n      jump\t// in\n    tag_195:\n        /* \"#utility.yul\":6000:6002   */\n      0x20\n        /* \"#utility.yul\":5995:5998   */\n      dup3\n        /* \"#utility.yul\":5991:6003   */\n      add\n        /* \"#utility.yul\":5984:6003   */\n      swap1\n      pop\n        /* \"#utility.yul\":5643:6009   */\n      swap2\n      swap1\n      pop\n      jump\t// out\n        /* \"#utility.yul\":6015:6434   */\n    tag_79:\n        /* \"#utility.yul\":6181:6185   */\n      0x00\n        /* \"#utility.yul\":6219:6221   */\n      0x20\n        /* \"#utility.yul\":6208:6217   */\n      dup3\n        /* \"#utility.yul\":6204:6222   */\n      add\n        /* \"#utility.yul\":6196:6222   */\n      swap1\n      pop\n        /* \"#utility.yul\":6268:6277   */\n      dup2\n        /* \"#utility.yul\":6262:6266   */\n      dup2\n        /* \"#utility.yul\":6258:6278   */\n      sub\n        /* \"#utility.yul\":6254:6255   */\n      0x00\n        /* \"#utility.yul\":6243:6252   */\n      dup4\n        /* \"#utility.yul\":6239:6256   */\n      add\n        /* \"#utility.yul\":6232:6279   */\n      mstore\n        /* \"#utility.yul\":6296:6427   */\n      tag_197\n        /* \"#utility.yul\":6422:6426   */\n      dup2\n        /* \"#utility.yul\":6296:6427   */\n      tag_133\n      jump\t// in\n    tag_197:\n        /* \"#utility.yul\":6288:6427   */\n      swap1\n      pop\n        /* \"#utility.yul\":6015:6434   */\n      swap2\n      swap1\n      pop\n      jump\t// out\n        /* \"#utility.yul\":6440:6614   */\n    tag_134:\n        /* \"#utility.yul\":6580:6606   */\n      0x476f616c20726561636865642c206e6f20726566756e64730000000000000000\n        /* \"#utility.yul\":6576:6577   */\n      0x00\n        /* \"#utility.yul\":6568:6574   */\n      dup3\n        /* \"#utility.yul\":6564:6578   */\n      add\n        /* \"#utility.yul\":6557:6607   */\n      mstore\n        /* \"#utility.yul\":6440:6614   */\n      pop\n      jump\t// out\n        /* \"#utility.yul\":6620:6986   */\n    tag_135:\n        /* \"#utility.yul\":6762:6765   */\n      0x00\n        /* \"#utility.yul\":6783:6850   */\n      tag_200\n        /* \"#utility.yul\":6847:6849   */\n      0x18\n        /* \"#utility.yul\":6842:6845   */\n      dup4\n        /* \"#utility.yul\":6783:6850   */\n      tag_125\n      jump\t// in\n    tag_200:\n        /* \"#utility.yul\":6776:6850   */\n      swap2\n      pop\n        /* \"#utility.yul\":6859:6952   */\n      tag_201\n        /* \"#utility.yul\":6948:6951   */\n      dup3\n        /* \"#utility.yul\":6859:6952   */\n      tag_134\n      jump\t// in\n    tag_201:\n        /* \"#utility.yul\":6977:6979   */\n      0x20\n        /* \"#utility.yul\":6972:6975   */\n      dup3\n        /* \"#utility.yul\":6968:6980   */\n      add\n        /* \"#utility.yul\":6961:6980   */\n      swap1\n      pop\n        /* \"#utility.yul\":6620:6986   */\n      swap2\n      swap1\n      pop\n      jump\t// out\n        /* \"#utility.yul\":6992:7411   */\n    tag_89:\n        /* \"#utility.yul\":7158:7162   */\n      0x00\n        /* \"#utility.yul\":7196:7198   */\n      0x20\n        /* \"#utility.yul\":7185:7194   */\n      dup3\n        /* \"#utility.yul\":7181:7199   */\n      add\n        /* \"#utility.yul\":7173:7199   */\n      swap1\n      pop\n        /* \"#utility.yul\":7245:7254   */\n      dup2\n        /* \"#utility.yul\":7239:7243   */\n      dup2\n        /* \"#utility.yul\":7235:7255   */\n      sub\n        /* \"#utility.yul\":7231:7232   */\n      0x00\n        /* \"#utility.yul\":7220:7229   */\n      dup4\n        /* \"#utility.yul\":7216:7233   */\n      add\n        /* \"#utility.yul\":7209:7256   */\n      mstore\n        /* \"#utility.yul\":7273:7404   */\n      tag_203\n        /* \"#utility.yul\":7399:7403   */\n      dup2\n        /* \"#utility.yul\":7273:7404   */\n      tag_135\n      jump\t// in\n    tag_203:\n        /* \"#utility.yul\":7265:7404   */\n      swap1\n      pop\n        /* \"#utility.yul\":6992:7411   */\n      swap2\n      swap1\n      pop\n      jump\t// out\n        /* \"#utility.yul\":7417:7592   */\n    tag_136:\n        /* \"#utility.yul\":7557:7584   */\n      0x4e6f20636f6e747269627574696f6e20746f20726566756e6400000000000000\n        /* \"#utility.yul\":7553:7554   */\n      0x00\n        /* \"#utility.yul\":7545:7551   */\n      dup3\n        /* \"#utility.yul\":7541:7555   */\n      add\n        /* \"#utility.yul\":7534:7585   */\n      mstore\n        /* \"#utility.yul\":7417:7592   */\n      pop\n      jump\t// out\n        /* \"#utility.yul\":7598:7964   */\n    tag_137:\n        /* \"#utility.yul\":7740:7743   */\n      0x00\n        /* \"#utility.yul\":7761:7828   */\n      tag_206\n        /* \"#utility.yul\":7825:7827   */\n      0x19\n        /* \"#utility.yul\":7820:7823   */\n      dup4\n        /* \"#utility.yul\":7761:7828   */\n      tag_125\n      jump\t// in\n    tag_206:\n        /* \"#utility.yul\":7754:7828   */\n      swap2\n      pop\n        /* \"#utility.yul\":7837:7930   */\n      tag_207\n        /* \"#utility.yul\":7926:7929   */\n      dup3\n        /* \"#utility.yul\":7837:7930   */\n      tag_136\n      jump\t// in\n    tag_207:\n        /* \"#utility.yul\":7955:7957   */\n      0x20\n        /* \"#utility.yul\":7950:7953   */\n      dup3\n        /* \"#utility.yul\":7946:7958   */\n      add\n        /* \"#utility.yul\":7939:7958   */\n      swap1\n      pop\n        /* \"#utility.yul\":7598:7964   */\n      swap2\n      swap1\n      pop\n      jump\t// out\n        /* \"#utility.yul\":7970:8389   */\n    tag_92:\n        /* \"#utility.yul\":8136:8140   */\n      0x00\n        /* \"#utility.yul\":8174:8176   */\n      0x20\n        /* \"#utility.yul\":8163:8172   */\n      dup3\n        /* \"#utility.yul\":8159:8177   */\n      add\n        /* \"#utility.yul\":8151:8177   */\n      swap1\n      pop\n        /* \"#utility.yul\":8223:8232   */\n      dup2\n        /* \"#utility.yul\":8217:8221   */\n      dup2\n        /* \"#utility.yul\":8213:8233   */\n      sub\n        /* \"#utility.yul\":8209:8210   */\n      0x00\n        /* \"#utility.yul\":8198:8207   */\n      dup4\n        /* \"#utility.yul\":8194:8211   */\n      add\n        /* \"#utility.yul\":8187:8234   */\n      mstore\n        /* \"#utility.yul\":8251:8382   */\n      tag_209\n        /* \"#utility.yul\":8377:8381   */\n      dup2\n        /* \"#utility.yul\":8251:8382   */\n      tag_137\n      jump\t// in\n    tag_209:\n        /* \"#utility.yul\":8243:8382   */\n      swap1\n      pop\n        /* \"#utility.yul\":7970:8389   */\n      swap2\n      swap1\n      pop\n      jump\t// out\n        /* \"#utility.yul\":8395:8575   */\n    tag_138:\n        /* \"#utility.yul\":8443:8520   */\n      0x4e487b7100000000000000000000000000000000000000000000000000000000\n        /* \"#utility.yul\":8440:8441   */\n      0x00\n        /* \"#utility.yul\":8433:8521   */\n      mstore\n        /* \"#utility.yul\":8540:8544   */\n      0x11\n        /* \"#utility.yul\":8537:8538   */\n      0x04\n        /* \"#utility.yul\":8530:8545   */\n      mstore\n        /* \"#utility.yul\":8564:8568   */\n      0x24\n        /* \"#utility.yul\":8561:8562   */\n      0x00\n        /* \"#utility.yul\":8554:8569   */\n      revert\n        /* \"#utility.yul\":8581:8775   */\n    tag_99:\n        /* \"#utility.yul\":8621:8625   */\n      0x00\n        /* \"#utility.yul\":8641:8661   */\n      tag_212\n        /* \"#utility.yul\":8659:8660   */\n      dup3\n        /* \"#utility.yul\":8641:8661   */\n      tag_113\n      jump\t// in\n    tag_212:\n        /* \"#utility.yul\":8636:8661   */\n      swap2\n      pop\n        /* \"#utility.yul\":8675:8695   */\n      tag_213\n        /* \"#utility.yul\":8693:8694   */\n      dup4\n        /* \"#utility.yul\":8675:8695   */\n      tag_113\n      jump\t// in\n    tag_213:\n        /* \"#utility.yul\":8670:8695   */\n      swap3\n      pop\n        /* \"#utility.yul\":8719:8720   */\n      dup3\n        /* \"#utility.yul\":8716:8717   */\n      dup3\n        /* \"#utility.yul\":8712:8721   */\n      sub\n        /* \"#utility.yul\":8704:8721   */\n      swap1\n      pop\n        /* \"#utility.yul\":8743:8744   */\n      dup2\n        /* \"#utility.yul\":8737:8741   */\n      dup2\n        /* \"#utility.yul\":8734:8745   */\n      gt\n        /* \"#utility.yul\":8731:8768   */\n      iszero\n      tag_214\n      jumpi\n        /* \"#utility.yul\":8748:8766   */\n      tag_215\n      tag_138\n      jump\t// in\n    tag_215:\n        /* \"#utility.yul\":8731:8768   */\n    tag_214:\n        /* \"#utility.yul\":8581:8775   */\n      swap3\n      swap2\n      pop\n      pop\n      jump\t// out\n        /* \"#utility.yul\":8781:8945   */\n    tag_139:\n        /* \"#utility.yul\":8921:8937   */\n      0x43616d706169676e20656e646564000000000000000000000000000000000000\n        /* \"#utility.yul\":8917:8918   */\n      0x00\n        /* \"#utility.yul\":8909:8915   */\n      dup3\n        /* \"#utility.yul\":8905:8919   */\n      add\n        /* \"#utility.yul\":8898:8938   */\n      mstore\n        /* \"#utility.yul\":8781:8945   */\n      pop\n      jump\t// out\n        /* \"#utility.yul\":8951:9317   */\n    tag_140:\n        /* \"#utility.yul\":9093:9096   */\n      0x00\n        /* \"#utility.yul\":9114:9181   */\n      tag_218\n        /* \"#utility.yul\":9178:9180   */\n      0x0e\n        /* \"#utility.yul\":9173:9176   */\n      dup4\n        /* \"#utility.yul\":9114:9181   */\n      tag_125\n      jump\t// in\n    tag_218:\n        /* \"#utility.yul\":9107:9181   */\n      swap2\n      pop\n        /* \"#utility.yul\":9190:9283   */\n      tag_219\n        /* \"#utility.yul\":9279:9282   */\n      dup3\n        /* \"#utility.yul\":9190:9283   */\n      tag_139\n      jump\t// in\n    tag_219:\n        /* \"#utility.yul\":9308:9310   */\n      0x20\n        /* \"#utility.yul\":9303:9306   */\n      dup3\n        /* \"#utility.yul\":9299:9311   */\n      add\n        /* \"#utility.yul\":9292:9311   */\n      swap1\n      pop\n        /* \"#utility.yul\":8951:9317   */\n      swap2\n      swap1\n      pop\n      jump\t// out\n        /* \"#utility.yul\":9323:9742   */\n    tag_103:\n        /* \"#utility.yul\":9489:9493   */\n      0x00\n        /* \"#utility.yul\":9527:9529   */\n      0x20\n        /* \"#utility.yul\":9516:9525   */\n      dup3\n        /* \"#utility.yul\":9512:9530   */\n      add\n        /* \"#utility.yul\":9504:9530   */\n      swap1\n      pop\n        /* \"#utility.yul\":9576:9585   */\n      dup2\n        /* \"#utility.yul\":9570:9574   */\n      dup2\n        /* \"#utility.yul\":9566:9586   */\n      sub\n        /* \"#utility.yul\":9562:9563   */\n      0x00\n        /* \"#utility.yul\":9551:9560   */\n      dup4\n        /* \"#utility.yul\":9547:9564   */\n      add\n        /* \"#utility.yul\":9540:9587   */\n      mstore\n        /* \"#utility.yul\":9604:9735   */\n      tag_221\n        /* \"#utility.yul\":9730:9734   */\n      dup2\n        /* \"#utility.yul\":9604:9735   */\n      tag_140\n      jump\t// in\n    tag_221:\n        /* \"#utility.yul\":9596:9735   */\n      swap1\n      pop\n        /* \"#utility.yul\":9323:9742   */\n      swap2\n      swap1\n      pop\n      jump\t// out\n        /* \"#utility.yul\":9748:9929   */\n    tag_141:\n        /* \"#utility.yul\":9888:9921   */\n      0x446f6e6174696f6e206d7573742062652067726561746572207468616e203000\n        /* \"#utility.yul\":9884:9885   */\n      0x00\n        /* \"#utility.yul\":9876:9882   */\n      dup3\n        /* \"#utility.yul\":9872:9886   */\n      add\n        /* \"#utility.yul\":9865:9922   */\n      mstore\n        /* \"#utility.yul\":9748:9929   */\n      pop\n      jump\t// out\n        /* \"#utility.yul\":9935:10301   */\n    tag_142:\n        /* \"#utility.yul\":10077:10080   */\n      0x00\n        /* \"#utility.yul\":10098:10165   */\n      tag_224\n        /* \"#utility.yul\":10162:10164   */\n      0x1f\n        /* \"#utility.yul\":10157:10160   */\n      dup4\n        /* \"#utility.yul\":10098:10165   */\n      tag_125\n      jump\t// in\n    tag_224:\n        /* \"#utility.yul\":10091:10165   */\n      swap2\n      pop\n        /* \"#utility.yul\":10174:10267   */\n      tag_225\n        /* \"#utility.yul\":10263:10266   */\n      dup3\n        /* \"#utility.yul\":10174:10267   */\n      tag_141\n      jump\t// in\n    tag_225:\n        /* \"#utility.yul\":10292:10294   */\n      0x20\n        /* \"#utility.yul\":10287:10290   */\n      dup3\n        /* \"#utility.yul\":10283:10295   */\n      add\n        /* \"#utility.yul\":10276:10295   */\n      swap1\n      pop\n        /* \"#utility.yul\":9935:10301   */\n      swap2\n      swap1\n      pop\n      jump\t// out\n        /* \"#utility.yul\":10307:10726   */\n    tag_107:\n        /* \"#utility.yul\":10473:10477   */\n      0x00\n        /* \"#utility.yul\":10511:10513   */\n      0x20\n        /* \"#utility.yul\":10500:10509   */\n      dup3\n        /* \"#utility.yul\":10496:10514   */\n      add\n        /* \"#utility.yul\":10488:10514   */\n      swap1\n      pop\n        /* \"#utility.yul\":10560:10569   */\n      dup2\n        /* \"#utility.yul\":10554:10558   */\n      dup2\n        /* \"#utility.yul\":10550:10570   */\n      sub\n        /* \"#utility.yul\":10546:10547   */\n      0x00\n        /* \"#utility.yul\":10535:10544   */\n      dup4\n        /* \"#utility.yul\":10531:10548   */\n      add\n        /* \"#utility.yul\":10524:10571   */\n      mstore\n        /* \"#utility.yul\":10588:10719   */\n      tag_227\n        /* \"#utility.yul\":10714:10718   */\n      dup2\n        /* \"#utility.yul\":10588:10719   */\n      tag_142\n      jump\t// in\n    tag_227:\n        /* \"#utility.yul\":10580:10719   */\n      swap1\n      pop\n        /* \"#utility.yul\":10307:10726   */\n      swap2\n      swap1\n      pop\n      jump\t// out\n        /* \"#utility.yul\":10732:10923   */\n    tag_109:\n        /* \"#utility.yul\":10772:10775   */\n      0x00\n        /* \"#utility.yul\":10791:10811   */\n      tag_229\n        /* \"#utility.yul\":10809:10810   */\n      dup3\n        /* \"#utility.yul\":10791:10811   */\n      tag_113\n      jump\t// in\n    tag_229:\n        /* \"#utility.yul\":10786:10811   */\n      swap2\n      pop\n        /* \"#utility.yul\":10825:10845   */\n      tag_230\n        /* \"#utility.yul\":10843:10844   */\n      dup4\n        /* \"#utility.yul\":10825:10845   */\n      tag_113\n      jump\t// in\n    tag_230:\n        /* \"#utility.yul\":10820:10845   */\n      swap3\n      pop\n        /* \"#utility.yul\":10868:10869   */\n      dup3\n        /* \"#utility.yul\":10865:10866   */\n      dup3\n        /* \"#utility.yul\":10861:10870   */\n      add\n        /* \"#utility.yul\":10854:10870   */\n      swap1\n      pop\n        /* \"#utility.yul\":10889:10892   */\n      dup1\n        /* \"#utility.yul\":10886:10887   */\n      dup3\n        /* \"#utility.yul\":10883:10893   */\n      gt\n        /* \"#utility.yul\":10880:10916   */\n      iszero\n      tag_231\n      jumpi\n        /* \"#utility.yul\":10896:10914   */\n      tag_232\n      tag_138\n      jump\t// in\n    tag_232:\n        /* \"#utility.yul\":10880:10916   */\n    tag_231:\n        /* \"#utility.yul\":10732:10923   */\n      swap3\n      swap2\n      pop\n      pop\n      jump\t// out\n\n    auxdata: 0xa26469706673582212205a1f3a555871196058b5a2c59533c6cdbe564073902ccbc3045d89e4c045318664736f6c634300081e0033\n}\n",
				"bytecode": {
					"linkReferences": {},
					"object": "608060405234801561000f575f5ffd5b50604051610fbf380380610fbf833981810160405281019061003191906100e6565b335f5f6101000a81548173ffffffffffffffffffffffffffffffffffffffff021916908373ffffffffffffffffffffffffffffffffffffffff160217905550670de0b6b3a7640000826100849190610151565b600181905550603c816100979190610151565b426100a29190610192565b60028190555050506101c5565b5f5ffd5b5f819050919050565b6100c5816100b3565b81146100cf575f5ffd5b50565b5f815190506100e0816100bc565b92915050565b5f5f604083850312156100fc576100fb6100af565b5b5f610109858286016100d2565b925050602061011a858286016100d2565b9150509250929050565b7f4e487b71000000000000000000000000000000000000000000000000000000005f52601160045260245ffd5b5f61015b826100b3565b9150610166836100b3565b9250828202610174816100b3565b9150828204841483151761018b5761018a610124565b5b5092915050565b5f61019c826100b3565b91506101a7836100b3565b92508282019050808211156101bf576101be610124565b5b92915050565b610ded806101d25f395ff3fe6080604052600436106100a6575f3560e01c80637d3d6522116100635780637d3d6522146101905780638da5cb5b146101ba578063ac307fcf146101e4578063c5c4744c1461020e578063c7e284b814610238578063ed88c68e14610262576100a6565b806312065fe0146100aa57806324600fc3146100d457806329dcb0cf146100ea578063401938831461011457806342e94c901461013e578063590e1ae31461017a575b5f5ffd5b3480156100b5575f5ffd5b506100be61026c565b6040516100cb91906108d7565b60405180910390f35b3480156100df575f5ffd5b506100e8610273565b005b3480156100f5575f5ffd5b506100fe6104d3565b60405161010b91906108d7565b60405180910390f35b34801561011f575f5ffd5b506101286104d9565b60405161013591906108d7565b60405180910390f35b348015610149575f5ffd5b50610164600480360381019061015f919061094e565b6104df565b60405161017191906108d7565b60405180910390f35b348015610185575f5ffd5b5061018e6104f4565b005b34801561019b575f5ffd5b506101a46106e2565b6040516101b19190610993565b60405180910390f35b3480156101c5575f5ffd5b506101ce6106f4565b6040516101db91906109bb565b60405180910390f35b3480156101ef575f5ffd5b506101f8610718565b6040516102059190610993565b60405180910390f35b348015610219575f5ffd5b5061022261072b565b60405161022f91906108d7565b60405180910390f35b348015610243575f5ffd5b5061024c610731565b60405161025991906108d7565b60405180910390f35b61026a610758565b005b5f47905090565b5f5f9054906101000a900473ffffffffffffffffffffffffffffffffffffffff1673ffffffffffffffffffffffffffffffffffffffff163373ffffffffffffffffffffffffffffffffffffffff1614610301576040517f08c379a00000000000000000000000000000000000000000000000000000000081526004016102f890610a2e565b60405180910390fd5b600254421015610346576040517f08c379a000000000000000000000000000000000000000000000000000000000815260040161033d90610a96565b60405180910390fd5b60045f9054906101000a900460ff16610394576040517f08c379a000000000000000000000000000000000000000000000000000000000815260040161038b90610afe565b60405180910390fd5b600460019054906101000a900460ff16156103e4576040517f08c379a00000000000000000000000000000000000000000000000000000000081526004016103db90610b66565b60405180910390fd5b6001600460016101000a81548160ff0219169083151502179055505f5f9054906101000a900473ffffffffffffffffffffffffffffffffffffffff1673ffffffffffffffffffffffffffffffffffffffff166108fc4790811502906040515f60405180830381858888f19350505050158015610462573d5f5f3e3d5ffd5b505f5f9054906101000a900473ffffffffffffffffffffffffffffffffffffffff1673ffffffffffffffffffffffffffffffffffffffff167feaff4b37086828766ad3268786972c0cd24259d4c87a80f9d3963a3c3d999b0d476040516104c991906108d7565b60405180910390a2565b60025481565b60015481565b6005602052805f5260405f205f915090505481565b600254421015610539576040517f08c379a000000000000000000000000000000000000000000000000000000000815260040161053090610a96565b60405180910390fd5b60045f9054906101000a900460ff1615610588576040517f08c379a000000000000000000000000000000000000000000000000000000000815260040161057f90610bce565b60405180910390fd5b5f60055f3373ffffffffffffffffffffffffffffffffffffffff1673ffffffffffffffffffffffffffffffffffffffff1681526020019081526020015f205490505f811161060b576040517f08c379a000000000000000000000000000000000000000000000000000000000815260040161060290610c36565b60405180910390fd5b5f60055f3373ffffffffffffffffffffffffffffffffffffffff1673ffffffffffffffffffffffffffffffffffffffff1681526020019081526020015f20819055503373ffffffffffffffffffffffffffffffffffffffff166108fc8290811502906040515f60405180830381858888f19350505050158015610690573d5f5f3e3d5ffd5b503373ffffffffffffffffffffffffffffffffffffffff167fd7dee2702d63ad89917b6a4da9981c90c4d24f8c2bdfd64c604ecae57d8d0651826040516106d791906108d7565b60405180910390a250565b60045f9054906101000a900460ff1681565b5f5f9054906101000a900473ffffffffffffffffffffffffffffffffffffffff1681565b600460019054906101000a900460ff1681565b60035481565b5f600254421115610744575f9050610755565b426002546107529190610c81565b90505b90565b600254421061079c576040517f08c379a000000000000000000000000000000000000000000000000000000000815260040161079390610cfe565b60405180910390fd5b5f34116107de576040517f08c379a00000000000000000000000000000000000000000000000000000000081526004016107d590610d66565b60405180910390fd5b3460055f3373ffffffffffffffffffffffffffffffffffffffff1673ffffffffffffffffffffffffffffffffffffffff1681526020019081526020015f205f82825461082a9190610d84565b925050819055503460035f8282546108429190610d84565b925050819055506001546003541061086f57600160045f6101000a81548160ff0219169083151502179055505b3373ffffffffffffffffffffffffffffffffffffffff167f2a01595cddf097c90216094025db714da3f4e5bd8877b56ba86a24ecead8e543346040516108b591906108d7565b60405180910390a2565b5f819050919050565b6108d1816108bf565b82525050565b5f6020820190506108ea5f8301846108c8565b92915050565b5f5ffd5b5f73ffffffffffffffffffffffffffffffffffffffff82169050919050565b5f61091d826108f4565b9050919050565b61092d81610913565b8114610937575f5ffd5b50565b5f8135905061094881610924565b92915050565b5f60208284031215610963576109626108f0565b5b5f6109708482850161093a565b91505092915050565b5f8115159050919050565b61098d81610979565b82525050565b5f6020820190506109a65f830184610984565b92915050565b6109b581610913565b82525050565b5f6020820190506109ce5f8301846109ac565b92915050565b5f82825260208201905092915050565b7f4e6f74206f776e657200000000000000000000000000000000000000000000005f82015250565b5f610a186009836109d4565b9150610a23826109e4565b602082019050919050565b5f6020820190508181035f830152610a4581610a0c565b9050919050565b7f43616d706169676e207374696c6c2072756e6e696e67000000000000000000005f82015250565b5f610a806016836109d4565b9150610a8b82610a4c565b602082019050919050565b5f6020820190508181035f830152610aad81610a74565b9050919050565b7f476f616c206e6f742072656163686564000000000000000000000000000000005f82015250565b5f610ae86010836109d4565b9150610af382610ab4565b602082019050919050565b5f6020820190508181035f830152610b1581610adc565b9050919050565b7f416c72656164792077697468647261776e0000000000000000000000000000005f82015250565b5f610b506011836109d4565b9150610b5b82610b1c565b602082019050919050565b5f6020820190508181035f830152610b7d81610b44565b9050919050565b7f476f616c20726561636865642c206e6f20726566756e647300000000000000005f82015250565b5f610bb86018836109d4565b9150610bc382610b84565b602082019050919050565b5f6020820190508181035f830152610be581610bac565b9050919050565b7f4e6f20636f6e747269627574696f6e20746f20726566756e64000000000000005f82015250565b5f610c206019836109d4565b9150610c2b82610bec565b602082019050919050565b5f6020820190508181035f830152610c4d81610c14565b9050919050565b7f4e487b71000000000000000000000000000000000000000000000000000000005f52601160045260245ffd5b5f610c8b826108bf565b9150610c96836108bf565b9250828203905081811115610cae57610cad610c54565b5b92915050565b7f43616d706169676e20656e6465640000000000000000000000000000000000005f82015250565b5f610ce8600e836109d4565b9150610cf382610cb4565b602082019050919050565b5f6020820190508181035f830152610d1581610cdc565b9050919050565b7f446f6e6174696f6e206d7573742062652067726561746572207468616e2030005f82015250565b5f610d50601f836109d4565b9150610d5b82610d1c565b602082019050919050565b5f6020820190508181035f830152610d7d81610d44565b9050919050565b5f610d8e826108bf565b9150610d99836108bf565b9250828201905080821115610db157610db0610c54565b5b9291505056fea26469706673582212205a1f3a555871196058b5a2c59533c6cdbe564073902ccbc3045d89e4c045318664736f6c634300081e0033",
					"opcodes": "PUSH1 0x80 PUSH1 0x40 MSTORE CALLVALUE DUP1 ISZERO PUSH2 0xF JUMPI PUSH0 PUSH0 REVERT JUMPDEST POP PUSH1 0x40 MLOAD PUSH2 0xFBF CODESIZE SUB DUP1 PUSH2 0xFBF DUP4 CODECOPY DUP2 DUP2 ADD PUSH1 0x40 MSTORE DUP2 ADD SWAP1 PUSH2 0x31 SWAP2 SWAP1 PUSH2 0xE6 JUMP JUMPDEST CALLER PUSH0 PUSH0 PUSH2 0x100 EXP DUP2 SLOAD DUP2 PUSH20 0xFFFFFFFFFFFFFFFFFFFFFFFFFFFFFFFFFFFFFFFF MUL NOT AND SWAP1 DUP4 PUSH20 0xFFFFFFFFFFFFFFFFFFFFFFFFFFFFFFFFFFFFFFFF AND MUL OR SWAP1 SSTORE POP PUSH8 0xDE0B6B3A7640000 DUP3 PUSH2 0x84 SWAP2 SWAP1 PUSH2 0x151 JUMP JUMPDEST PUSH1 0x1 DUP2 SWAP1 SSTORE POP PUSH1 0x3C DUP2 PUSH2 0x97 SWAP2 SWAP1 PUSH2 0x151 JUMP JUMPDEST TIMESTAMP PUSH2 0xA2 SWAP2 SWAP1 PUSH2 0x192 JUMP JUMPDEST PUSH1 0x2 DUP2 SWAP1 SSTORE POP POP POP PUSH2 0x1C5 JUMP JUMPDEST PUSH0 PUSH0 REVERT JUMPDEST PUSH0 DUP2 SWAP1 POP SWAP2 SWAP1 POP JUMP JUMPDEST PUSH2 0xC5 DUP2 PUSH2 0xB3 JUMP JUMPDEST DUP2 EQ PUSH2 0xCF JUMPI PUSH0 PUSH0 REVERT JUMPDEST POP JUMP JUMPDEST PUSH0 DUP2 MLOAD SWAP1 POP PUSH2 0xE0 DUP2 PUSH2 0xBC JUMP JUMPDEST SWAP3 SWAP2 POP POP JUMP JUMPDEST PUSH0 PUSH0 PUSH1 0x40 DUP4 DUP6 SUB SLT ISZERO PUSH2 0xFC JUMPI PUSH2 0xFB PUSH2 0xAF JUMP JUMPDEST JUMPDEST PUSH0 PUSH2 0x109 DUP6 DUP3 DUP7 ADD PUSH2 0xD2 JUMP JUMPDEST SWAP3 POP POP PUSH1 0x20 PUSH2 0x11A DUP6 DUP3 DUP7 ADD PUSH2 0xD2 JUMP JUMPDEST SWAP2 POP POP SWAP3 POP SWAP3 SWAP1 POP JUMP JUMPDEST PUSH32 0x4E487B7100000000000000000000000000000000000000000000000000000000 PUSH0 MSTORE PUSH1 0x11 PUSH1 0x4 MSTORE PUSH1 0x24 PUSH0 REVERT JUMPDEST PUSH0 PUSH2 0x15B DUP3 PUSH2 0xB3 JUMP JUMPDEST SWAP2 POP PUSH2 0x166 DUP4 PUSH2 0xB3 JUMP JUMPDEST SWAP3 POP DUP3 DUP3 MUL PUSH2 0x174 DUP2 PUSH2 0xB3 JUMP JUMPDEST SWAP2 POP DUP3 DUP3 DIV DUP5 EQ DUP4 ISZERO OR PUSH2 0x18B JUMPI PUSH2 0x18A PUSH2 0x124 JUMP JUMPDEST JUMPDEST POP SWAP3 SWAP2 POP POP JUMP JUMPDEST PUSH0 PUSH2 0x19C DUP3 PUSH2 0xB3 JUMP JUMPDEST SWAP2 POP PUSH2 0x1A7 DUP4 PUSH2 0xB3 JUMP JUMPDEST SWAP3 POP DUP3 DUP3 ADD SWAP1 POP DUP1 DUP3 GT ISZERO PUSH2 0x1BF JUMPI PUSH2 0x1BE PUSH2 0x124 JUMP JUMPDEST JUMPDEST SWAP3 SWAP2 POP POP JUMP JUMPDEST PUSH2 0xDED DUP1 PUSH2 0x1D2 PUSH0 CODECOPY PUSH0 RETURN INVALID PUSH1 0x80 PUSH1 0x40 MSTORE PUSH1 0x4 CALLDATASIZE LT PUSH2 0xA6 JUMPI PUSH0 CALLDATALOAD PUSH1 0xE0 SHR DUP1 PUSH4 0x7D3D6522 GT PUSH2 0x63 JUMPI DUP1 PUSH4 0x7D3D6522 EQ PUSH2 0x190 JUMPI DUP1 PUSH4 0x8DA5CB5B EQ PUSH2 0x1BA JUMPI DUP1 PUSH4 0xAC307FCF EQ PUSH2 0x1E4 JUMPI DUP1 PUSH4 0xC5C4744C EQ PUSH2 0x20E JUMPI DUP1 PUSH4 0xC7E284B8 EQ PUSH2 0x238 JUMPI DUP1 PUSH4 0xED88C68E EQ PUSH2 0x262 JUMPI PUSH2 0xA6 JUMP JUMPDEST DUP1 PUSH4 0x12065FE0 EQ PUSH2 0xAA JUMPI DUP1 PUSH4 0x24600FC3 EQ PUSH2 0xD4 JUMPI DUP1 PUSH4 0x29DCB0CF EQ PUSH2 0xEA JUMPI DUP1 PUSH4 0x40193883 EQ PUSH2 0x114 JUMPI DUP1 PUSH4 0x42E94C90 EQ PUSH2 0x13E JUMPI DUP1 PUSH4 0x590E1AE3 EQ PUSH2 0x17A JUMPI JUMPDEST PUSH0 PUSH0 REVERT JUMPDEST CALLVALUE DUP1 ISZERO PUSH2 0xB5 JUMPI PUSH0 PUSH0 REVERT JUMPDEST POP PUSH2 0xBE PUSH2 0x26C JUMP JUMPDEST PUSH1 0x40 MLOAD PUSH2 0xCB SWAP2 SWAP1 PUSH2 0x8D7 JUMP JUMPDEST PUSH1 0x40 MLOAD DUP1 SWAP2 SUB SWAP1 RETURN JUMPDEST CALLVALUE DUP1 ISZERO PUSH2 0xDF JUMPI PUSH0 PUSH0 REVERT JUMPDEST POP PUSH2 0xE8 PUSH2 0x273 JUMP JUMPDEST STOP JUMPDEST CALLVALUE DUP1 ISZERO PUSH2 0xF5 JUMPI PUSH0 PUSH0 REVERT JUMPDEST POP PUSH2 0xFE PUSH2 0x4D3 JUMP JUMPDEST PUSH1 0x40 MLOAD PUSH2 0x10B SWAP2 SWAP1 PUSH2 0x8D7 JUMP JUMPDEST PUSH1 0x40 MLOAD DUP1 SWAP2 SUB SWAP1 RETURN JUMPDEST CALLVALUE DUP1 ISZERO PUSH2 0x11F JUMPI PUSH0 PUSH0 REVERT JUMPDEST POP PUSH2 0x128 PUSH2 0x4D9 JUMP JUMPDEST PUSH1 0x40 MLOAD PUSH2 0x135 SWAP2 SWAP1 PUSH2 0x8D7 JUMP JUMPDEST PUSH1 0x40 MLOAD DUP1 SWAP2 SUB SWAP1 RETURN JUMPDEST CALLVALUE DUP1 ISZERO PUSH2 0x149 JUMPI PUSH0 PUSH0 REVERT JUMPDEST POP PUSH2 0x164 PUSH1 0x4 DUP1 CALLDATASIZE SUB DUP2 ADD SWAP1 PUSH2 0x15F SWAP2 SWAP1 PUSH2 0x94E JUMP JUMPDEST PUSH2 0x4DF JUMP JUMPDEST PUSH1 0x40 MLOAD PUSH2 0x171 SWAP2 SWAP1 PUSH2 0x8D7 JUMP JUMPDEST PUSH1 0x40 MLOAD DUP1 SWAP2 SUB SWAP1 RETURN JUMPDEST CALLVALUE DUP1 ISZERO PUSH2 0x185 JUMPI PUSH0 PUSH0 REVERT JUMPDEST POP PUSH2 0x18E PUSH2 0x4F4 JUMP JUMPDEST STOP JUMPDEST CALLVALUE DUP1 ISZERO PUSH2 0x19B JUMPI PUSH0 PUSH0 REVERT JUMPDEST POP PUSH2 0x1A4 PUSH2 0x6E2 JUMP JUMPDEST PUSH1 0x40 MLOAD PUSH2 0x1B1 SWAP2 SWAP1 PUSH2 0x993 JUMP JUMPDEST PUSH1 0x40 MLOAD DUP1 SWAP2 SUB SWAP1 RETURN JUMPDEST CALLVALUE DUP1 ISZERO PUSH2 0x1C5 JUMPI PUSH0 PUSH0 REVERT JUMPDEST POP PUSH2 0x1CE PUSH2 0x6F4 JUMP JUMPDEST PUSH1 0x40 MLOAD PUSH2 0x1DB SWAP2 SWAP1 PUSH2 0x9BB JUMP JUMPDEST PUSH1 0x40 MLOAD DUP1 SWAP2 SUB SWAP1 RETURN JUMPDEST CALLVALUE DUP1 ISZERO PUSH2 0x1EF JUMPI PUSH0 PUSH0 REVERT JUMPDEST POP PUSH2 0x1F8 PUSH2 0x718 JUMP JUMPDEST PUSH1 0x40 MLOAD PUSH2 0x205 SWAP2 SWAP1 PUSH2 0x993 JUMP JUMPDEST PUSH1 0x40 MLOAD DUP1 SWAP2 SUB SWAP1 RETURN JUMPDEST CALLVALUE DUP1 ISZERO PUSH2 0x219 JUMPI PUSH0 PUSH0 REVERT JUMPDEST POP PUSH2 0x222 PUSH2 0x72B JUMP JUMPDEST PUSH1 0x40 MLOAD PUSH2 0x22F SWAP2 SWAP1 PUSH2 0x8D7 JUMP JUMPDEST PUSH1 0x40 MLOAD DUP1 SWAP2 SUB SWAP1 RETURN JUMPDEST CALLVALUE DUP1 ISZERO PUSH2 0x243 JUMPI PUSH0 PUSH0 REVERT JUMPDEST POP PUSH2 0x24C PUSH2 0x731 JUMP JUMPDEST PUSH1 0x40 MLOAD PUSH2 0x259 SWAP2 SWAP1 PUSH2 0x8D7 JUMP JUMPDEST PUSH1 0x40 MLOAD DUP1 SWAP2 SUB SWAP1 RETURN JUMPDEST PUSH2 0x26A PUSH2 0x758 JUMP JUMPDEST STOP JUMPDEST PUSH0 SELFBALANCE SWAP1 POP SWAP1 JUMP JUMPDEST PUSH0 PUSH0 SWAP1 SLOAD SWAP1 PUSH2 0x100 EXP SWAP1 DIV PUSH20 0xFFFFFFFFFFFFFFFFFFFFFFFFFFFFFFFFFFFFFFFF AND PUSH20 0xFFFFFFFFFFFFFFFFFFFFFFFFFFFFFFFFFFFFFFFF AND CALLER PUSH20 0xFFFFFFFFFFFFFFFFFFFFFFFFFFFFFFFFFFFFFFFF AND EQ PUSH2 0x301 JUMPI PUSH1 0x40 MLOAD PUSH32 0x8C379A000000000000000000000000000000000000000000000000000000000 DUP2 MSTORE PUSH1 0x4 ADD PUSH2 0x2F8 SWAP1 PUSH2 0xA2E JUMP JUMPDEST PUSH1 0x40 MLOAD DUP1 SWAP2 SUB SWAP1 REVERT JUMPDEST PUSH1 0x2 SLOAD TIMESTAMP LT ISZERO PUSH2 0x346 JUMPI PUSH1 0x40 MLOAD PUSH32 0x8C379A000000000000000000000000000000000000000000000000000000000 DUP2 MSTORE PUSH1 0x4 ADD PUSH2 0x33D SWAP1 PUSH2 0xA96 JUMP JUMPDEST PUSH1 0x40 MLOAD DUP1 SWAP2 SUB SWAP1 REVERT JUMPDEST PUSH1 0x4 PUSH0 SWAP1 SLOAD SWAP1 PUSH2 0x100 EXP SWAP1 DIV PUSH1 0xFF AND PUSH2 0x394 JUMPI PUSH1 0x40 MLOAD PUSH32 0x8C379A000000000000000000000000000000000000000000000000000000000 DUP2 MSTORE PUSH1 0x4 ADD PUSH2 0x38B SWAP1 PUSH2 0xAFE JUMP JUMPDEST PUSH1 0x40 MLOAD DUP1 SWAP2 SUB SWAP1 REVERT JUMPDEST PUSH1 0x4 PUSH1 0x1 SWAP1 SLOAD SWAP1 PUSH2 0x100 EXP SWAP1 DIV PUSH1 0xFF AND ISZERO PUSH2 0x3E4 JUMPI PUSH1 0x40 MLOAD PUSH32 0x8C379A000000000000000000000000000000000000000000000000000000000 DUP2 MSTORE PUSH1 0x4 ADD PUSH2 0x3DB SWAP1 PUSH2 0xB66 JUMP JUMPDEST PUSH1 0x40 MLOAD DUP1 SWAP2 SUB SWAP1 REVERT JUMPDEST PUSH1 0x1 PUSH1 0x4 PUSH1 0x1 PUSH2 0x100 EXP DUP2 SLOAD DUP2 PUSH1 0xFF MUL NOT AND SWAP1 DUP4 ISZERO ISZERO MUL OR SWAP1 SSTORE POP PUSH0 PUSH0 SWAP1 SLOAD SWAP1 PUSH2 0x100 EXP SWAP1 DIV PUSH20 0xFFFFFFFFFFFFFFFFFFFFFFFFFFFFFFFFFFFFFFFF AND PUSH20 0xFFFFFFFFFFFFFFFFFFFFFFFFFFFFFFFFFFFFFFFF AND PUSH2 0x8FC SELFBALANCE SWAP1 DUP2 ISZERO MUL SWAP1 PUSH1 0x40 MLOAD PUSH0 PUSH1 0x40 MLOAD DUP1 DUP4 SUB DUP2 DUP6 DUP9 DUP9 CALL SWAP4 POP POP POP POP ISZERO DUP1 ISZERO PUSH2 0x462 JUMPI RETURNDATASIZE PUSH0 PUSH0 RETURNDATACOPY RETURNDATASIZE PUSH0 REVERT JUMPDEST POP PUSH0 PUSH0 SWAP1 SLOAD SWAP1 PUSH2 0x100 EXP SWAP1 DIV PUSH20 0xFFFFFFFFFFFFFFFFFFFFFFFFFFFFFFFFFFFFFFFF AND PUSH20 0xFFFFFFFFFFFFFFFFFFFFFFFFFFFFFFFFFFFFFFFF AND PUSH32 0xEAFF4B37086828766AD3268786972C0CD24259D4C87A80F9D3963A3C3D999B0D SELFBALANCE PUSH1 0x40 MLOAD PUSH2 0x4C9 SWAP2 SWAP1 PUSH2 0x8D7 JUMP JUMPDEST PUSH1 0x40 MLOAD DUP1 SWAP2 SUB SWAP1 LOG2 JUMP JUMPDEST PUSH1 0x2 SLOAD DUP2 JUMP JUMPDEST PUSH1 0x1 SLOAD DUP2 JUMP JUMPDEST PUSH1 0x5 PUSH1 0x20 MSTORE DUP1 PUSH0 MSTORE PUSH1 0x40 PUSH0 KECCAK256 PUSH0 SWAP2 POP SWAP1 POP SLOAD DUP2 JUMP JUMPDEST PUSH1 0x2 SLOAD TIMESTAMP LT ISZERO PUSH2 0x539 JUMPI PUSH1 0x40 MLOAD PUSH32 0x8C379A000000000000000000000000000000000000000000000000000000000 DUP2 MSTORE PUSH1 0x4 ADD PUSH2 0x530 SWAP1 PUSH2 0xA96 JUMP JUMPDEST PUSH1 0x40 MLOAD DUP1 SWAP2 SUB SWAP1 REVERT JUMPDEST PUSH1 0x4 PUSH0 SWAP1 SLOAD SWAP1 PUSH2 0x100 EXP SWAP1 DIV PUSH1 0xFF AND ISZERO PUSH2 0x588 JUMPI PUSH1 0x40 MLOAD PUSH32 0x8C379A000000000000000000000000000000000000000000000000000000000 DUP2 MSTORE PUSH1 0x4 ADD PUSH2 0x57F SWAP1 PUSH2 0xBCE JUMP JUMPDEST PUSH1 0x40 MLOAD DUP1 SWAP2 SUB SWAP1 REVERT JUMPDEST PUSH0 PUSH1 0x5 PUSH0 CALLER PUSH20 0xFFFFFFFFFFFFFFFFFFFFFFFFFFFFFFFFFFFFFFFF AND PUSH20 0xFFFFFFFFFFFFFFFFFFFFFFFFFFFFFFFFFFFFFFFF AND DUP2 MSTORE PUSH1 0x20 ADD SWAP1 DUP2 MSTORE PUSH1 0x20 ADD PUSH0 KECCAK256 SLOAD SWAP1 POP PUSH0 DUP2 GT PUSH2 0x60B JUMPI PUSH1 0x40 MLOAD PUSH32 0x8C379A000000000000000000000000000000000000000000000000000000000 DUP2 MSTORE PUSH1 0x4 ADD PUSH2 0x602 SWAP1 PUSH2 0xC36 JUMP JUMPDEST PUSH1 0x40 MLOAD DUP1 SWAP2 SUB SWAP1 REVERT JUMPDEST PUSH0 PUSH1 0x5 PUSH0 CALLER PUSH20 0xFFFFFFFFFFFFFFFFFFFFFFFFFFFFFFFFFFFFFFFF AND PUSH20 0xFFFFFFFFFFFFFFFFFFFFFFFFFFFFFFFFFFFFFFFF AND DUP2 MSTORE PUSH1 0x20 ADD SWAP1 DUP2 MSTORE PUSH1 0x20 ADD PUSH0 KECCAK256 DUP2 SWAP1 SSTORE POP CALLER PUSH20 0xFFFFFFFFFFFFFFFFFFFFFFFFFFFFFFFFFFFFFFFF AND PUSH2 0x8FC DUP3 SWAP1 DUP2 ISZERO MUL SWAP1 PUSH1 0x40 MLOAD PUSH0 PUSH1 0x40 MLOAD DUP1 DUP4 SUB DUP2 DUP6 DUP9 DUP9 CALL SWAP4 POP POP POP POP ISZERO DUP1 ISZERO PUSH2 0x690 JUMPI RETURNDATASIZE PUSH0 PUSH0 RETURNDATACOPY RETURNDATASIZE PUSH0 REVERT JUMPDEST POP CALLER PUSH20 0xFFFFFFFFFFFFFFFFFFFFFFFFFFFFFFFFFFFFFFFF AND PUSH32 0xD7DEE2702D63AD89917B6A4DA9981C90C4D24F8C2BDFD64C604ECAE57D8D0651 DUP3 PUSH1 0x40 MLOAD PUSH2 0x6D7 SWAP2 SWAP1 PUSH2 0x8D7 JUMP JUMPDEST PUSH1 0x40 MLOAD DUP1 SWAP2 SUB SWAP1 LOG2 POP JUMP JUMPDEST PUSH1 0x4 PUSH0 SWAP1 SLOAD SWAP1 PUSH2 0x100 EXP SWAP1 DIV PUSH1 0xFF AND DUP2 JUMP JUMPDEST PUSH0 PUSH0 SWAP1 SLOAD SWAP1 PUSH2 0x100 EXP SWAP1 DIV PUSH20 0xFFFFFFFFFFFFFFFFFFFFFFFFFFFFFFFFFFFFFFFF AND DUP2 JUMP JUMPDEST PUSH1 0x4 PUSH1 0x1 SWAP1 SLOAD SWAP1 PUSH2 0x100 EXP SWAP1 DIV PUSH1 0xFF AND DUP2 JUMP JUMPDEST PUSH1 0x3 SLOAD DUP2 JUMP JUMPDEST PUSH0 PUSH1 0x2 SLOAD TIMESTAMP GT ISZERO PUSH2 0x744 JUMPI PUSH0 SWAP1 POP PUSH2 0x755 JUMP JUMPDEST TIMESTAMP PUSH1 0x2 SLOAD PUSH2 0x752 SWAP2 SWAP1 PUSH2 0xC81 JUMP JUMPDEST SWAP1 POP JUMPDEST SWAP1 JUMP JUMPDEST PUSH1 0x2 SLOAD TIMESTAMP LT PUSH2 0x79C JUMPI PUSH1 0x40 MLOAD PUSH32 0x8C379A000000000000000000000000000000000000000000000000000000000 DUP2 MSTORE PUSH1 0x4 ADD PUSH2 0x793 SWAP1 PUSH2 0xCFE JUMP JUMPDEST PUSH1 0x40 MLOAD DUP1 SWAP2 SUB SWAP1 REVERT JUMPDEST PUSH0 CALLVALUE GT PUSH2 0x7DE JUMPI PUSH1 0x40 MLOAD PUSH32 0x8C379A000000000000000000000000000000000000000000000000000000000 DUP2 MSTORE PUSH1 0x4 ADD PUSH2 0x7D5 SWAP1 PUSH2 0xD66 JUMP JUMPDEST PUSH1 0x40 MLOAD DUP1 SWAP2 SUB SWAP1 REVERT JUMPDEST CALLVALUE PUSH1 0x5 PUSH0 CALLER PUSH20 0xFFFFFFFFFFFFFFFFFFFFFFFFFFFFFFFFFFFFFFFF AND PUSH20 0xFFFFFFFFFFFFFFFFFFFFFFFFFFFFFFFFFFFFFFFF AND DUP2 MSTORE PUSH1 0x20 ADD SWAP1 DUP2 MSTORE PUSH1 0x20 ADD PUSH0 KECCAK256 PUSH0 DUP3 DUP3 SLOAD PUSH2 0x82A SWAP2 SWAP1 PUSH2 0xD84 JUMP JUMPDEST SWAP3 POP POP DUP2 SWAP1 SSTORE POP CALLVALUE PUSH1 0x3 PUSH0 DUP3 DUP3 SLOAD PUSH2 0x842 SWAP2 SWAP1 PUSH2 0xD84 JUMP JUMPDEST SWAP3 POP POP DUP2 SWAP1 SSTORE POP PUSH1 0x1 SLOAD PUSH1 0x3 SLOAD LT PUSH2 0x86F JUMPI PUSH1 0x1 PUSH1 0x4 PUSH0 PUSH2 0x100 EXP DUP2 SLOAD DUP2 PUSH1 0xFF MUL NOT AND SWAP1 DUP4 ISZERO ISZERO MUL OR SWAP1 SSTORE POP JUMPDEST CALLER PUSH20 0xFFFFFFFFFFFFFFFFFFFFFFFFFFFFFFFFFFFFFFFF AND PUSH32 0x2A01595CDDF097C90216094025DB714DA3F4E5BD8877B56BA86A24ECEAD8E543 CALLVALUE PUSH1 0x40 MLOAD PUSH2 0x8B5 SWAP2 SWAP1 PUSH2 0x8D7 JUMP JUMPDEST PUSH1 0x40 MLOAD DUP1 SWAP2 SUB SWAP1 LOG2 JUMP JUMPDEST PUSH0 DUP2 SWAP1 POP SWAP2 SWAP1 POP JUMP JUMPDEST PUSH2 0x8D1 DUP2 PUSH2 0x8BF JUMP JUMPDEST DUP3 MSTORE POP POP JUMP JUMPDEST PUSH0 PUSH1 0x20 DUP3 ADD SWAP1 POP PUSH2 0x8EA PUSH0 DUP4 ADD DUP5 PUSH2 0x8C8 JUMP JUMPDEST SWAP3 SWAP2 POP POP JUMP JUMPDEST PUSH0 PUSH0 REVERT JUMPDEST PUSH0 PUSH20 0xFFFFFFFFFFFFFFFFFFFFFFFFFFFFFFFFFFFFFFFF DUP3 AND SWAP1 POP SWAP2 SWAP1 POP JUMP JUMPDEST PUSH0 PUSH2 0x91D DUP3 PUSH2 0x8F4 JUMP JUMPDEST SWAP1 POP SWAP2 SWAP1 POP JUMP JUMPDEST PUSH2 0x92D DUP2 PUSH2 0x913 JUMP JUMPDEST DUP2 EQ PUSH2 0x937 JUMPI PUSH0 PUSH0 REVERT JUMPDEST POP JUMP JUMPDEST PUSH0 DUP2 CALLDATALOAD SWAP1 POP PUSH2 0x948 DUP2 PUSH2 0x924 JUMP JUMPDEST SWAP3 SWAP2 POP POP JUMP JUMPDEST PUSH0 PUSH1 0x20 DUP3 DUP5 SUB SLT ISZERO PUSH2 0x963 JUMPI PUSH2 0x962 PUSH2 0x8F0 JUMP JUMPDEST JUMPDEST PUSH0 PUSH2 0x970 DUP5 DUP3 DUP6 ADD PUSH2 0x93A JUMP JUMPDEST SWAP2 POP POP SWAP3 SWAP2 POP POP JUMP JUMPDEST PUSH0 DUP2 ISZERO ISZERO SWAP1 POP SWAP2 SWAP1 POP JUMP JUMPDEST PUSH2 0x98D DUP2 PUSH2 0x979 JUMP JUMPDEST DUP3 MSTORE POP POP JUMP JUMPDEST PUSH0 PUSH1 0x20 DUP3 ADD SWAP1 POP PUSH2 0x9A6 PUSH0 DUP4 ADD DUP5 PUSH2 0x984 JUMP JUMPDEST SWAP3 SWAP2 POP POP JUMP JUMPDEST PUSH2 0x9B5 DUP2 PUSH2 0x913 JUMP JUMPDEST DUP3 MSTORE POP POP JUMP JUMPDEST PUSH0 PUSH1 0x20 DUP3 ADD SWAP1 POP PUSH2 0x9CE PUSH0 DUP4 ADD DUP5 PUSH2 0x9AC JUMP JUMPDEST SWAP3 SWAP2 POP POP JUMP JUMPDEST PUSH0 DUP3 DUP3 MSTORE PUSH1 0x20 DUP3 ADD SWAP1 POP SWAP3 SWAP2 POP POP JUMP JUMPDEST PUSH32 0x4E6F74206F776E65720000000000000000000000000000000000000000000000 PUSH0 DUP3 ADD MSTORE POP JUMP JUMPDEST PUSH0 PUSH2 0xA18 PUSH1 0x9 DUP4 PUSH2 0x9D4 JUMP JUMPDEST SWAP2 POP PUSH2 0xA23 DUP3 PUSH2 0x9E4 JUMP JUMPDEST PUSH1 0x20 DUP3 ADD SWAP1 POP SWAP2 SWAP1 POP JUMP JUMPDEST PUSH0 PUSH1 0x20 DUP3 ADD SWAP1 POP DUP2 DUP2 SUB PUSH0 DUP4 ADD MSTORE PUSH2 0xA45 DUP2 PUSH2 0xA0C JUMP JUMPDEST SWAP1 POP SWAP2 SWAP1 POP JUMP JUMPDEST PUSH32 0x43616D706169676E207374696C6C2072756E6E696E6700000000000000000000 PUSH0 DUP3 ADD MSTORE POP JUMP JUMPDEST PUSH0 PUSH2 0xA80 PUSH1 0x16 DUP4 PUSH2 0x9D4 JUMP JUMPDEST SWAP2 POP PUSH2 0xA8B DUP3 PUSH2 0xA4C JUMP JUMPDEST PUSH1 0x20 DUP3 ADD SWAP1 POP SWAP2 SWAP1 POP JUMP JUMPDEST PUSH0 PUSH1 0x20 DUP3 ADD SWAP1 POP DUP2 DUP2 SUB PUSH0 DUP4 ADD MSTORE PUSH2 0xAAD DUP2 PUSH2 0xA74 JUMP JUMPDEST SWAP1 POP SWAP2 SWAP1 POP JUMP JUMPDEST PUSH32 0x476F616C206E6F74207265616368656400000000000000000000000000000000 PUSH0 DUP3 ADD MSTORE POP JUMP JUMPDEST PUSH0 PUSH2 0xAE8 PUSH1 0x10 DUP4 PUSH2 0x9D4 JUMP JUMPDEST SWAP2 POP PUSH2 0xAF3 DUP3 PUSH2 0xAB4 JUMP JUMPDEST PUSH1 0x20 DUP3 ADD SWAP1 POP SWAP2 SWAP1 POP JUMP JUMPDEST PUSH0 PUSH1 0x20 DUP3 ADD SWAP1 POP DUP2 DUP2 SUB PUSH0 DUP4 ADD MSTORE PUSH2 0xB15 DUP2 PUSH2 0xADC JUMP JUMPDEST SWAP1 POP SWAP2 SWAP1 POP JUMP JUMPDEST PUSH32 0x416C72656164792077697468647261776E000000000000000000000000000000 PUSH0 DUP3 ADD MSTORE POP JUMP JUMPDEST PUSH0 PUSH2 0xB50 PUSH1 0x11 DUP4 PUSH2 0x9D4 JUMP JUMPDEST SWAP2 POP PUSH2 0xB5B DUP3 PUSH2 0xB1C JUMP JUMPDEST PUSH1 0x20 DUP3 ADD SWAP1 POP SWAP2 SWAP1 POP JUMP JUMPDEST PUSH0 PUSH1 0x20 DUP3 ADD SWAP1 POP DUP2 DUP2 SUB PUSH0 DUP4 ADD MSTORE PUSH2 0xB7D DUP2 PUSH2 0xB44 JUMP JUMPDEST SWAP1 POP SWAP2 SWAP1 POP JUMP JUMPDEST PUSH32 0x476F616C20726561636865642C206E6F20726566756E64730000000000000000 PUSH0 DUP3 ADD MSTORE POP JUMP JUMPDEST PUSH0 PUSH2 0xBB8 PUSH1 0x18 DUP4 PUSH2 0x9D4 JUMP JUMPDEST SWAP2 POP PUSH2 0xBC3 DUP3 PUSH2 0xB84 JUMP JUMPDEST PUSH1 0x20 DUP3 ADD SWAP1 POP SWAP2 SWAP1 POP JUMP JUMPDEST PUSH0 PUSH1 0x20 DUP3 ADD SWAP1 POP DUP2 DUP2 SUB PUSH0 DUP4 ADD MSTORE PUSH2 0xBE5 DUP2 PUSH2 0xBAC JUMP JUMPDEST SWAP1 POP SWAP2 SWAP1 POP JUMP JUMPDEST PUSH32 0x4E6F20636F6E747269627574696F6E20746F20726566756E6400000000000000 PUSH0 DUP3 ADD MSTORE POP JUMP JUMPDEST PUSH0 PUSH2 0xC20 PUSH1 0x19 DUP4 PUSH2 0x9D4 JUMP JUMPDEST SWAP2 POP PUSH2 0xC2B DUP3 PUSH2 0xBEC JUMP JUMPDEST PUSH1 0x20 DUP3 ADD SWAP1 POP SWAP2 SWAP1 POP JUMP JUMPDEST PUSH0 PUSH1 0x20 DUP3 ADD SWAP1 POP DUP2 DUP2 SUB PUSH0 DUP4 ADD MSTORE PUSH2 0xC4D DUP2 PUSH2 0xC14 JUMP JUMPDEST SWAP1 POP SWAP2 SWAP1 POP JUMP JUMPDEST PUSH32 0x4E487B7100000000000000000000000000000000000000000000000000000000 PUSH0 MSTORE PUSH1 0x11 PUSH1 0x4 MSTORE PUSH1 0x24 PUSH0 REVERT JUMPDEST PUSH0 PUSH2 0xC8B DUP3 PUSH2 0x8BF JUMP JUMPDEST SWAP2 POP PUSH2 0xC96 DUP4 PUSH2 0x8BF JUMP JUMPDEST SWAP3 POP DUP3 DUP3 SUB SWAP1 POP DUP2 DUP2 GT ISZERO PUSH2 0xCAE JUMPI PUSH2 0xCAD PUSH2 0xC54 JUMP JUMPDEST JUMPDEST SWAP3 SWAP2 POP POP JUMP JUMPDEST PUSH32 0x43616D706169676E20656E646564000000000000000000000000000000000000 PUSH0 DUP3 ADD MSTORE POP JUMP JUMPDEST PUSH0 PUSH2 0xCE8 PUSH1 0xE DUP4 PUSH2 0x9D4 JUMP JUMPDEST SWAP2 POP PUSH2 0xCF3 DUP3 PUSH2 0xCB4 JUMP JUMPDEST PUSH1 0x20 DUP3 ADD SWAP1 POP SWAP2 SWAP1 POP JUMP JUMPDEST PUSH0 PUSH1 0x20 DUP3 ADD SWAP1 POP DUP2 DUP2 SUB PUSH0 DUP4 ADD MSTORE PUSH2 0xD15 DUP2 PUSH2 0xCDC JUMP JUMPDEST SWAP1 POP SWAP2 SWAP1 POP JUMP JUMPDEST PUSH32 0x446F6E6174696F6E206D7573742062652067726561746572207468616E203000 PUSH0 DUP3 ADD MSTORE POP JUMP JUMPDEST PUSH0 PUSH2 0xD50 PUSH1 0x1F DUP4 PUSH2 0x9D4 JUMP JUMPDEST SWAP2 POP PUSH2 0xD5B DUP3 PUSH2 0xD1C JUMP JUMPDEST PUSH1 0x20 DUP3 ADD SWAP1 POP SWAP2 SWAP1 POP JUMP JUMPDEST PUSH0 PUSH1 0x20 DUP3 ADD SWAP1 POP DUP2 DUP2 SUB PUSH0 DUP4 ADD MSTORE PUSH2 0xD7D DUP2 PUSH2 0xD44 JUMP JUMPDEST SWAP1 POP SWAP2 SWAP1 POP JUMP JUMPDEST PUSH0 PUSH2 0xD8E DUP3 PUSH2 0x8BF JUMP JUMPDEST SWAP2 POP PUSH2 0xD99 DUP4 PUSH2 0x8BF JUMP JUMPDEST SWAP3 POP DUP3 DUP3 ADD SWAP1 POP DUP1 DUP3 GT ISZERO PUSH2 0xDB1 JUMPI PUSH2 0xDB0 PUSH2 0xC54 JUMP JUMPDEST JUMPDEST SWAP3 SWAP2 POP POP JUMP INVALID LOG2 PUSH5 0x6970667358 0x22 SLT KECCAK256 GAS 0x1F GASPRICE SSTORE PC PUSH18 0x196058B5A2C59533C6CDBE564073902CCBC3 DIV TSTORE DUP10 RETF 0xC0 GASLIMIT BALANCE DUP7 PUSH5 0x736F6C6343 STOP ADDMOD 0x1E STOP CALLER "
				},
				"gasEstimates": {
					"creation": {
						"codeDepositCost": "713000",
						"executionCost": "infinite",
						"totalCost": "infinite"
					},
					"external": {
						"contributions(address)": "2891",
						"deadline()": "2470",
						"donate()": "infinite",
						"fundsWithdrawn()": "2561",
						"getBalance()": "335",
						"getTimeLeft()": "infinite",
						"goal()": "2492",
						"goalReached()": "2466",
						"owner()": "2529",
						"refund()": "infinite",
						"totalRaised()": "2491",
						"withdrawFunds()": "infinite"
					}
				},
				"methodIdentifiers": {
					"contributions(address)": "42e94c90",
					"deadline()": "29dcb0cf",
					"donate()": "ed88c68e",
					"fundsWithdrawn()": "ac307fcf",
					"getBalance()": "12065fe0",
					"getTimeLeft()": "c7e284b8",
					"goal()": "40193883",
					"goalReached()": "7d3d6522",
					"owner()": "8da5cb5b",
					"refund()": "590e1ae3",
					"totalRaised()": "c5c4744c",
					"withdrawFunds()": "24600fc3"
				}
			},
			"storageLayout": {
				"storage": [
					{
						"astId": 3,
						"contract": "Crowdfunding/CrowFund.sol:CrowFund",
						"label": "owner",
						"offset": 0,
						"slot": "0",
						"type": "t_address"
					},
					{
						"astId": 5,
						"contract": "Crowdfunding/CrowFund.sol:CrowFund",
						"label": "goal",
						"offset": 0,
						"slot": "1",
						"type": "t_uint256"
					},
					{
						"astId": 7,
						"contract": "Crowdfunding/CrowFund.sol:CrowFund",
						"label": "deadline",
						"offset": 0,
						"slot": "2",
						"type": "t_uint256"
					},
					{
						"astId": 9,
						"contract": "Crowdfunding/CrowFund.sol:CrowFund",
						"label": "totalRaised",
						"offset": 0,
						"slot": "3",
						"type": "t_uint256"
					},
					{
						"astId": 11,
						"contract": "Crowdfunding/CrowFund.sol:CrowFund",
						"label": "goalReached",
						"offset": 0,
						"slot": "4",
						"type": "t_bool"
					},
					{
						"astId": 13,
						"contract": "Crowdfunding/CrowFund.sol:CrowFund",
						"label": "fundsWithdrawn",
						"offset": 1,
						"slot": "4",
						"type": "t_bool"
					},
					{
						"astId": 17,
						"contract": "Crowdfunding/CrowFund.sol:CrowFund",
						"label": "contributions",
						"offset": 0,
						"slot": "5",
						"type": "t_mapping(t_address,t_uint256)"
					}
				],
				"types": {
					"t_address": {
						"encoding": "inplace",
						"label": "address",
						"numberOfBytes": "20"
					},
					"t_bool": {
						"encoding": "inplace",
						"label": "bool",
						"numberOfBytes": "1"
					},
					"t_mapping(t_address,t_uint256)": {
						"encoding": "mapping",
						"key": "t_address",
						"label": "mapping(address => uint256)",
						"numberOfBytes": "32",
						"value": "t_uint256"
					},
					"t_uint256": {
						"encoding": "inplace",
						"label": "uint256",
						"numberOfBytes": "32"
					}
				}
			},
			"userdoc": {
				"kind": "user",
				"methods": {},
				"version": 1
			}
		}
	}
}