{
	"vjezba2-remix ide/StudentRecords.sol": {
		"StudentRecord": {
			"abi": [
				{
					"inputs": [
						{
							"internalType": "string",
							"name": "_name",
							"type": "string"
						},
						{
							"internalType": "uint256",
							"name": "_grade",
							"type": "uint256"
						}
					],
					"name": "addStudent",
					"outputs": [],
					"stateMutability": "nonpayable",
					"type": "function"
				},
				{
					"inputs": [],
					"name": "count",
					"outputs": [
						{
							"internalType": "uint256",
							"name": "",
							"type": "uint256"
						}
					],
					"stateMutability": "view",
					"type": "function"
				},
				{
					"inputs": [
						{
							"internalType": "uint256",
							"name": "_id",
							"type": "uint256"
						}
					],
					"name": "getStudent",
					"outputs": [
						{
							"internalType": "string",
							"name": "",
							"type": "string"
						},
						{
							"internalType": "uint256",
							"name": "",
							"type": "uint256"
						}
					],
					"stateMutability": "view",
					"type": "function"
				},
				{
					"inputs": [
						{
							"internalType": "uint256",
							"name": "",
							"type": "uint256"
						}
					],
					"name": "students",
					"outputs": [
						{
							"internalType": "string",
							"name": "name",
							"type": "string"
						},
						{
							"internalType": "uint256",
							"name": "grade",
							"type": "uint256"
						}
					],
					"stateMutability": "view",
					"type": "function"
				},
				{
					"inputs": [
						{
							"internalType": "uint256",
							"name": "_id",
							"type": "uint256"
						},
						{
							"internalType": "uint256",
							"name": "_grade",
							"type": "uint256"
						}
					],
					"name": "updateGrade",
					"outputs": [],
					"stateMutability": "nonpayable",
					"type": "function"
				}
			],
			"devdoc": {
				"kind": "dev",
				"methods": {},
				"version": 1
			},
			"evm": {
				"assembly": "    /* \"vjezba2-remix ide/StudentRecords.sol\":61:776  contract StudentRecord {... */\n  mstore(0x40, 0x80)\n  callvalue\n  dup1\n  iszero\n  tag_1\n  jumpi\n  revert(0x00, 0x00)\ntag_1:\n  pop\n  dataSize(sub_0)\n  dup1\n  dataOffset(sub_0)\n  0x00\n  codecopy\n  0x00\n  return\nstop\n\nsub_0: assembly {\n        /* \"vjezba2-remix ide/StudentRecords.sol\":61:776  contract StudentRecord {... */\n      mstore(0x40, 0x80)\n      callvalue\n      dup1\n      iszero\n      tag_1\n      jumpi\n      revert(0x00, 0x00)\n    tag_1:\n      pop\n      jumpi(tag_2, lt(calldatasize, 0x04))\n      shr(0xe0, calldataload(0x00))\n      dup1\n      0x06661abd\n      eq\n      tag_3\n      jumpi\n      dup1\n      0x06ead22e\n      eq\n      tag_4\n      jumpi\n      dup1\n      0x0e5eeef7\n      eq\n      tag_5\n      jumpi\n      dup1\n      0x50bf95ce\n      eq\n      tag_6\n      jumpi\n      dup1\n      0x642f9163\n      eq\n      tag_7\n      jumpi\n    tag_2:\n      revert(0x00, 0x00)\n        /* \"vjezba2-remix ide/StudentRecords.sol\":205:222  uint public count */\n    tag_3:\n      tag_8\n      tag_9\n      jump\t// in\n    tag_8:\n      mload(0x40)\n      tag_10\n      swap2\n      swap1\n      tag_11\n      jump\t// in\n    tag_10:\n      mload(0x40)\n      dup1\n      swap2\n      sub\n      swap1\n      return\n        /* \"vjezba2-remix ide/StudentRecords.sol\":158:199  mapping (uint => Student) public students */\n    tag_4:\n      tag_12\n      0x04\n      dup1\n      calldatasize\n      sub\n      dup2\n      add\n      swap1\n      tag_13\n      swap2\n      swap1\n      tag_14\n      jump\t// in\n    tag_13:\n      tag_15\n      jump\t// in\n    tag_12:\n      mload(0x40)\n      tag_16\n      swap3\n      swap2\n      swap1\n      tag_17\n      jump\t// in\n    tag_16:\n      mload(0x40)\n      dup1\n      swap2\n      sub\n      swap1\n      return\n        /* \"vjezba2-remix ide/StudentRecords.sol\":229:441  function addStudent(string memory _name, uint _grade) public { // _name udnerscore da nema konflikta izmedu imena ako se jos negdje koristi... */\n    tag_5:\n      tag_18\n      0x04\n      dup1\n      calldatasize\n      sub\n      dup2\n      add\n      swap1\n      tag_19\n      swap2\n      swap1\n      tag_20\n      jump\t// in\n    tag_19:\n      tag_21\n      jump\t// in\n    tag_18:\n      stop\n        /* \"vjezba2-remix ide/StudentRecords.sol\":612:773  function updateGrade(uint _id, uint _grade) public {... */\n    tag_6:\n      tag_22\n      0x04\n      dup1\n      calldatasize\n      sub\n      dup2\n      add\n      swap1\n      tag_23\n      swap2\n      swap1\n      tag_24\n      jump\t// in\n    tag_23:\n      tag_25\n      jump\t// in\n    tag_22:\n      stop\n        /* \"vjezba2-remix ide/StudentRecords.sol\":446:593  function getStudent(uint _id) public view returns (string memory, uint) {... */\n    tag_7:\n      tag_26\n      0x04\n      dup1\n      calldatasize\n      sub\n      dup2\n      add\n      swap1\n      tag_27\n      swap2\n      swap1\n      tag_14\n      jump\t// in\n    tag_27:\n      tag_28\n      jump\t// in\n    tag_26:\n      mload(0x40)\n      tag_29\n      swap3\n      swap2\n      swap1\n      tag_17\n      jump\t// in\n    tag_29:\n      mload(0x40)\n      dup1\n      swap2\n      sub\n      swap1\n      return\n        /* \"vjezba2-remix ide/StudentRecords.sol\":205:222  uint public count */\n    tag_9:\n      sload(0x01)\n      dup2\n      jump\t// out\n        /* \"vjezba2-remix ide/StudentRecords.sol\":158:199  mapping (uint => Student) public students */\n    tag_15:\n      mstore(0x20, 0x00)\n      dup1\n      0x00\n      mstore\n      keccak256(0x00, 0x40)\n      0x00\n      swap2\n      pop\n      swap1\n      pop\n      dup1\n      0x00\n      add\n      dup1\n      sload\n      tag_30\n      swap1\n      tag_31\n      jump\t// in\n    tag_30:\n      dup1\n      0x1f\n      add\n      0x20\n      dup1\n      swap2\n      div\n      mul\n      0x20\n      add\n      mload(0x40)\n      swap1\n      dup2\n      add\n      0x40\n      mstore\n      dup1\n      swap3\n      swap2\n      swap1\n      dup2\n      dup2\n      mstore\n      0x20\n      add\n      dup3\n      dup1\n      sload\n      tag_32\n      swap1\n      tag_31\n      jump\t// in\n    tag_32:\n      dup1\n      iszero\n      tag_33\n      jumpi\n      dup1\n      0x1f\n      lt\n      tag_34\n      jumpi\n      0x0100\n      dup1\n      dup4\n      sload\n      div\n      mul\n      dup4\n      mstore\n      swap2\n      0x20\n      add\n      swap2\n      jump(tag_33)\n    tag_34:\n      dup3\n      add\n      swap2\n      swap1\n      0x00\n      mstore\n      keccak256(0x00, 0x20)\n      swap1\n    tag_35:\n      dup2\n      sload\n      dup2\n      mstore\n      swap1\n      0x01\n      add\n      swap1\n      0x20\n      add\n      dup1\n      dup4\n      gt\n      tag_35\n      jumpi\n      dup3\n      swap1\n      sub\n      0x1f\n      and\n      dup3\n      add\n      swap2\n    tag_33:\n      pop\n      pop\n      pop\n      pop\n      pop\n      swap1\n      dup1\n      0x01\n      add\n      sload\n      swap1\n      pop\n      dup3\n      jump\t// out\n        /* \"vjezba2-remix ide/StudentRecords.sol\":229:441  function addStudent(string memory _name, uint _grade) public { // _name udnerscore da nema konflikta izmedu imena ako se jos negdje koristi... */\n    tag_21:\n        /* \"vjezba2-remix ide/StudentRecords.sol\":377:382  count */\n      0x01\n      0x00\n        /* \"vjezba2-remix ide/StudentRecords.sol\":377:384  count++ */\n      dup2\n      sload\n      dup1\n      swap3\n      swap2\n      swap1\n      tag_37\n      swap1\n      tag_38\n      jump\t// in\n    tag_37:\n      swap2\n      swap1\n      pop\n      sstore\n      pop\n        /* \"vjezba2-remix ide/StudentRecords.sol\":412:434  Student(_name, _grade) */\n      mload(0x40)\n      dup1\n      0x40\n      add\n      0x40\n      mstore\n      dup1\n        /* \"vjezba2-remix ide/StudentRecords.sol\":420:425  _name */\n      dup4\n        /* \"vjezba2-remix ide/StudentRecords.sol\":412:434  Student(_name, _grade) */\n      dup2\n      mstore\n      0x20\n      add\n        /* \"vjezba2-remix ide/StudentRecords.sol\":427:433  _grade */\n      dup3\n        /* \"vjezba2-remix ide/StudentRecords.sol\":412:434  Student(_name, _grade) */\n      dup2\n      mstore\n      pop\n        /* \"vjezba2-remix ide/StudentRecords.sol\":394:402  students */\n      0x00\n        /* \"vjezba2-remix ide/StudentRecords.sol\":394:409  students[count] */\n      0x00\n        /* \"vjezba2-remix ide/StudentRecords.sol\":403:408  count */\n      sload(0x01)\n        /* \"vjezba2-remix ide/StudentRecords.sol\":394:409  students[count] */\n      dup2\n      mstore\n      0x20\n      add\n      swap1\n      dup2\n      mstore\n      0x20\n      add\n      0x00\n      keccak256\n        /* \"vjezba2-remix ide/StudentRecords.sol\":394:434  students[count] = Student(_name, _grade) */\n      0x00\n      dup3\n      add\n      mload\n      dup2\n      0x00\n      add\n      swap1\n      dup2\n      tag_39\n      swap2\n      swap1\n      tag_40\n      jump\t// in\n    tag_39:\n      pop\n      0x20\n      dup3\n      add\n      mload\n      dup2\n      0x01\n      add\n      sstore\n      swap1\n      pop\n      pop\n        /* \"vjezba2-remix ide/StudentRecords.sol\":229:441  function addStudent(string memory _name, uint _grade) public { // _name udnerscore da nema konflikta izmedu imena ako se jos negdje koristi... */\n      pop\n      pop\n      jump\t// out\n        /* \"vjezba2-remix ide/StudentRecords.sol\":612:773  function updateGrade(uint _id, uint _grade) public {... */\n    tag_25:\n        /* \"vjezba2-remix ide/StudentRecords.sol\":687:688  0 */\n      0x00\n        /* \"vjezba2-remix ide/StudentRecords.sol\":681:684  _id */\n      dup3\n        /* \"vjezba2-remix ide/StudentRecords.sol\":681:688  _id > 0 */\n      gt\n        /* \"vjezba2-remix ide/StudentRecords.sol\":681:704  _id > 0 && _id <= count */\n      dup1\n      iszero\n      tag_42\n      jumpi\n      pop\n        /* \"vjezba2-remix ide/StudentRecords.sol\":699:704  count */\n      sload(0x01)\n        /* \"vjezba2-remix ide/StudentRecords.sol\":692:695  _id */\n      dup3\n        /* \"vjezba2-remix ide/StudentRecords.sol\":692:704  _id <= count */\n      gt\n      iszero\n        /* \"vjezba2-remix ide/StudentRecords.sol\":681:704  _id > 0 && _id <= count */\n    tag_42:\n        /* \"vjezba2-remix ide/StudentRecords.sol\":673:727  require(_id > 0 && _id <= count, \"student ne postoji\") */\n      tag_43\n      jumpi\n      mload(0x40)\n      0x08c379a000000000000000000000000000000000000000000000000000000000\n      dup2\n      mstore\n      0x04\n      add\n      tag_44\n      swap1\n      tag_45\n      jump\t// in\n    tag_44:\n      mload(0x40)\n      dup1\n      swap2\n      sub\n      swap1\n      revert\n    tag_43:\n        /* \"vjezba2-remix ide/StudentRecords.sol\":759:765  _grade */\n      dup1\n        /* \"vjezba2-remix ide/StudentRecords.sol\":737:745  students */\n      0x00\n        /* \"vjezba2-remix ide/StudentRecords.sol\":737:750  students[_id] */\n      0x00\n        /* \"vjezba2-remix ide/StudentRecords.sol\":746:749  _id */\n      dup5\n        /* \"vjezba2-remix ide/StudentRecords.sol\":737:750  students[_id] */\n      dup2\n      mstore\n      0x20\n      add\n      swap1\n      dup2\n      mstore\n      0x20\n      add\n      0x00\n      keccak256\n        /* \"vjezba2-remix ide/StudentRecords.sol\":737:756  students[_id].grade */\n      0x01\n      add\n        /* \"vjezba2-remix ide/StudentRecords.sol\":737:765  students[_id].grade = _grade */\n      dup2\n      swap1\n      sstore\n      pop\n        /* \"vjezba2-remix ide/StudentRecords.sol\":612:773  function updateGrade(uint _id, uint _grade) public {... */\n      pop\n      pop\n      jump\t// out\n        /* \"vjezba2-remix ide/StudentRecords.sol\":446:593  function getStudent(uint _id) public view returns (string memory, uint) {... */\n    tag_28:\n        /* \"vjezba2-remix ide/StudentRecords.sol\":497:510  string memory */\n      0x60\n        /* \"vjezba2-remix ide/StudentRecords.sol\":512:516  uint */\n      0x00\n        /* \"vjezba2-remix ide/StudentRecords.sol\":524:540  Student memory s */\n      0x00\n        /* \"vjezba2-remix ide/StudentRecords.sol\":543:551  students */\n      0x00\n        /* \"vjezba2-remix ide/StudentRecords.sol\":543:556  students[_id] */\n      0x00\n        /* \"vjezba2-remix ide/StudentRecords.sol\":552:555  _id */\n      dup6\n        /* \"vjezba2-remix ide/StudentRecords.sol\":543:556  students[_id] */\n      dup2\n      mstore\n      0x20\n      add\n      swap1\n      dup2\n      mstore\n      0x20\n      add\n      0x00\n      keccak256\n        /* \"vjezba2-remix ide/StudentRecords.sol\":524:556  Student memory s = students[_id] */\n      mload(0x40)\n      dup1\n      0x40\n      add\n      0x40\n      mstore\n      swap1\n      dup2\n      0x00\n      dup3\n      add\n      dup1\n      sload\n      tag_47\n      swap1\n      tag_31\n      jump\t// in\n    tag_47:\n      dup1\n      0x1f\n      add\n      0x20\n      dup1\n      swap2\n      div\n      mul\n      0x20\n      add\n      mload(0x40)\n      swap1\n      dup2\n      add\n      0x40\n      mstore\n      dup1\n      swap3\n      swap2\n      swap1\n      dup2\n      dup2\n      mstore\n      0x20\n      add\n      dup3\n      dup1\n      sload\n      tag_48\n      swap1\n      tag_31\n      jump\t// in\n    tag_48:\n      dup1\n      iszero\n      tag_49\n      jumpi\n      dup1\n      0x1f\n      lt\n      tag_50\n      jumpi\n      0x0100\n      dup1\n      dup4\n      sload\n      div\n      mul\n      dup4\n      mstore\n      swap2\n      0x20\n      add\n      swap2\n      jump(tag_49)\n    tag_50:\n      dup3\n      add\n      swap2\n      swap1\n      0x00\n      mstore\n      keccak256(0x00, 0x20)\n      swap1\n    tag_51:\n      dup2\n      sload\n      dup2\n      mstore\n      swap1\n      0x01\n      add\n      swap1\n      0x20\n      add\n      dup1\n      dup4\n      gt\n      tag_51\n      jumpi\n      dup3\n      swap1\n      sub\n      0x1f\n      and\n      dup3\n      add\n      swap2\n    tag_49:\n      pop\n      pop\n      pop\n      pop\n      pop\n      dup2\n      mstore\n      0x20\n      add\n      0x01\n      dup3\n      add\n      sload\n      dup2\n      mstore\n      pop\n      pop\n      swap1\n      pop\n        /* \"vjezba2-remix ide/StudentRecords.sol\":570:571  s */\n      dup1\n        /* \"vjezba2-remix ide/StudentRecords.sol\":570:576  s.name */\n      0x00\n      add\n      mload\n        /* \"vjezba2-remix ide/StudentRecords.sol\":578:579  s */\n      dup2\n        /* \"vjezba2-remix ide/StudentRecords.sol\":578:585  s.grade */\n      0x20\n      add\n      mload\n        /* \"vjezba2-remix ide/StudentRecords.sol\":562:586  return (s.name, s.grade) */\n      swap3\n      pop\n      swap3\n      pop\n      pop\n        /* \"vjezba2-remix ide/StudentRecords.sol\":446:593  function getStudent(uint _id) public view returns (string memory, uint) {... */\n      swap2\n      pop\n      swap2\n      jump\t// out\n        /* \"#utility.yul\":7:84   */\n    tag_52:\n        /* \"#utility.yul\":44:51   */\n      0x00\n        /* \"#utility.yul\":73:78   */\n      dup2\n        /* \"#utility.yul\":62:78   */\n      swap1\n      pop\n        /* \"#utility.yul\":7:84   */\n      swap2\n      swap1\n      pop\n      jump\t// out\n        /* \"#utility.yul\":90:208   */\n    tag_53:\n        /* \"#utility.yul\":177:201   */\n      tag_95\n        /* \"#utility.yul\":195:200   */\n      dup2\n        /* \"#utility.yul\":177:201   */\n      tag_52\n      jump\t// in\n    tag_95:\n        /* \"#utility.yul\":172:175   */\n      dup3\n        /* \"#utility.yul\":165:202   */\n      mstore\n        /* \"#utility.yul\":90:208   */\n      pop\n      pop\n      jump\t// out\n        /* \"#utility.yul\":214:436   */\n    tag_11:\n        /* \"#utility.yul\":307:311   */\n      0x00\n        /* \"#utility.yul\":345:347   */\n      0x20\n        /* \"#utility.yul\":334:343   */\n      dup3\n        /* \"#utility.yul\":330:348   */\n      add\n        /* \"#utility.yul\":322:348   */\n      swap1\n      pop\n        /* \"#utility.yul\":358:429   */\n      tag_97\n        /* \"#utility.yul\":426:427   */\n      0x00\n        /* \"#utility.yul\":415:424   */\n      dup4\n        /* \"#utility.yul\":411:428   */\n      add\n        /* \"#utility.yul\":402:408   */\n      dup5\n        /* \"#utility.yul\":358:429   */\n      tag_53\n      jump\t// in\n    tag_97:\n        /* \"#utility.yul\":214:436   */\n      swap3\n      swap2\n      pop\n      pop\n      jump\t// out\n        /* \"#utility.yul\":442:517   */\n    tag_54:\n        /* \"#utility.yul\":475:481   */\n      0x00\n        /* \"#utility.yul\":508:510   */\n      0x40\n        /* \"#utility.yul\":502:511   */\n      mload\n        /* \"#utility.yul\":492:511   */\n      swap1\n      pop\n        /* \"#utility.yul\":442:517   */\n      swap1\n      jump\t// out\n        /* \"#utility.yul\":523:640   */\n    tag_55:\n        /* \"#utility.yul\":632:633   */\n      0x00\n        /* \"#utility.yul\":629:630   */\n      0x00\n        /* \"#utility.yul\":622:634   */\n      revert\n        /* \"#utility.yul\":646:763   */\n    tag_56:\n        /* \"#utility.yul\":755:756   */\n      0x00\n        /* \"#utility.yul\":752:753   */\n      0x00\n        /* \"#utility.yul\":745:757   */\n      revert\n        /* \"#utility.yul\":769:891   */\n    tag_57:\n        /* \"#utility.yul\":842:866   */\n      tag_102\n        /* \"#utility.yul\":860:865   */\n      dup2\n        /* \"#utility.yul\":842:866   */\n      tag_52\n      jump\t// in\n    tag_102:\n        /* \"#utility.yul\":835:840   */\n      dup2\n        /* \"#utility.yul\":832:867   */\n      eq\n        /* \"#utility.yul\":822:885   */\n      tag_103\n      jumpi\n        /* \"#utility.yul\":881:882   */\n      0x00\n        /* \"#utility.yul\":878:879   */\n      0x00\n        /* \"#utility.yul\":871:883   */\n      revert\n        /* \"#utility.yul\":822:885   */\n    tag_103:\n        /* \"#utility.yul\":769:891   */\n      pop\n      jump\t// out\n        /* \"#utility.yul\":897:1036   */\n    tag_58:\n        /* \"#utility.yul\":943:948   */\n      0x00\n        /* \"#utility.yul\":981:987   */\n      dup2\n        /* \"#utility.yul\":968:988   */\n      calldataload\n        /* \"#utility.yul\":959:988   */\n      swap1\n      pop\n        /* \"#utility.yul\":997:1030   */\n      tag_105\n        /* \"#utility.yul\":1024:1029   */\n      dup2\n        /* \"#utility.yul\":997:1030   */\n      tag_57\n      jump\t// in\n    tag_105:\n        /* \"#utility.yul\":897:1036   */\n      swap3\n      swap2\n      pop\n      pop\n      jump\t// out\n        /* \"#utility.yul\":1042:1371   */\n    tag_14:\n        /* \"#utility.yul\":1101:1107   */\n      0x00\n        /* \"#utility.yul\":1150:1152   */\n      0x20\n        /* \"#utility.yul\":1138:1147   */\n      dup3\n        /* \"#utility.yul\":1129:1136   */\n      dup5\n        /* \"#utility.yul\":1125:1148   */\n      sub\n        /* \"#utility.yul\":1121:1153   */\n      slt\n        /* \"#utility.yul\":1118:1237   */\n      iszero\n      tag_107\n      jumpi\n        /* \"#utility.yul\":1156:1235   */\n      tag_108\n      tag_55\n      jump\t// in\n    tag_108:\n        /* \"#utility.yul\":1118:1237   */\n    tag_107:\n        /* \"#utility.yul\":1276:1277   */\n      0x00\n        /* \"#utility.yul\":1301:1354   */\n      tag_109\n        /* \"#utility.yul\":1346:1353   */\n      dup5\n        /* \"#utility.yul\":1337:1343   */\n      dup3\n        /* \"#utility.yul\":1326:1335   */\n      dup6\n        /* \"#utility.yul\":1322:1344   */\n      add\n        /* \"#utility.yul\":1301:1354   */\n      tag_58\n      jump\t// in\n    tag_109:\n        /* \"#utility.yul\":1291:1354   */\n      swap2\n      pop\n        /* \"#utility.yul\":1247:1364   */\n      pop\n        /* \"#utility.yul\":1042:1371   */\n      swap3\n      swap2\n      pop\n      pop\n      jump\t// out\n        /* \"#utility.yul\":1377:1476   */\n    tag_59:\n        /* \"#utility.yul\":1429:1435   */\n      0x00\n        /* \"#utility.yul\":1463:1468   */\n      dup2\n        /* \"#utility.yul\":1457:1469   */\n      mload\n        /* \"#utility.yul\":1447:1469   */\n      swap1\n      pop\n        /* \"#utility.yul\":1377:1476   */\n      swap2\n      swap1\n      pop\n      jump\t// out\n        /* \"#utility.yul\":1482:1651   */\n    tag_60:\n        /* \"#utility.yul\":1566:1577   */\n      0x00\n        /* \"#utility.yul\":1600:1606   */\n      dup3\n        /* \"#utility.yul\":1595:1598   */\n      dup3\n        /* \"#utility.yul\":1588:1607   */\n      mstore\n        /* \"#utility.yul\":1640:1644   */\n      0x20\n        /* \"#utility.yul\":1635:1638   */\n      dup3\n        /* \"#utility.yul\":1631:1645   */\n      add\n        /* \"#utility.yul\":1616:1645   */\n      swap1\n      pop\n        /* \"#utility.yul\":1482:1651   */\n      swap3\n      swap2\n      pop\n      pop\n      jump\t// out\n        /* \"#utility.yul\":1657:1796   */\n    tag_61:\n        /* \"#utility.yul\":1746:1752   */\n      dup3\n        /* \"#utility.yul\":1741:1744   */\n      dup2\n        /* \"#utility.yul\":1736:1739   */\n      dup4\n        /* \"#utility.yul\":1730:1753   */\n      mcopy\n        /* \"#utility.yul\":1787:1788   */\n      0x00\n        /* \"#utility.yul\":1778:1784   */\n      dup4\n        /* \"#utility.yul\":1773:1776   */\n      dup4\n        /* \"#utility.yul\":1769:1785   */\n      add\n        /* \"#utility.yul\":1762:1789   */\n      mstore\n        /* \"#utility.yul\":1657:1796   */\n      pop\n      pop\n      pop\n      jump\t// out\n        /* \"#utility.yul\":1802:1904   */\n    tag_62:\n        /* \"#utility.yul\":1843:1849   */\n      0x00\n        /* \"#utility.yul\":1894:1896   */\n      0x1f\n        /* \"#utility.yul\":1890:1897   */\n      not\n        /* \"#utility.yul\":1885:1887   */\n      0x1f\n        /* \"#utility.yul\":1878:1883   */\n      dup4\n        /* \"#utility.yul\":1874:1888   */\n      add\n        /* \"#utility.yul\":1870:1898   */\n      and\n        /* \"#utility.yul\":1860:1898   */\n      swap1\n      pop\n        /* \"#utility.yul\":1802:1904   */\n      swap2\n      swap1\n      pop\n      jump\t// out\n        /* \"#utility.yul\":1910:2287   */\n    tag_63:\n        /* \"#utility.yul\":1998:2001   */\n      0x00\n        /* \"#utility.yul\":2026:2065   */\n      tag_115\n        /* \"#utility.yul\":2059:2064   */\n      dup3\n        /* \"#utility.yul\":2026:2065   */\n      tag_59\n      jump\t// in\n    tag_115:\n        /* \"#utility.yul\":2081:2152   */\n      tag_116\n        /* \"#utility.yul\":2145:2151   */\n      dup2\n        /* \"#utility.yul\":2140:2143   */\n      dup6\n        /* \"#utility.yul\":2081:2152   */\n      tag_60\n      jump\t// in\n    tag_116:\n        /* \"#utility.yul\":2074:2152   */\n      swap4\n      pop\n        /* \"#utility.yul\":2161:2226   */\n      tag_117\n        /* \"#utility.yul\":2219:2225   */\n      dup2\n        /* \"#utility.yul\":2214:2217   */\n      dup6\n        /* \"#utility.yul\":2207:2211   */\n      0x20\n        /* \"#utility.yul\":2200:2205   */\n      dup7\n        /* \"#utility.yul\":2196:2212   */\n      add\n        /* \"#utility.yul\":2161:2226   */\n      tag_61\n      jump\t// in\n    tag_117:\n        /* \"#utility.yul\":2251:2280   */\n      tag_118\n        /* \"#utility.yul\":2273:2279   */\n      dup2\n        /* \"#utility.yul\":2251:2280   */\n      tag_62\n      jump\t// in\n    tag_118:\n        /* \"#utility.yul\":2246:2249   */\n      dup5\n        /* \"#utility.yul\":2242:2281   */\n      add\n        /* \"#utility.yul\":2235:2281   */\n      swap2\n      pop\n        /* \"#utility.yul\":2002:2287   */\n      pop\n        /* \"#utility.yul\":1910:2287   */\n      swap3\n      swap2\n      pop\n      pop\n      jump\t// out\n        /* \"#utility.yul\":2293:2716   */\n    tag_17:\n        /* \"#utility.yul\":2434:2438   */\n      0x00\n        /* \"#utility.yul\":2472:2474   */\n      0x40\n        /* \"#utility.yul\":2461:2470   */\n      dup3\n        /* \"#utility.yul\":2457:2475   */\n      add\n        /* \"#utility.yul\":2449:2475   */\n      swap1\n      pop\n        /* \"#utility.yul\":2521:2530   */\n      dup2\n        /* \"#utility.yul\":2515:2519   */\n      dup2\n        /* \"#utility.yul\":2511:2531   */\n      sub\n        /* \"#utility.yul\":2507:2508   */\n      0x00\n        /* \"#utility.yul\":2496:2505   */\n      dup4\n        /* \"#utility.yul\":2492:2509   */\n      add\n        /* \"#utility.yul\":2485:2532   */\n      mstore\n        /* \"#utility.yul\":2549:2627   */\n      tag_120\n        /* \"#utility.yul\":2622:2626   */\n      dup2\n        /* \"#utility.yul\":2613:2619   */\n      dup6\n        /* \"#utility.yul\":2549:2627   */\n      tag_63\n      jump\t// in\n    tag_120:\n        /* \"#utility.yul\":2541:2627   */\n      swap1\n      pop\n        /* \"#utility.yul\":2637:2709   */\n      tag_121\n        /* \"#utility.yul\":2705:2707   */\n      0x20\n        /* \"#utility.yul\":2694:2703   */\n      dup4\n        /* \"#utility.yul\":2690:2708   */\n      add\n        /* \"#utility.yul\":2681:2687   */\n      dup5\n        /* \"#utility.yul\":2637:2709   */\n      tag_53\n      jump\t// in\n    tag_121:\n        /* \"#utility.yul\":2293:2716   */\n      swap4\n      swap3\n      pop\n      pop\n      pop\n      jump\t// out\n        /* \"#utility.yul\":2722:2839   */\n    tag_64:\n        /* \"#utility.yul\":2831:2832   */\n      0x00\n        /* \"#utility.yul\":2828:2829   */\n      0x00\n        /* \"#utility.yul\":2821:2833   */\n      revert\n        /* \"#utility.yul\":2845:2962   */\n    tag_65:\n        /* \"#utility.yul\":2954:2955   */\n      0x00\n        /* \"#utility.yul\":2951:2952   */\n      0x00\n        /* \"#utility.yul\":2944:2956   */\n      revert\n        /* \"#utility.yul\":2968:3148   */\n    tag_66:\n        /* \"#utility.yul\":3016:3093   */\n      0x4e487b7100000000000000000000000000000000000000000000000000000000\n        /* \"#utility.yul\":3013:3014   */\n      0x00\n        /* \"#utility.yul\":3006:3094   */\n      mstore\n        /* \"#utility.yul\":3113:3117   */\n      0x41\n        /* \"#utility.yul\":3110:3111   */\n      0x04\n        /* \"#utility.yul\":3103:3118   */\n      mstore\n        /* \"#utility.yul\":3137:3141   */\n      0x24\n        /* \"#utility.yul\":3134:3135   */\n      0x00\n        /* \"#utility.yul\":3127:3142   */\n      revert\n        /* \"#utility.yul\":3154:3435   */\n    tag_67:\n        /* \"#utility.yul\":3237:3264   */\n      tag_126\n        /* \"#utility.yul\":3259:3263   */\n      dup3\n        /* \"#utility.yul\":3237:3264   */\n      tag_62\n      jump\t// in\n    tag_126:\n        /* \"#utility.yul\":3229:3235   */\n      dup2\n        /* \"#utility.yul\":3225:3265   */\n      add\n        /* \"#utility.yul\":3367:3373   */\n      dup2\n        /* \"#utility.yul\":3355:3365   */\n      dup2\n        /* \"#utility.yul\":3352:3374   */\n      lt\n        /* \"#utility.yul\":3331:3349   */\n      0xffffffffffffffff\n        /* \"#utility.yul\":3319:3329   */\n      dup3\n        /* \"#utility.yul\":3316:3350   */\n      gt\n        /* \"#utility.yul\":3313:3375   */\n      or\n        /* \"#utility.yul\":3310:3398   */\n      iszero\n      tag_127\n      jumpi\n        /* \"#utility.yul\":3378:3396   */\n      tag_128\n      tag_66\n      jump\t// in\n    tag_128:\n        /* \"#utility.yul\":3310:3398   */\n    tag_127:\n        /* \"#utility.yul\":3418:3428   */\n      dup1\n        /* \"#utility.yul\":3414:3416   */\n      0x40\n        /* \"#utility.yul\":3407:3429   */\n      mstore\n        /* \"#utility.yul\":3197:3435   */\n      pop\n        /* \"#utility.yul\":3154:3435   */\n      pop\n      pop\n      jump\t// out\n        /* \"#utility.yul\":3441:3570   */\n    tag_68:\n        /* \"#utility.yul\":3475:3481   */\n      0x00\n        /* \"#utility.yul\":3502:3522   */\n      tag_130\n      tag_54\n      jump\t// in\n    tag_130:\n        /* \"#utility.yul\":3492:3522   */\n      swap1\n      pop\n        /* \"#utility.yul\":3531:3564   */\n      tag_131\n        /* \"#utility.yul\":3559:3563   */\n      dup3\n        /* \"#utility.yul\":3551:3557   */\n      dup3\n        /* \"#utility.yul\":3531:3564   */\n      tag_67\n      jump\t// in\n    tag_131:\n        /* \"#utility.yul\":3441:3570   */\n      swap2\n      swap1\n      pop\n      jump\t// out\n        /* \"#utility.yul\":3576:3884   */\n    tag_69:\n        /* \"#utility.yul\":3638:3642   */\n      0x00\n        /* \"#utility.yul\":3728:3746   */\n      0xffffffffffffffff\n        /* \"#utility.yul\":3720:3726   */\n      dup3\n        /* \"#utility.yul\":3717:3747   */\n      gt\n        /* \"#utility.yul\":3714:3770   */\n      iszero\n      tag_133\n      jumpi\n        /* \"#utility.yul\":3750:3768   */\n      tag_134\n      tag_66\n      jump\t// in\n    tag_134:\n        /* \"#utility.yul\":3714:3770   */\n    tag_133:\n        /* \"#utility.yul\":3788:3817   */\n      tag_135\n        /* \"#utility.yul\":3810:3816   */\n      dup3\n        /* \"#utility.yul\":3788:3817   */\n      tag_62\n      jump\t// in\n    tag_135:\n        /* \"#utility.yul\":3780:3817   */\n      swap1\n      pop\n        /* \"#utility.yul\":3872:3876   */\n      0x20\n        /* \"#utility.yul\":3866:3870   */\n      dup2\n        /* \"#utility.yul\":3862:3877   */\n      add\n        /* \"#utility.yul\":3854:3877   */\n      swap1\n      pop\n        /* \"#utility.yul\":3576:3884   */\n      swap2\n      swap1\n      pop\n      jump\t// out\n        /* \"#utility.yul\":3890:4038   */\n    tag_70:\n        /* \"#utility.yul\":3988:3994   */\n      dup3\n        /* \"#utility.yul\":3983:3986   */\n      dup2\n        /* \"#utility.yul\":3978:3981   */\n      dup4\n        /* \"#utility.yul\":3965:3995   */\n      calldatacopy\n        /* \"#utility.yul\":4029:4030   */\n      0x00\n        /* \"#utility.yul\":4020:4026   */\n      dup4\n        /* \"#utility.yul\":4015:4018   */\n      dup4\n        /* \"#utility.yul\":4011:4027   */\n      add\n        /* \"#utility.yul\":4004:4031   */\n      mstore\n        /* \"#utility.yul\":3890:4038   */\n      pop\n      pop\n      pop\n      jump\t// out\n        /* \"#utility.yul\":4044:4469   */\n    tag_71:\n        /* \"#utility.yul\":4122:4127   */\n      0x00\n        /* \"#utility.yul\":4147:4213   */\n      tag_138\n        /* \"#utility.yul\":4163:4212   */\n      tag_139\n        /* \"#utility.yul\":4205:4211   */\n      dup5\n        /* \"#utility.yul\":4163:4212   */\n      tag_69\n      jump\t// in\n    tag_139:\n        /* \"#utility.yul\":4147:4213   */\n      tag_68\n      jump\t// in\n    tag_138:\n        /* \"#utility.yul\":4138:4213   */\n      swap1\n      pop\n        /* \"#utility.yul\":4236:4242   */\n      dup3\n        /* \"#utility.yul\":4229:4234   */\n      dup2\n        /* \"#utility.yul\":4222:4243   */\n      mstore\n        /* \"#utility.yul\":4274:4278   */\n      0x20\n        /* \"#utility.yul\":4267:4272   */\n      dup2\n        /* \"#utility.yul\":4263:4279   */\n      add\n        /* \"#utility.yul\":4312:4315   */\n      dup5\n        /* \"#utility.yul\":4303:4309   */\n      dup5\n        /* \"#utility.yul\":4298:4301   */\n      dup5\n        /* \"#utility.yul\":4294:4310   */\n      add\n        /* \"#utility.yul\":4291:4316   */\n      gt\n        /* \"#utility.yul\":4288:4400   */\n      iszero\n      tag_140\n      jumpi\n        /* \"#utility.yul\":4319:4398   */\n      tag_141\n      tag_65\n      jump\t// in\n    tag_141:\n        /* \"#utility.yul\":4288:4400   */\n    tag_140:\n        /* \"#utility.yul\":4409:4463   */\n      tag_142\n        /* \"#utility.yul\":4456:4462   */\n      dup5\n        /* \"#utility.yul\":4451:4454   */\n      dup3\n        /* \"#utility.yul\":4446:4449   */\n      dup6\n        /* \"#utility.yul\":4409:4463   */\n      tag_70\n      jump\t// in\n    tag_142:\n        /* \"#utility.yul\":4128:4469   */\n      pop\n        /* \"#utility.yul\":4044:4469   */\n      swap4\n      swap3\n      pop\n      pop\n      pop\n      jump\t// out\n        /* \"#utility.yul\":4489:4829   */\n    tag_72:\n        /* \"#utility.yul\":4545:4550   */\n      0x00\n        /* \"#utility.yul\":4594:4597   */\n      dup3\n        /* \"#utility.yul\":4587:4591   */\n      0x1f\n        /* \"#utility.yul\":4579:4585   */\n      dup4\n        /* \"#utility.yul\":4575:4592   */\n      add\n        /* \"#utility.yul\":4571:4598   */\n      slt\n        /* \"#utility.yul\":4561:4683   */\n      tag_144\n      jumpi\n        /* \"#utility.yul\":4602:4681   */\n      tag_145\n      tag_64\n      jump\t// in\n    tag_145:\n        /* \"#utility.yul\":4561:4683   */\n    tag_144:\n        /* \"#utility.yul\":4719:4725   */\n      dup2\n        /* \"#utility.yul\":4706:4726   */\n      calldataload\n        /* \"#utility.yul\":4744:4823   */\n      tag_146\n        /* \"#utility.yul\":4819:4822   */\n      dup5\n        /* \"#utility.yul\":4811:4817   */\n      dup3\n        /* \"#utility.yul\":4804:4808   */\n      0x20\n        /* \"#utility.yul\":4796:4802   */\n      dup7\n        /* \"#utility.yul\":4792:4809   */\n      add\n        /* \"#utility.yul\":4744:4823   */\n      tag_71\n      jump\t// in\n    tag_146:\n        /* \"#utility.yul\":4735:4823   */\n      swap2\n      pop\n        /* \"#utility.yul\":4551:4829   */\n      pop\n        /* \"#utility.yul\":4489:4829   */\n      swap3\n      swap2\n      pop\n      pop\n      jump\t// out\n        /* \"#utility.yul\":4835:5489   */\n    tag_20:\n        /* \"#utility.yul\":4913:4919   */\n      0x00\n        /* \"#utility.yul\":4921:4927   */\n      0x00\n        /* \"#utility.yul\":4970:4972   */\n      0x40\n        /* \"#utility.yul\":4958:4967   */\n      dup4\n        /* \"#utility.yul\":4949:4956   */\n      dup6\n        /* \"#utility.yul\":4945:4968   */\n      sub\n        /* \"#utility.yul\":4941:4973   */\n      slt\n        /* \"#utility.yul\":4938:5057   */\n      iszero\n      tag_148\n      jumpi\n        /* \"#utility.yul\":4976:5055   */\n      tag_149\n      tag_55\n      jump\t// in\n    tag_149:\n        /* \"#utility.yul\":4938:5057   */\n    tag_148:\n        /* \"#utility.yul\":5124:5125   */\n      0x00\n        /* \"#utility.yul\":5113:5122   */\n      dup4\n        /* \"#utility.yul\":5109:5126   */\n      add\n        /* \"#utility.yul\":5096:5127   */\n      calldataload\n        /* \"#utility.yul\":5154:5172   */\n      0xffffffffffffffff\n        /* \"#utility.yul\":5146:5152   */\n      dup2\n        /* \"#utility.yul\":5143:5173   */\n      gt\n        /* \"#utility.yul\":5140:5257   */\n      iszero\n      tag_150\n      jumpi\n        /* \"#utility.yul\":5176:5255   */\n      tag_151\n      tag_56\n      jump\t// in\n    tag_151:\n        /* \"#utility.yul\":5140:5257   */\n    tag_150:\n        /* \"#utility.yul\":5281:5344   */\n      tag_152\n        /* \"#utility.yul\":5336:5343   */\n      dup6\n        /* \"#utility.yul\":5327:5333   */\n      dup3\n        /* \"#utility.yul\":5316:5325   */\n      dup7\n        /* \"#utility.yul\":5312:5334   */\n      add\n        /* \"#utility.yul\":5281:5344   */\n      tag_72\n      jump\t// in\n    tag_152:\n        /* \"#utility.yul\":5271:5344   */\n      swap3\n      pop\n        /* \"#utility.yul\":5067:5354   */\n      pop\n        /* \"#utility.yul\":5393:5395   */\n      0x20\n        /* \"#utility.yul\":5419:5472   */\n      tag_153\n        /* \"#utility.yul\":5464:5471   */\n      dup6\n        /* \"#utility.yul\":5455:5461   */\n      dup3\n        /* \"#utility.yul\":5444:5453   */\n      dup7\n        /* \"#utility.yul\":5440:5462   */\n      add\n        /* \"#utility.yul\":5419:5472   */\n      tag_58\n      jump\t// in\n    tag_153:\n        /* \"#utility.yul\":5409:5472   */\n      swap2\n      pop\n        /* \"#utility.yul\":5364:5482   */\n      pop\n        /* \"#utility.yul\":4835:5489   */\n      swap3\n      pop\n      swap3\n      swap1\n      pop\n      jump\t// out\n        /* \"#utility.yul\":5495:5969   */\n    tag_24:\n        /* \"#utility.yul\":5563:5569   */\n      0x00\n        /* \"#utility.yul\":5571:5577   */\n      0x00\n        /* \"#utility.yul\":5620:5622   */\n      0x40\n        /* \"#utility.yul\":5608:5617   */\n      dup4\n        /* \"#utility.yul\":5599:5606   */\n      dup6\n        /* \"#utility.yul\":5595:5618   */\n      sub\n        /* \"#utility.yul\":5591:5623   */\n      slt\n        /* \"#utility.yul\":5588:5707   */\n      iszero\n      tag_155\n      jumpi\n        /* \"#utility.yul\":5626:5705   */\n      tag_156\n      tag_55\n      jump\t// in\n    tag_156:\n        /* \"#utility.yul\":5588:5707   */\n    tag_155:\n        /* \"#utility.yul\":5746:5747   */\n      0x00\n        /* \"#utility.yul\":5771:5824   */\n      tag_157\n        /* \"#utility.yul\":5816:5823   */\n      dup6\n        /* \"#utility.yul\":5807:5813   */\n      dup3\n        /* \"#utility.yul\":5796:5805   */\n      dup7\n        /* \"#utility.yul\":5792:5814   */\n      add\n        /* \"#utility.yul\":5771:5824   */\n      tag_58\n      jump\t// in\n    tag_157:\n        /* \"#utility.yul\":5761:5824   */\n      swap3\n      pop\n        /* \"#utility.yul\":5717:5834   */\n      pop\n        /* \"#utility.yul\":5873:5875   */\n      0x20\n        /* \"#utility.yul\":5899:5952   */\n      tag_158\n        /* \"#utility.yul\":5944:5951   */\n      dup6\n        /* \"#utility.yul\":5935:5941   */\n      dup3\n        /* \"#utility.yul\":5924:5933   */\n      dup7\n        /* \"#utility.yul\":5920:5942   */\n      add\n        /* \"#utility.yul\":5899:5952   */\n      tag_58\n      jump\t// in\n    tag_158:\n        /* \"#utility.yul\":5889:5952   */\n      swap2\n      pop\n        /* \"#utility.yul\":5844:5962   */\n      pop\n        /* \"#utility.yul\":5495:5969   */\n      swap3\n      pop\n      swap3\n      swap1\n      pop\n      jump\t// out\n        /* \"#utility.yul\":5975:6155   */\n    tag_73:\n        /* \"#utility.yul\":6023:6100   */\n      0x4e487b7100000000000000000000000000000000000000000000000000000000\n        /* \"#utility.yul\":6020:6021   */\n      0x00\n        /* \"#utility.yul\":6013:6101   */\n      mstore\n        /* \"#utility.yul\":6120:6124   */\n      0x22\n        /* \"#utility.yul\":6117:6118   */\n      0x04\n        /* \"#utility.yul\":6110:6125   */\n      mstore\n        /* \"#utility.yul\":6144:6148   */\n      0x24\n        /* \"#utility.yul\":6141:6142   */\n      0x00\n        /* \"#utility.yul\":6134:6149   */\n      revert\n        /* \"#utility.yul\":6161:6481   */\n    tag_31:\n        /* \"#utility.yul\":6205:6211   */\n      0x00\n        /* \"#utility.yul\":6242:6243   */\n      0x02\n        /* \"#utility.yul\":6236:6240   */\n      dup3\n        /* \"#utility.yul\":6232:6244   */\n      div\n        /* \"#utility.yul\":6222:6244   */\n      swap1\n      pop\n        /* \"#utility.yul\":6289:6290   */\n      0x01\n        /* \"#utility.yul\":6283:6287   */\n      dup3\n        /* \"#utility.yul\":6279:6291   */\n      and\n        /* \"#utility.yul\":6310:6328   */\n      dup1\n        /* \"#utility.yul\":6300:6381   */\n      tag_161\n      jumpi\n        /* \"#utility.yul\":6366:6370   */\n      0x7f\n        /* \"#utility.yul\":6358:6364   */\n      dup3\n        /* \"#utility.yul\":6354:6371   */\n      and\n        /* \"#utility.yul\":6344:6371   */\n      swap2\n      pop\n        /* \"#utility.yul\":6300:6381   */\n    tag_161:\n        /* \"#utility.yul\":6428:6430   */\n      0x20\n        /* \"#utility.yul\":6420:6426   */\n      dup3\n        /* \"#utility.yul\":6417:6431   */\n      lt\n        /* \"#utility.yul\":6397:6415   */\n      dup2\n        /* \"#utility.yul\":6394:6432   */\n      sub\n        /* \"#utility.yul\":6391:6475   */\n      tag_162\n      jumpi\n        /* \"#utility.yul\":6447:6465   */\n      tag_163\n      tag_73\n      jump\t// in\n    tag_163:\n        /* \"#utility.yul\":6391:6475   */\n    tag_162:\n        /* \"#utility.yul\":6212:6481   */\n      pop\n        /* \"#utility.yul\":6161:6481   */\n      swap2\n      swap1\n      pop\n      jump\t// out\n        /* \"#utility.yul\":6487:6667   */\n    tag_74:\n        /* \"#utility.yul\":6535:6612   */\n      0x4e487b7100000000000000000000000000000000000000000000000000000000\n        /* \"#utility.yul\":6532:6533   */\n      0x00\n        /* \"#utility.yul\":6525:6613   */\n      mstore\n        /* \"#utility.yul\":6632:6636   */\n      0x11\n        /* \"#utility.yul\":6629:6630   */\n      0x04\n        /* \"#utility.yul\":6622:6637   */\n      mstore\n        /* \"#utility.yul\":6656:6660   */\n      0x24\n        /* \"#utility.yul\":6653:6654   */\n      0x00\n        /* \"#utility.yul\":6646:6661   */\n      revert\n        /* \"#utility.yul\":6673:6906   */\n    tag_38:\n        /* \"#utility.yul\":6712:6715   */\n      0x00\n        /* \"#utility.yul\":6735:6759   */\n      tag_166\n        /* \"#utility.yul\":6753:6758   */\n      dup3\n        /* \"#utility.yul\":6735:6759   */\n      tag_52\n      jump\t// in\n    tag_166:\n        /* \"#utility.yul\":6726:6759   */\n      swap2\n      pop\n        /* \"#utility.yul\":6781:6847   */\n      0xffffffffffffffffffffffffffffffffffffffffffffffffffffffffffffffff\n        /* \"#utility.yul\":6774:6779   */\n      dup3\n        /* \"#utility.yul\":6771:6848   */\n      sub\n        /* \"#utility.yul\":6768:6871   */\n      tag_167\n      jumpi\n        /* \"#utility.yul\":6851:6869   */\n      tag_168\n      tag_74\n      jump\t// in\n    tag_168:\n        /* \"#utility.yul\":6768:6871   */\n    tag_167:\n        /* \"#utility.yul\":6898:6899   */\n      0x01\n        /* \"#utility.yul\":6891:6896   */\n      dup3\n        /* \"#utility.yul\":6887:6900   */\n      add\n        /* \"#utility.yul\":6880:6900   */\n      swap1\n      pop\n        /* \"#utility.yul\":6673:6906   */\n      swap2\n      swap1\n      pop\n      jump\t// out\n        /* \"#utility.yul\":6912:7053   */\n    tag_75:\n        /* \"#utility.yul\":6961:6965   */\n      0x00\n        /* \"#utility.yul\":6984:6987   */\n      dup2\n        /* \"#utility.yul\":6976:6987   */\n      swap1\n      pop\n        /* \"#utility.yul\":7007:7010   */\n      dup2\n        /* \"#utility.yul\":7004:7005   */\n      0x00\n        /* \"#utility.yul\":6997:7011   */\n      mstore\n        /* \"#utility.yul\":7041:7045   */\n      0x20\n        /* \"#utility.yul\":7038:7039   */\n      0x00\n        /* \"#utility.yul\":7028:7046   */\n      keccak256\n        /* \"#utility.yul\":7020:7046   */\n      swap1\n      pop\n        /* \"#utility.yul\":6912:7053   */\n      swap2\n      swap1\n      pop\n      jump\t// out\n        /* \"#utility.yul\":7059:7152   */\n    tag_76:\n        /* \"#utility.yul\":7096:7102   */\n      0x00\n        /* \"#utility.yul\":7143:7145   */\n      0x20\n        /* \"#utility.yul\":7138:7140   */\n      0x1f\n        /* \"#utility.yul\":7131:7136   */\n      dup4\n        /* \"#utility.yul\":7127:7141   */\n      add\n        /* \"#utility.yul\":7123:7146   */\n      div\n        /* \"#utility.yul\":7113:7146   */\n      swap1\n      pop\n        /* \"#utility.yul\":7059:7152   */\n      swap2\n      swap1\n      pop\n      jump\t// out\n        /* \"#utility.yul\":7158:7265   */\n    tag_77:\n        /* \"#utility.yul\":7202:7210   */\n      0x00\n        /* \"#utility.yul\":7252:7257   */\n      dup3\n        /* \"#utility.yul\":7246:7250   */\n      dup3\n        /* \"#utility.yul\":7242:7258   */\n      shl\n        /* \"#utility.yul\":7221:7258   */\n      swap1\n      pop\n        /* \"#utility.yul\":7158:7265   */\n      swap3\n      swap2\n      pop\n      pop\n      jump\t// out\n        /* \"#utility.yul\":7271:7664   */\n    tag_78:\n        /* \"#utility.yul\":7340:7346   */\n      0x00\n        /* \"#utility.yul\":7390:7391   */\n      0x08\n        /* \"#utility.yul\":7378:7388   */\n      dup4\n        /* \"#utility.yul\":7374:7392   */\n      mul\n        /* \"#utility.yul\":7413:7510   */\n      tag_173\n        /* \"#utility.yul\":7443:7509   */\n      0xffffffffffffffffffffffffffffffffffffffffffffffffffffffffffffffff\n        /* \"#utility.yul\":7432:7441   */\n      dup3\n        /* \"#utility.yul\":7413:7510   */\n      tag_77\n      jump\t// in\n    tag_173:\n        /* \"#utility.yul\":7531:7570   */\n      tag_174\n        /* \"#utility.yul\":7561:7569   */\n      dup7\n        /* \"#utility.yul\":7550:7559   */\n      dup4\n        /* \"#utility.yul\":7531:7570   */\n      tag_77\n      jump\t// in\n    tag_174:\n        /* \"#utility.yul\":7519:7570   */\n      swap6\n      pop\n        /* \"#utility.yul\":7603:7607   */\n      dup1\n        /* \"#utility.yul\":7599:7608   */\n      not\n        /* \"#utility.yul\":7592:7597   */\n      dup5\n        /* \"#utility.yul\":7588:7609   */\n      and\n        /* \"#utility.yul\":7579:7609   */\n      swap4\n      pop\n        /* \"#utility.yul\":7652:7656   */\n      dup1\n        /* \"#utility.yul\":7642:7650   */\n      dup7\n        /* \"#utility.yul\":7638:7657   */\n      and\n        /* \"#utility.yul\":7631:7636   */\n      dup5\n        /* \"#utility.yul\":7628:7658   */\n      or\n        /* \"#utility.yul\":7618:7658   */\n      swap3\n      pop\n        /* \"#utility.yul\":7347:7664   */\n      pop\n      pop\n        /* \"#utility.yul\":7271:7664   */\n      swap4\n      swap3\n      pop\n      pop\n      pop\n      jump\t// out\n        /* \"#utility.yul\":7670:7730   */\n    tag_79:\n        /* \"#utility.yul\":7698:7701   */\n      0x00\n        /* \"#utility.yul\":7719:7724   */\n      dup2\n        /* \"#utility.yul\":7712:7724   */\n      swap1\n      pop\n        /* \"#utility.yul\":7670:7730   */\n      swap2\n      swap1\n      pop\n      jump\t// out\n        /* \"#utility.yul\":7736:7878   */\n    tag_80:\n        /* \"#utility.yul\":7786:7795   */\n      0x00\n        /* \"#utility.yul\":7819:7872   */\n      tag_177\n        /* \"#utility.yul\":7837:7871   */\n      tag_178\n        /* \"#utility.yul\":7846:7870   */\n      tag_179\n        /* \"#utility.yul\":7864:7869   */\n      dup5\n        /* \"#utility.yul\":7846:7870   */\n      tag_52\n      jump\t// in\n    tag_179:\n        /* \"#utility.yul\":7837:7871   */\n      tag_79\n      jump\t// in\n    tag_178:\n        /* \"#utility.yul\":7819:7872   */\n      tag_52\n      jump\t// in\n    tag_177:\n        /* \"#utility.yul\":7806:7872   */\n      swap1\n      pop\n        /* \"#utility.yul\":7736:7878   */\n      swap2\n      swap1\n      pop\n      jump\t// out\n        /* \"#utility.yul\":7884:7959   */\n    tag_81:\n        /* \"#utility.yul\":7927:7930   */\n      0x00\n        /* \"#utility.yul\":7948:7953   */\n      dup2\n        /* \"#utility.yul\":7941:7953   */\n      swap1\n      pop\n        /* \"#utility.yul\":7884:7959   */\n      swap2\n      swap1\n      pop\n      jump\t// out\n        /* \"#utility.yul\":7965:8234   */\n    tag_82:\n        /* \"#utility.yul\":8075:8114   */\n      tag_182\n        /* \"#utility.yul\":8106:8113   */\n      dup4\n        /* \"#utility.yul\":8075:8114   */\n      tag_80\n      jump\t// in\n    tag_182:\n        /* \"#utility.yul\":8136:8227   */\n      tag_183\n        /* \"#utility.yul\":8185:8226   */\n      tag_184\n        /* \"#utility.yul\":8209:8225   */\n      dup3\n        /* \"#utility.yul\":8185:8226   */\n      tag_81\n      jump\t// in\n    tag_184:\n        /* \"#utility.yul\":8177:8183   */\n      dup5\n        /* \"#utility.yul\":8170:8174   */\n      dup5\n        /* \"#utility.yul\":8164:8175   */\n      sload\n        /* \"#utility.yul\":8136:8227   */\n      tag_78\n      jump\t// in\n    tag_183:\n        /* \"#utility.yul\":8130:8134   */\n      dup3\n        /* \"#utility.yul\":8123:8228   */\n      sstore\n        /* \"#utility.yul\":8041:8234   */\n      pop\n        /* \"#utility.yul\":7965:8234   */\n      pop\n      pop\n      pop\n      jump\t// out\n        /* \"#utility.yul\":8240:8313   */\n    tag_83:\n        /* \"#utility.yul\":8285:8288   */\n      0x00\n        /* \"#utility.yul\":8306:8307   */\n      0x00\n        /* \"#utility.yul\":8299:8307   */\n      swap1\n      pop\n        /* \"#utility.yul\":8240:8313   */\n      swap1\n      jump\t// out\n        /* \"#utility.yul\":8319:8508   */\n    tag_84:\n        /* \"#utility.yul\":8396:8428   */\n      tag_187\n      tag_83\n      jump\t// in\n    tag_187:\n        /* \"#utility.yul\":8437:8502   */\n      tag_188\n        /* \"#utility.yul\":8495:8501   */\n      dup2\n        /* \"#utility.yul\":8487:8493   */\n      dup5\n        /* \"#utility.yul\":8481:8485   */\n      dup5\n        /* \"#utility.yul\":8437:8502   */\n      tag_82\n      jump\t// in\n    tag_188:\n        /* \"#utility.yul\":8372:8508   */\n      pop\n        /* \"#utility.yul\":8319:8508   */\n      pop\n      pop\n      jump\t// out\n        /* \"#utility.yul\":8514:8700   */\n    tag_85:\n        /* \"#utility.yul\":8574:8694   */\n    tag_190:\n        /* \"#utility.yul\":8591:8594   */\n      dup2\n        /* \"#utility.yul\":8584:8589   */\n      dup2\n        /* \"#utility.yul\":8581:8595   */\n      lt\n        /* \"#utility.yul\":8574:8694   */\n      iszero\n      tag_192\n      jumpi\n        /* \"#utility.yul\":8645:8684   */\n      tag_193\n        /* \"#utility.yul\":8682:8683   */\n      0x00\n        /* \"#utility.yul\":8675:8680   */\n      dup3\n        /* \"#utility.yul\":8645:8684   */\n      tag_84\n      jump\t// in\n    tag_193:\n        /* \"#utility.yul\":8618:8619   */\n      0x01\n        /* \"#utility.yul\":8611:8616   */\n      dup2\n        /* \"#utility.yul\":8607:8620   */\n      add\n        /* \"#utility.yul\":8598:8620   */\n      swap1\n      pop\n        /* \"#utility.yul\":8574:8694   */\n      jump(tag_190)\n    tag_192:\n        /* \"#utility.yul\":8514:8700   */\n      pop\n      pop\n      jump\t// out\n        /* \"#utility.yul\":8706:9249   */\n    tag_86:\n        /* \"#utility.yul\":8807:8809   */\n      0x1f\n        /* \"#utility.yul\":8802:8805   */\n      dup3\n        /* \"#utility.yul\":8799:8810   */\n      gt\n        /* \"#utility.yul\":8796:9242   */\n      iszero\n      tag_195\n      jumpi\n        /* \"#utility.yul\":8841:8879   */\n      tag_196\n        /* \"#utility.yul\":8873:8878   */\n      dup2\n        /* \"#utility.yul\":8841:8879   */\n      tag_75\n      jump\t// in\n    tag_196:\n        /* \"#utility.yul\":8925:8954   */\n      tag_197\n        /* \"#utility.yul\":8943:8953   */\n      dup5\n        /* \"#utility.yul\":8925:8954   */\n      tag_76\n      jump\t// in\n    tag_197:\n        /* \"#utility.yul\":8915:8923   */\n      dup2\n        /* \"#utility.yul\":8911:8955   */\n      add\n        /* \"#utility.yul\":9108:9110   */\n      0x20\n        /* \"#utility.yul\":9096:9106   */\n      dup6\n        /* \"#utility.yul\":9093:9111   */\n      lt\n        /* \"#utility.yul\":9090:9139   */\n      iszero\n      tag_198\n      jumpi\n        /* \"#utility.yul\":9129:9137   */\n      dup2\n        /* \"#utility.yul\":9114:9137   */\n      swap1\n      pop\n        /* \"#utility.yul\":9090:9139   */\n    tag_198:\n        /* \"#utility.yul\":9152:9232   */\n      tag_199\n        /* \"#utility.yul\":9208:9230   */\n      tag_200\n        /* \"#utility.yul\":9226:9229   */\n      dup6\n        /* \"#utility.yul\":9208:9230   */\n      tag_76\n      jump\t// in\n    tag_200:\n        /* \"#utility.yul\":9198:9206   */\n      dup4\n        /* \"#utility.yul\":9194:9231   */\n      add\n        /* \"#utility.yul\":9181:9192   */\n      dup3\n        /* \"#utility.yul\":9152:9232   */\n      tag_85\n      jump\t// in\n    tag_199:\n        /* \"#utility.yul\":8811:9242   */\n      pop\n      pop\n        /* \"#utility.yul\":8796:9242   */\n    tag_195:\n        /* \"#utility.yul\":8706:9249   */\n      pop\n      pop\n      pop\n      jump\t// out\n        /* \"#utility.yul\":9255:9372   */\n    tag_87:\n        /* \"#utility.yul\":9309:9317   */\n      0x00\n        /* \"#utility.yul\":9359:9364   */\n      dup3\n        /* \"#utility.yul\":9353:9357   */\n      dup3\n        /* \"#utility.yul\":9349:9365   */\n      shr\n        /* \"#utility.yul\":9328:9365   */\n      swap1\n      pop\n        /* \"#utility.yul\":9255:9372   */\n      swap3\n      swap2\n      pop\n      pop\n      jump\t// out\n        /* \"#utility.yul\":9378:9547   */\n    tag_88:\n        /* \"#utility.yul\":9422:9428   */\n      0x00\n        /* \"#utility.yul\":9455:9506   */\n      tag_203\n        /* \"#utility.yul\":9503:9504   */\n      0x00\n        /* \"#utility.yul\":9499:9505   */\n      not\n        /* \"#utility.yul\":9491:9496   */\n      dup5\n        /* \"#utility.yul\":9488:9489   */\n      0x08\n        /* \"#utility.yul\":9484:9497   */\n      mul\n        /* \"#utility.yul\":9455:9506   */\n      tag_87\n      jump\t// in\n    tag_203:\n        /* \"#utility.yul\":9451:9507   */\n      not\n        /* \"#utility.yul\":9536:9540   */\n      dup1\n        /* \"#utility.yul\":9530:9534   */\n      dup4\n        /* \"#utility.yul\":9526:9541   */\n      and\n        /* \"#utility.yul\":9516:9541   */\n      swap2\n      pop\n        /* \"#utility.yul\":9429:9547   */\n      pop\n        /* \"#utility.yul\":9378:9547   */\n      swap3\n      swap2\n      pop\n      pop\n      jump\t// out\n        /* \"#utility.yul\":9552:9847   */\n    tag_89:\n        /* \"#utility.yul\":9628:9632   */\n      0x00\n        /* \"#utility.yul\":9774:9803   */\n      tag_205\n        /* \"#utility.yul\":9799:9802   */\n      dup4\n        /* \"#utility.yul\":9793:9797   */\n      dup4\n        /* \"#utility.yul\":9774:9803   */\n      tag_88\n      jump\t// in\n    tag_205:\n        /* \"#utility.yul\":9766:9803   */\n      swap2\n      pop\n        /* \"#utility.yul\":9836:9839   */\n      dup3\n        /* \"#utility.yul\":9833:9834   */\n      0x02\n        /* \"#utility.yul\":9829:9840   */\n      mul\n        /* \"#utility.yul\":9823:9827   */\n      dup3\n        /* \"#utility.yul\":9820:9841   */\n      or\n        /* \"#utility.yul\":9812:9841   */\n      swap1\n      pop\n        /* \"#utility.yul\":9552:9847   */\n      swap3\n      swap2\n      pop\n      pop\n      jump\t// out\n        /* \"#utility.yul\":9852:11247   */\n    tag_40:\n        /* \"#utility.yul\":9969:10006   */\n      tag_207\n        /* \"#utility.yul\":10002:10005   */\n      dup3\n        /* \"#utility.yul\":9969:10006   */\n      tag_59\n      jump\t// in\n    tag_207:\n        /* \"#utility.yul\":10071:10089   */\n      0xffffffffffffffff\n        /* \"#utility.yul\":10063:10069   */\n      dup2\n        /* \"#utility.yul\":10060:10090   */\n      gt\n        /* \"#utility.yul\":10057:10113   */\n      iszero\n      tag_208\n      jumpi\n        /* \"#utility.yul\":10093:10111   */\n      tag_209\n      tag_66\n      jump\t// in\n    tag_209:\n        /* \"#utility.yul\":10057:10113   */\n    tag_208:\n        /* \"#utility.yul\":10137:10175   */\n      tag_210\n        /* \"#utility.yul\":10169:10173   */\n      dup3\n        /* \"#utility.yul\":10163:10174   */\n      sload\n        /* \"#utility.yul\":10137:10175   */\n      tag_31\n      jump\t// in\n    tag_210:\n        /* \"#utility.yul\":10222:10289   */\n      tag_211\n        /* \"#utility.yul\":10282:10288   */\n      dup3\n        /* \"#utility.yul\":10274:10280   */\n      dup3\n        /* \"#utility.yul\":10268:10272   */\n      dup6\n        /* \"#utility.yul\":10222:10289   */\n      tag_86\n      jump\t// in\n    tag_211:\n        /* \"#utility.yul\":10316:10317   */\n      0x00\n        /* \"#utility.yul\":10340:10344   */\n      0x20\n        /* \"#utility.yul\":10327:10344   */\n      swap1\n      pop\n        /* \"#utility.yul\":10372:10374   */\n      0x1f\n        /* \"#utility.yul\":10364:10370   */\n      dup4\n        /* \"#utility.yul\":10361:10375   */\n      gt\n        /* \"#utility.yul\":10389:10390   */\n      0x01\n        /* \"#utility.yul\":10384:11002   */\n      dup2\n      eq\n      tag_213\n      jumpi\n        /* \"#utility.yul\":11046:11047   */\n      0x00\n        /* \"#utility.yul\":11063:11069   */\n      dup5\n        /* \"#utility.yul\":11060:11137   */\n      iszero\n      tag_214\n      jumpi\n        /* \"#utility.yul\":11112:11121   */\n      dup3\n        /* \"#utility.yul\":11107:11110   */\n      dup8\n        /* \"#utility.yul\":11103:11122   */\n      add\n        /* \"#utility.yul\":11097:11123   */\n      mload\n        /* \"#utility.yul\":11088:11123   */\n      swap1\n      pop\n        /* \"#utility.yul\":11060:11137   */\n    tag_214:\n        /* \"#utility.yul\":11163:11230   */\n      tag_215\n        /* \"#utility.yul\":11223:11229   */\n      dup6\n        /* \"#utility.yul\":11216:11221   */\n      dup3\n        /* \"#utility.yul\":11163:11230   */\n      tag_89\n      jump\t// in\n    tag_215:\n        /* \"#utility.yul\":11157:11161   */\n      dup7\n        /* \"#utility.yul\":11150:11231   */\n      sstore\n        /* \"#utility.yul\":11019:11241   */\n      pop\n        /* \"#utility.yul\":10354:11241   */\n      jump(tag_212)\n        /* \"#utility.yul\":10384:11002   */\n    tag_213:\n        /* \"#utility.yul\":10436:10440   */\n      0x1f\n        /* \"#utility.yul\":10432:10441   */\n      not\n        /* \"#utility.yul\":10424:10430   */\n      dup5\n        /* \"#utility.yul\":10420:10442   */\n      and\n        /* \"#utility.yul\":10470:10507   */\n      tag_216\n        /* \"#utility.yul\":10502:10506   */\n      dup7\n        /* \"#utility.yul\":10470:10507   */\n      tag_75\n      jump\t// in\n    tag_216:\n        /* \"#utility.yul\":10529:10530   */\n      0x00\n        /* \"#utility.yul\":10543:10751   */\n    tag_217:\n        /* \"#utility.yul\":10557:10564   */\n      dup3\n        /* \"#utility.yul\":10554:10555   */\n      dup2\n        /* \"#utility.yul\":10551:10565   */\n      lt\n        /* \"#utility.yul\":10543:10751   */\n      iszero\n      tag_219\n      jumpi\n        /* \"#utility.yul\":10636:10645   */\n      dup5\n        /* \"#utility.yul\":10631:10634   */\n      dup10\n        /* \"#utility.yul\":10627:10646   */\n      add\n        /* \"#utility.yul\":10621:10647   */\n      mload\n        /* \"#utility.yul\":10613:10619   */\n      dup3\n        /* \"#utility.yul\":10606:10648   */\n      sstore\n        /* \"#utility.yul\":10687:10688   */\n      0x01\n        /* \"#utility.yul\":10679:10685   */\n      dup3\n        /* \"#utility.yul\":10675:10689   */\n      add\n        /* \"#utility.yul\":10665:10689   */\n      swap2\n      pop\n        /* \"#utility.yul\":10734:10736   */\n      0x20\n        /* \"#utility.yul\":10723:10732   */\n      dup6\n        /* \"#utility.yul\":10719:10737   */\n      add\n        /* \"#utility.yul\":10706:10737   */\n      swap5\n      pop\n        /* \"#utility.yul\":10580:10584   */\n      0x20\n        /* \"#utility.yul\":10577:10578   */\n      dup2\n        /* \"#utility.yul\":10573:10585   */\n      add\n        /* \"#utility.yul\":10568:10585   */\n      swap1\n      pop\n        /* \"#utility.yul\":10543:10751   */\n      jump(tag_217)\n    tag_219:\n        /* \"#utility.yul\":10779:10785   */\n      dup7\n        /* \"#utility.yul\":10770:10777   */\n      dup4\n        /* \"#utility.yul\":10767:10786   */\n      lt\n        /* \"#utility.yul\":10764:10943   */\n      iszero\n      tag_220\n      jumpi\n        /* \"#utility.yul\":10837:10846   */\n      dup5\n        /* \"#utility.yul\":10832:10835   */\n      dup10\n        /* \"#utility.yul\":10828:10847   */\n      add\n        /* \"#utility.yul\":10822:10848   */\n      mload\n        /* \"#utility.yul\":10880:10928   */\n      tag_221\n        /* \"#utility.yul\":10922:10926   */\n      0x1f\n        /* \"#utility.yul\":10914:10920   */\n      dup10\n        /* \"#utility.yul\":10910:10927   */\n      and\n        /* \"#utility.yul\":10899:10908   */\n      dup3\n        /* \"#utility.yul\":10880:10928   */\n      tag_88\n      jump\t// in\n    tag_221:\n        /* \"#utility.yul\":10872:10878   */\n      dup4\n        /* \"#utility.yul\":10865:10929   */\n      sstore\n        /* \"#utility.yul\":10787:10943   */\n      pop\n        /* \"#utility.yul\":10764:10943   */\n    tag_220:\n        /* \"#utility.yul\":10989:10990   */\n      0x01\n        /* \"#utility.yul\":10985:10986   */\n      0x02\n        /* \"#utility.yul\":10977:10983   */\n      dup9\n        /* \"#utility.yul\":10973:10987   */\n      mul\n        /* \"#utility.yul\":10969:10991   */\n      add\n        /* \"#utility.yul\":10963:10967   */\n      dup9\n        /* \"#utility.yul\":10956:10992   */\n      sstore\n        /* \"#utility.yul\":10391:11002   */\n      pop\n      pop\n      pop\n        /* \"#utility.yul\":10354:11241   */\n    tag_212:\n      pop\n        /* \"#utility.yul\":9944:11247   */\n      pop\n      pop\n      pop\n        /* \"#utility.yul\":9852:11247   */\n      pop\n      pop\n      jump\t// out\n        /* \"#utility.yul\":11253:11421   */\n    tag_90:\n        /* \"#utility.yul\":11393:11413   */\n      0x73747564656e74206e6520706f73746f6a690000000000000000000000000000\n        /* \"#utility.yul\":11389:11390   */\n      0x00\n        /* \"#utility.yul\":11381:11387   */\n      dup3\n        /* \"#utility.yul\":11377:11391   */\n      add\n        /* \"#utility.yul\":11370:11414   */\n      mstore\n        /* \"#utility.yul\":11253:11421   */\n      pop\n      jump\t// out\n        /* \"#utility.yul\":11427:11793   */\n    tag_91:\n        /* \"#utility.yul\":11569:11572   */\n      0x00\n        /* \"#utility.yul\":11590:11657   */\n      tag_224\n        /* \"#utility.yul\":11654:11656   */\n      0x12\n        /* \"#utility.yul\":11649:11652   */\n      dup4\n        /* \"#utility.yul\":11590:11657   */\n      tag_60\n      jump\t// in\n    tag_224:\n        /* \"#utility.yul\":11583:11657   */\n      swap2\n      pop\n        /* \"#utility.yul\":11666:11759   */\n      tag_225\n        /* \"#utility.yul\":11755:11758   */\n      dup3\n        /* \"#utility.yul\":11666:11759   */\n      tag_90\n      jump\t// in\n    tag_225:\n        /* \"#utility.yul\":11784:11786   */\n      0x20\n        /* \"#utility.yul\":11779:11782   */\n      dup3\n        /* \"#utility.yul\":11775:11787   */\n      add\n        /* \"#utility.yul\":11768:11787   */\n      swap1\n      pop\n        /* \"#utility.yul\":11427:11793   */\n      swap2\n      swap1\n      pop\n      jump\t// out\n        /* \"#utility.yul\":11799:12218   */\n    tag_45:\n        /* \"#utility.yul\":11965:11969   */\n      0x00\n        /* \"#utility.yul\":12003:12005   */\n      0x20\n        /* \"#utility.yul\":11992:12001   */\n      dup3\n        /* \"#utility.yul\":11988:12006   */\n      add\n        /* \"#utility.yul\":11980:12006   */\n      swap1\n      pop\n        /* \"#utility.yul\":12052:12061   */\n      dup2\n        /* \"#utility.yul\":12046:12050   */\n      dup2\n        /* \"#utility.yul\":12042:12062   */\n      sub\n        /* \"#utility.yul\":12038:12039   */\n      0x00\n        /* \"#utility.yul\":12027:12036   */\n      dup4\n        /* \"#utility.yul\":12023:12040   */\n      add\n        /* \"#utility.yul\":12016:12063   */\n      mstore\n        /* \"#utility.yul\":12080:12211   */\n      tag_227\n        /* \"#utility.yul\":12206:12210   */\n      dup2\n        /* \"#utility.yul\":12080:12211   */\n      tag_91\n      jump\t// in\n    tag_227:\n        /* \"#utility.yul\":12072:12211   */\n      swap1\n      pop\n        /* \"#utility.yul\":11799:12218   */\n      swap2\n      swap1\n      pop\n      jump\t// out\n\n    auxdata: 0xa2646970667358221220053fd8d46e2b5986a02f931bdfa0d646b8a7164354821a10a468aae0d9f611e864736f6c634300081e0033\n}\n",
				"bytecode": {
					"linkReferences": {},
					"object": "6080604052348015600e575f5ffd5b50610a2f8061001c5f395ff3fe608060405234801561000f575f5ffd5b5060043610610055575f3560e01c806306661abd1461005957806306ead22e146100775780630e5eeef7146100a857806350bf95ce146100c4578063642f9163146100e0575b5f5ffd5b610061610111565b60405161006e9190610370565b60405180910390f35b610091600480360381019061008c91906103c4565b610117565b60405161009f92919061045f565b60405180910390f35b6100c260048036038101906100bd91906105b9565b6101bc565b005b6100de60048036038101906100d99190610613565b61021f565b005b6100fa60048036038101906100f591906103c4565b61028b565b60405161010892919061045f565b60405180910390f35b60015481565b5f602052805f5260405f205f91509050805f0180546101359061067e565b80601f01602080910402602001604051908101604052809291908181526020018280546101619061067e565b80156101ac5780601f10610183576101008083540402835291602001916101ac565b820191905f5260205f20905b81548152906001019060200180831161018f57829003601f168201915b5050505050908060010154905082565b60015f8154809291906101ce906106db565b91905055506040518060400160405280838152602001828152505f5f60015481526020019081526020015f205f820151815f01908161020d91906108c2565b50602082015181600101559050505050565b5f8211801561023057506001548211155b61026f576040517f08c379a0000000000000000000000000000000000000000000000000000000008152600401610266906109db565b60405180910390fd5b805f5f8481526020019081526020015f20600101819055505050565b60605f5f5f5f8581526020019081526020015f206040518060400160405290815f820180546102b99061067e565b80601f01602080910402602001604051908101604052809291908181526020018280546102e59061067e565b80156103305780601f1061030757610100808354040283529160200191610330565b820191905f5260205f20905b81548152906001019060200180831161031357829003601f168201915b505050505081526020016001820154815250509050805f015181602001519250925050915091565b5f819050919050565b61036a81610358565b82525050565b5f6020820190506103835f830184610361565b92915050565b5f604051905090565b5f5ffd5b5f5ffd5b6103a381610358565b81146103ad575f5ffd5b50565b5f813590506103be8161039a565b92915050565b5f602082840312156103d9576103d8610392565b5b5f6103e6848285016103b0565b91505092915050565b5f81519050919050565b5f82825260208201905092915050565b8281835e5f83830152505050565b5f601f19601f8301169050919050565b5f610431826103ef565b61043b81856103f9565b935061044b818560208601610409565b61045481610417565b840191505092915050565b5f6040820190508181035f8301526104778185610427565b90506104866020830184610361565b9392505050565b5f5ffd5b5f5ffd5b7f4e487b71000000000000000000000000000000000000000000000000000000005f52604160045260245ffd5b6104cb82610417565b810181811067ffffffffffffffff821117156104ea576104e9610495565b5b80604052505050565b5f6104fc610389565b905061050882826104c2565b919050565b5f67ffffffffffffffff82111561052757610526610495565b5b61053082610417565b9050602081019050919050565b828183375f83830152505050565b5f61055d6105588461050d565b6104f3565b90508281526020810184848401111561057957610578610491565b5b61058484828561053d565b509392505050565b5f82601f8301126105a05761059f61048d565b5b81356105b084826020860161054b565b91505092915050565b5f5f604083850312156105cf576105ce610392565b5b5f83013567ffffffffffffffff8111156105ec576105eb610396565b5b6105f88582860161058c565b9250506020610609858286016103b0565b9150509250929050565b5f5f6040838503121561062957610628610392565b5b5f610636858286016103b0565b9250506020610647858286016103b0565b9150509250929050565b7f4e487b71000000000000000000000000000000000000000000000000000000005f52602260045260245ffd5b5f600282049050600182168061069557607f821691505b6020821081036106a8576106a7610651565b5b50919050565b7f4e487b71000000000000000000000000000000000000000000000000000000005f52601160045260245ffd5b5f6106e582610358565b91507fffffffffffffffffffffffffffffffffffffffffffffffffffffffffffffffff8203610717576107166106ae565b5b600182019050919050565b5f819050815f5260205f209050919050565b5f6020601f8301049050919050565b5f82821b905092915050565b5f6008830261077e7fffffffffffffffffffffffffffffffffffffffffffffffffffffffffffffffff82610743565b6107888683610743565b95508019841693508086168417925050509392505050565b5f819050919050565b5f6107c36107be6107b984610358565b6107a0565b610358565b9050919050565b5f819050919050565b6107dc836107a9565b6107f06107e8826107ca565b84845461074f565b825550505050565b5f5f905090565b6108076107f8565b6108128184846107d3565b505050565b5b818110156108355761082a5f826107ff565b600181019050610818565b5050565b601f82111561087a5761084b81610722565b61085484610734565b81016020851015610863578190505b61087761086f85610734565b830182610817565b50505b505050565b5f82821c905092915050565b5f61089a5f198460080261087f565b1980831691505092915050565b5f6108b2838361088b565b9150826002028217905092915050565b6108cb826103ef565b67ffffffffffffffff8111156108e4576108e3610495565b5b6108ee825461067e565b6108f9828285610839565b5f60209050601f83116001811461092a575f8415610918578287015190505b61092285826108a7565b865550610989565b601f19841661093886610722565b5f5b8281101561095f5784890151825560018201915060208501945060208101905061093a565b8683101561097c5784890151610978601f89168261088b565b8355505b6001600288020188555050505b505050505050565b7f73747564656e74206e6520706f73746f6a6900000000000000000000000000005f82015250565b5f6109c56012836103f9565b91506109d082610991565b602082019050919050565b5f6020820190508181035f8301526109f2816109b9565b905091905056fea2646970667358221220053fd8d46e2b5986a02f931bdfa0d646b8a7164354821a10a468aae0d9f611e864736f6c634300081e0033",
					"opcodes": "PUSH1 0x80 PUSH1 0x40 MSTORE CALLVALUE DUP1 ISZERO PUSH1 0xE JUMPI PUSH0 PUSH0 REVERT JUMPDEST POP PUSH2 0xA2F DUP1 PUSH2 0x1C PUSH0 CODECOPY PUSH0 RETURN INVALID PUSH1 0x80 PUSH1 0x40 MSTORE CALLVALUE DUP1 ISZERO PUSH2 0xF JUMPI PUSH0 PUSH0 REVERT JUMPDEST POP PUSH1 0x4 CALLDATASIZE LT PUSH2 0x55 JUMPI PUSH0 CALLDATALOAD PUSH1 0xE0 SHR DUP1 PUSH4 0x6661ABD EQ PUSH2 0x59 JUMPI DUP1 PUSH4 0x6EAD22E EQ PUSH2 0x77 JUMPI DUP1 PUSH4 0xE5EEEF7 EQ PUSH2 0xA8 JUMPI DUP1 PUSH4 0x50BF95CE EQ PUSH2 0xC4 JUMPI DUP1 PUSH4 0x642F9163 EQ PUSH2 0xE0 JUMPI JUMPDEST PUSH0 PUSH0 REVERT JUMPDEST PUSH2 0x61 PUSH2 0x111 JUMP JUMPDEST PUSH1 0x40 MLOAD PUSH2 0x6E SWAP2 SWAP1 PUSH2 0x370 JUMP JUMPDEST PUSH1 0x40 MLOAD DUP1 SWAP2 SUB SWAP1 RETURN JUMPDEST PUSH2 0x91 PUSH1 0x4 DUP1 CALLDATASIZE SUB DUP2 ADD SWAP1 PUSH2 0x8C SWAP2 SWAP1 PUSH2 0x3C4 JUMP JUMPDEST PUSH2 0x117 JUMP JUMPDEST PUSH1 0x40 MLOAD PUSH2 0x9F SWAP3 SWAP2 SWAP1 PUSH2 0x45F JUMP JUMPDEST PUSH1 0x40 MLOAD DUP1 SWAP2 SUB SWAP1 RETURN JUMPDEST PUSH2 0xC2 PUSH1 0x4 DUP1 CALLDATASIZE SUB DUP2 ADD SWAP1 PUSH2 0xBD SWAP2 SWAP1 PUSH2 0x5B9 JUMP JUMPDEST PUSH2 0x1BC JUMP JUMPDEST STOP JUMPDEST PUSH2 0xDE PUSH1 0x4 DUP1 CALLDATASIZE SUB DUP2 ADD SWAP1 PUSH2 0xD9 SWAP2 SWAP1 PUSH2 0x613 JUMP JUMPDEST PUSH2 0x21F JUMP JUMPDEST STOP JUMPDEST PUSH2 0xFA PUSH1 0x4 DUP1 CALLDATASIZE SUB DUP2 ADD SWAP1 PUSH2 0xF5 SWAP2 SWAP1 PUSH2 0x3C4 JUMP JUMPDEST PUSH2 0x28B JUMP JUMPDEST PUSH1 0x40 MLOAD PUSH2 0x108 SWAP3 SWAP2 SWAP1 PUSH2 0x45F JUMP JUMPDEST PUSH1 0x40 MLOAD DUP1 SWAP2 SUB SWAP1 RETURN JUMPDEST PUSH1 0x1 SLOAD DUP2 JUMP JUMPDEST PUSH0 PUSH1 0x20 MSTORE DUP1 PUSH0 MSTORE PUSH1 0x40 PUSH0 KECCAK256 PUSH0 SWAP2 POP SWAP1 POP DUP1 PUSH0 ADD DUP1 SLOAD PUSH2 0x135 SWAP1 PUSH2 0x67E JUMP JUMPDEST DUP1 PUSH1 0x1F ADD PUSH1 0x20 DUP1 SWAP2 DIV MUL PUSH1 0x20 ADD PUSH1 0x40 MLOAD SWAP1 DUP2 ADD PUSH1 0x40 MSTORE DUP1 SWAP3 SWAP2 SWAP1 DUP2 DUP2 MSTORE PUSH1 0x20 ADD DUP3 DUP1 SLOAD PUSH2 0x161 SWAP1 PUSH2 0x67E JUMP JUMPDEST DUP1 ISZERO PUSH2 0x1AC JUMPI DUP1 PUSH1 0x1F LT PUSH2 0x183 JUMPI PUSH2 0x100 DUP1 DUP4 SLOAD DIV MUL DUP4 MSTORE SWAP2 PUSH1 0x20 ADD SWAP2 PUSH2 0x1AC JUMP JUMPDEST DUP3 ADD SWAP2 SWAP1 PUSH0 MSTORE PUSH1 0x20 PUSH0 KECCAK256 SWAP1 JUMPDEST DUP2 SLOAD DUP2 MSTORE SWAP1 PUSH1 0x1 ADD SWAP1 PUSH1 0x20 ADD DUP1 DUP4 GT PUSH2 0x18F JUMPI DUP3 SWAP1 SUB PUSH1 0x1F AND DUP3 ADD SWAP2 JUMPDEST POP POP POP POP POP SWAP1 DUP1 PUSH1 0x1 ADD SLOAD SWAP1 POP DUP3 JUMP JUMPDEST PUSH1 0x1 PUSH0 DUP2 SLOAD DUP1 SWAP3 SWAP2 SWAP1 PUSH2 0x1CE SWAP1 PUSH2 0x6DB JUMP JUMPDEST SWAP2 SWAP1 POP SSTORE POP PUSH1 0x40 MLOAD DUP1 PUSH1 0x40 ADD PUSH1 0x40 MSTORE DUP1 DUP4 DUP2 MSTORE PUSH1 0x20 ADD DUP3 DUP2 MSTORE POP PUSH0 PUSH0 PUSH1 0x1 SLOAD DUP2 MSTORE PUSH1 0x20 ADD SWAP1 DUP2 MSTORE PUSH1 0x20 ADD PUSH0 KECCAK256 PUSH0 DUP3 ADD MLOAD DUP2 PUSH0 ADD SWAP1 DUP2 PUSH2 0x20D SWAP2 SWAP1 PUSH2 0x8C2 JUMP JUMPDEST POP PUSH1 0x20 DUP3 ADD MLOAD DUP2 PUSH1 0x1 ADD SSTORE SWAP1 POP POP POP POP JUMP JUMPDEST PUSH0 DUP3 GT DUP1 ISZERO PUSH2 0x230 JUMPI POP PUSH1 0x1 SLOAD DUP3 GT ISZERO JUMPDEST PUSH2 0x26F JUMPI PUSH1 0x40 MLOAD PUSH32 0x8C379A000000000000000000000000000000000000000000000000000000000 DUP2 MSTORE PUSH1 0x4 ADD PUSH2 0x266 SWAP1 PUSH2 0x9DB JUMP JUMPDEST PUSH1 0x40 MLOAD DUP1 SWAP2 SUB SWAP1 REVERT JUMPDEST DUP1 PUSH0 PUSH0 DUP5 DUP2 MSTORE PUSH1 0x20 ADD SWAP1 DUP2 MSTORE PUSH1 0x20 ADD PUSH0 KECCAK256 PUSH1 0x1 ADD DUP2 SWAP1 SSTORE POP POP POP JUMP JUMPDEST PUSH1 0x60 PUSH0 PUSH0 PUSH0 PUSH0 DUP6 DUP2 MSTORE PUSH1 0x20 ADD SWAP1 DUP2 MSTORE PUSH1 0x20 ADD PUSH0 KECCAK256 PUSH1 0x40 MLOAD DUP1 PUSH1 0x40 ADD PUSH1 0x40 MSTORE SWAP1 DUP2 PUSH0 DUP3 ADD DUP1 SLOAD PUSH2 0x2B9 SWAP1 PUSH2 0x67E JUMP JUMPDEST DUP1 PUSH1 0x1F ADD PUSH1 0x20 DUP1 SWAP2 DIV MUL PUSH1 0x20 ADD PUSH1 0x40 MLOAD SWAP1 DUP2 ADD PUSH1 0x40 MSTORE DUP1 SWAP3 SWAP2 SWAP1 DUP2 DUP2 MSTORE PUSH1 0x20 ADD DUP3 DUP1 SLOAD PUSH2 0x2E5 SWAP1 PUSH2 0x67E JUMP JUMPDEST DUP1 ISZERO PUSH2 0x330 JUMPI DUP1 PUSH1 0x1F LT PUSH2 0x307 JUMPI PUSH2 0x100 DUP1 DUP4 SLOAD DIV MUL DUP4 MSTORE SWAP2 PUSH1 0x20 ADD SWAP2 PUSH2 0x330 JUMP JUMPDEST DUP3 ADD SWAP2 SWAP1 PUSH0 MSTORE PUSH1 0x20 PUSH0 KECCAK256 SWAP1 JUMPDEST DUP2 SLOAD DUP2 MSTORE SWAP1 PUSH1 0x1 ADD SWAP1 PUSH1 0x20 ADD DUP1 DUP4 GT PUSH2 0x313 JUMPI DUP3 SWAP1 SUB PUSH1 0x1F AND DUP3 ADD SWAP2 JUMPDEST POP POP POP POP POP DUP2 MSTORE PUSH1 0x20 ADD PUSH1 0x1 DUP3 ADD SLOAD DUP2 MSTORE POP POP SWAP1 POP DUP1 PUSH0 ADD MLOAD DUP2 PUSH1 0x20 ADD MLOAD SWAP3 POP SWAP3 POP POP SWAP2 POP SWAP2 JUMP JUMPDEST PUSH0 DUP2 SWAP1 POP SWAP2 SWAP1 POP JUMP JUMPDEST PUSH2 0x36A DUP2 PUSH2 0x358 JUMP JUMPDEST DUP3 MSTORE POP POP JUMP JUMPDEST PUSH0 PUSH1 0x20 DUP3 ADD SWAP1 POP PUSH2 0x383 PUSH0 DUP4 ADD DUP5 PUSH2 0x361 JUMP JUMPDEST SWAP3 SWAP2 POP POP JUMP JUMPDEST PUSH0 PUSH1 0x40 MLOAD SWAP1 POP SWAP1 JUMP JUMPDEST PUSH0 PUSH0 REVERT JUMPDEST PUSH0 PUSH0 REVERT JUMPDEST PUSH2 0x3A3 DUP2 PUSH2 0x358 JUMP JUMPDEST DUP2 EQ PUSH2 0x3AD JUMPI PUSH0 PUSH0 REVERT JUMPDEST POP JUMP JUMPDEST PUSH0 DUP2 CALLDATALOAD SWAP1 POP PUSH2 0x3BE DUP2 PUSH2 0x39A JUMP JUMPDEST SWAP3 SWAP2 POP POP JUMP JUMPDEST PUSH0 PUSH1 0x20 DUP3 DUP5 SUB SLT ISZERO PUSH2 0x3D9 JUMPI PUSH2 0x3D8 PUSH2 0x392 JUMP JUMPDEST JUMPDEST PUSH0 PUSH2 0x3E6 DUP5 DUP3 DUP6 ADD PUSH2 0x3B0 JUMP JUMPDEST SWAP2 POP POP SWAP3 SWAP2 POP POP JUMP JUMPDEST PUSH0 DUP2 MLOAD SWAP1 POP SWAP2 SWAP1 POP JUMP JUMPDEST PUSH0 DUP3 DUP3 MSTORE PUSH1 0x20 DUP3 ADD SWAP1 POP SWAP3 SWAP2 POP POP JUMP JUMPDEST DUP3 DUP2 DUP4 MCOPY PUSH0 DUP4 DUP4 ADD MSTORE POP POP POP JUMP JUMPDEST PUSH0 PUSH1 0x1F NOT PUSH1 0x1F DUP4 ADD AND SWAP1 POP SWAP2 SWAP1 POP JUMP JUMPDEST PUSH0 PUSH2 0x431 DUP3 PUSH2 0x3EF JUMP JUMPDEST PUSH2 0x43B DUP2 DUP6 PUSH2 0x3F9 JUMP JUMPDEST SWAP4 POP PUSH2 0x44B DUP2 DUP6 PUSH1 0x20 DUP7 ADD PUSH2 0x409 JUMP JUMPDEST PUSH2 0x454 DUP2 PUSH2 0x417 JUMP JUMPDEST DUP5 ADD SWAP2 POP POP SWAP3 SWAP2 POP POP JUMP JUMPDEST PUSH0 PUSH1 0x40 DUP3 ADD SWAP1 POP DUP2 DUP2 SUB PUSH0 DUP4 ADD MSTORE PUSH2 0x477 DUP2 DUP6 PUSH2 0x427 JUMP JUMPDEST SWAP1 POP PUSH2 0x486 PUSH1 0x20 DUP4 ADD DUP5 PUSH2 0x361 JUMP JUMPDEST SWAP4 SWAP3 POP POP POP JUMP JUMPDEST PUSH0 PUSH0 REVERT JUMPDEST PUSH0 PUSH0 REVERT JUMPDEST PUSH32 0x4E487B7100000000000000000000000000000000000000000000000000000000 PUSH0 MSTORE PUSH1 0x41 PUSH1 0x4 MSTORE PUSH1 0x24 PUSH0 REVERT JUMPDEST PUSH2 0x4CB DUP3 PUSH2 0x417 JUMP JUMPDEST DUP2 ADD DUP2 DUP2 LT PUSH8 0xFFFFFFFFFFFFFFFF DUP3 GT OR ISZERO PUSH2 0x4EA JUMPI PUSH2 0x4E9 PUSH2 0x495 JUMP JUMPDEST JUMPDEST DUP1 PUSH1 0x40 MSTORE POP POP POP JUMP JUMPDEST PUSH0 PUSH2 0x4FC PUSH2 0x389 JUMP JUMPDEST SWAP1 POP PUSH2 0x508 DUP3 DUP3 PUSH2 0x4C2 JUMP JUMPDEST SWAP2 SWAP1 POP JUMP JUMPDEST PUSH0 PUSH8 0xFFFFFFFFFFFFFFFF DUP3 GT ISZERO PUSH2 0x527 JUMPI PUSH2 0x526 PUSH2 0x495 JUMP JUMPDEST JUMPDEST PUSH2 0x530 DUP3 PUSH2 0x417 JUMP JUMPDEST SWAP1 POP PUSH1 0x20 DUP2 ADD SWAP1 POP SWAP2 SWAP1 POP JUMP JUMPDEST DUP3 DUP2 DUP4 CALLDATACOPY PUSH0 DUP4 DUP4 ADD MSTORE POP POP POP JUMP JUMPDEST PUSH0 PUSH2 0x55D PUSH2 0x558 DUP5 PUSH2 0x50D JUMP JUMPDEST PUSH2 0x4F3 JUMP JUMPDEST SWAP1 POP DUP3 DUP2 MSTORE PUSH1 0x20 DUP2 ADD DUP5 DUP5 DUP5 ADD GT ISZERO PUSH2 0x579 JUMPI PUSH2 0x578 PUSH2 0x491 JUMP JUMPDEST JUMPDEST PUSH2 0x584 DUP5 DUP3 DUP6 PUSH2 0x53D JUMP JUMPDEST POP SWAP4 SWAP3 POP POP POP JUMP JUMPDEST PUSH0 DUP3 PUSH1 0x1F DUP4 ADD SLT PUSH2 0x5A0 JUMPI PUSH2 0x59F PUSH2 0x48D JUMP JUMPDEST JUMPDEST DUP2 CALLDATALOAD PUSH2 0x5B0 DUP5 DUP3 PUSH1 0x20 DUP7 ADD PUSH2 0x54B JUMP JUMPDEST SWAP2 POP POP SWAP3 SWAP2 POP POP JUMP JUMPDEST PUSH0 PUSH0 PUSH1 0x40 DUP4 DUP6 SUB SLT ISZERO PUSH2 0x5CF JUMPI PUSH2 0x5CE PUSH2 0x392 JUMP JUMPDEST JUMPDEST PUSH0 DUP4 ADD CALLDATALOAD PUSH8 0xFFFFFFFFFFFFFFFF DUP2 GT ISZERO PUSH2 0x5EC JUMPI PUSH2 0x5EB PUSH2 0x396 JUMP JUMPDEST JUMPDEST PUSH2 0x5F8 DUP6 DUP3 DUP7 ADD PUSH2 0x58C JUMP JUMPDEST SWAP3 POP POP PUSH1 0x20 PUSH2 0x609 DUP6 DUP3 DUP7 ADD PUSH2 0x3B0 JUMP JUMPDEST SWAP2 POP POP SWAP3 POP SWAP3 SWAP1 POP JUMP JUMPDEST PUSH0 PUSH0 PUSH1 0x40 DUP4 DUP6 SUB SLT ISZERO PUSH2 0x629 JUMPI PUSH2 0x628 PUSH2 0x392 JUMP JUMPDEST JUMPDEST PUSH0 PUSH2 0x636 DUP6 DUP3 DUP7 ADD PUSH2 0x3B0 JUMP JUMPDEST SWAP3 POP POP PUSH1 0x20 PUSH2 0x647 DUP6 DUP3 DUP7 ADD PUSH2 0x3B0 JUMP JUMPDEST SWAP2 POP POP SWAP3 POP SWAP3 SWAP1 POP JUMP JUMPDEST PUSH32 0x4E487B7100000000000000000000000000000000000000000000000000000000 PUSH0 MSTORE PUSH1 0x22 PUSH1 0x4 MSTORE PUSH1 0x24 PUSH0 REVERT JUMPDEST PUSH0 PUSH1 0x2 DUP3 DIV SWAP1 POP PUSH1 0x1 DUP3 AND DUP1 PUSH2 0x695 JUMPI PUSH1 0x7F DUP3 AND SWAP2 POP JUMPDEST PUSH1 0x20 DUP3 LT DUP2 SUB PUSH2 0x6A8 JUMPI PUSH2 0x6A7 PUSH2 0x651 JUMP JUMPDEST JUMPDEST POP SWAP2 SWAP1 POP JUMP JUMPDEST PUSH32 0x4E487B7100000000000000000000000000000000000000000000000000000000 PUSH0 MSTORE PUSH1 0x11 PUSH1 0x4 MSTORE PUSH1 0x24 PUSH0 REVERT JUMPDEST PUSH0 PUSH2 0x6E5 DUP3 PUSH2 0x358 JUMP JUMPDEST SWAP2 POP PUSH32 0xFFFFFFFFFFFFFFFFFFFFFFFFFFFFFFFFFFFFFFFFFFFFFFFFFFFFFFFFFFFFFFFF DUP3 SUB PUSH2 0x717 JUMPI PUSH2 0x716 PUSH2 0x6AE JUMP JUMPDEST JUMPDEST PUSH1 0x1 DUP3 ADD SWAP1 POP SWAP2 SWAP1 POP JUMP JUMPDEST PUSH0 DUP2 SWAP1 POP DUP2 PUSH0 MSTORE PUSH1 0x20 PUSH0 KECCAK256 SWAP1 POP SWAP2 SWAP1 POP JUMP JUMPDEST PUSH0 PUSH1 0x20 PUSH1 0x1F DUP4 ADD DIV SWAP1 POP SWAP2 SWAP1 POP JUMP JUMPDEST PUSH0 DUP3 DUP3 SHL SWAP1 POP SWAP3 SWAP2 POP POP JUMP JUMPDEST PUSH0 PUSH1 0x8 DUP4 MUL PUSH2 0x77E PUSH32 0xFFFFFFFFFFFFFFFFFFFFFFFFFFFFFFFFFFFFFFFFFFFFFFFFFFFFFFFFFFFFFFFF DUP3 PUSH2 0x743 JUMP JUMPDEST PUSH2 0x788 DUP7 DUP4 PUSH2 0x743 JUMP JUMPDEST SWAP6 POP DUP1 NOT DUP5 AND SWAP4 POP DUP1 DUP7 AND DUP5 OR SWAP3 POP POP POP SWAP4 SWAP3 POP POP POP JUMP JUMPDEST PUSH0 DUP2 SWAP1 POP SWAP2 SWAP1 POP JUMP JUMPDEST PUSH0 PUSH2 0x7C3 PUSH2 0x7BE PUSH2 0x7B9 DUP5 PUSH2 0x358 JUMP JUMPDEST PUSH2 0x7A0 JUMP JUMPDEST PUSH2 0x358 JUMP JUMPDEST SWAP1 POP SWAP2 SWAP1 POP JUMP JUMPDEST PUSH0 DUP2 SWAP1 POP SWAP2 SWAP1 POP JUMP JUMPDEST PUSH2 0x7DC DUP4 PUSH2 0x7A9 JUMP JUMPDEST PUSH2 0x7F0 PUSH2 0x7E8 DUP3 PUSH2 0x7CA JUMP JUMPDEST DUP5 DUP5 SLOAD PUSH2 0x74F JUMP JUMPDEST DUP3 SSTORE POP POP POP POP JUMP JUMPDEST PUSH0 PUSH0 SWAP1 POP SWAP1 JUMP JUMPDEST PUSH2 0x807 PUSH2 0x7F8 JUMP JUMPDEST PUSH2 0x812 DUP2 DUP5 DUP5 PUSH2 0x7D3 JUMP JUMPDEST POP POP POP JUMP JUMPDEST JUMPDEST DUP2 DUP2 LT ISZERO PUSH2 0x835 JUMPI PUSH2 0x82A PUSH0 DUP3 PUSH2 0x7FF JUMP JUMPDEST PUSH1 0x1 DUP2 ADD SWAP1 POP PUSH2 0x818 JUMP JUMPDEST POP POP JUMP JUMPDEST PUSH1 0x1F DUP3 GT ISZERO PUSH2 0x87A JUMPI PUSH2 0x84B DUP2 PUSH2 0x722 JUMP JUMPDEST PUSH2 0x854 DUP5 PUSH2 0x734 JUMP JUMPDEST DUP2 ADD PUSH1 0x20 DUP6 LT ISZERO PUSH2 0x863 JUMPI DUP2 SWAP1 POP JUMPDEST PUSH2 0x877 PUSH2 0x86F DUP6 PUSH2 0x734 JUMP JUMPDEST DUP4 ADD DUP3 PUSH2 0x817 JUMP JUMPDEST POP POP JUMPDEST POP POP POP JUMP JUMPDEST PUSH0 DUP3 DUP3 SHR SWAP1 POP SWAP3 SWAP2 POP POP JUMP JUMPDEST PUSH0 PUSH2 0x89A PUSH0 NOT DUP5 PUSH1 0x8 MUL PUSH2 0x87F JUMP JUMPDEST NOT DUP1 DUP4 AND SWAP2 POP POP SWAP3 SWAP2 POP POP JUMP JUMPDEST PUSH0 PUSH2 0x8B2 DUP4 DUP4 PUSH2 0x88B JUMP JUMPDEST SWAP2 POP DUP3 PUSH1 0x2 MUL DUP3 OR SWAP1 POP SWAP3 SWAP2 POP POP JUMP JUMPDEST PUSH2 0x8CB DUP3 PUSH2 0x3EF JUMP JUMPDEST PUSH8 0xFFFFFFFFFFFFFFFF DUP2 GT ISZERO PUSH2 0x8E4 JUMPI PUSH2 0x8E3 PUSH2 0x495 JUMP JUMPDEST JUMPDEST PUSH2 0x8EE DUP3 SLOAD PUSH2 0x67E JUMP JUMPDEST PUSH2 0x8F9 DUP3 DUP3 DUP6 PUSH2 0x839 JUMP JUMPDEST PUSH0 PUSH1 0x20 SWAP1 POP PUSH1 0x1F DUP4 GT PUSH1 0x1 DUP2 EQ PUSH2 0x92A JUMPI PUSH0 DUP5 ISZERO PUSH2 0x918 JUMPI DUP3 DUP8 ADD MLOAD SWAP1 POP JUMPDEST PUSH2 0x922 DUP6 DUP3 PUSH2 0x8A7 JUMP JUMPDEST DUP7 SSTORE POP PUSH2 0x989 JUMP JUMPDEST PUSH1 0x1F NOT DUP5 AND PUSH2 0x938 DUP7 PUSH2 0x722 JUMP JUMPDEST PUSH0 JUMPDEST DUP3 DUP2 LT ISZERO PUSH2 0x95F JUMPI DUP5 DUP10 ADD MLOAD DUP3 SSTORE PUSH1 0x1 DUP3 ADD SWAP2 POP PUSH1 0x20 DUP6 ADD SWAP5 POP PUSH1 0x20 DUP2 ADD SWAP1 POP PUSH2 0x93A JUMP JUMPDEST DUP7 DUP4 LT ISZERO PUSH2 0x97C JUMPI DUP5 DUP10 ADD MLOAD PUSH2 0x978 PUSH1 0x1F DUP10 AND DUP3 PUSH2 0x88B JUMP JUMPDEST DUP4 SSTORE POP JUMPDEST PUSH1 0x1 PUSH1 0x2 DUP9 MUL ADD DUP9 SSTORE POP POP POP JUMPDEST POP POP POP POP POP POP JUMP JUMPDEST PUSH32 0x73747564656E74206E6520706F73746F6A690000000000000000000000000000 PUSH0 DUP3 ADD MSTORE POP JUMP JUMPDEST PUSH0 PUSH2 0x9C5 PUSH1 0x12 DUP4 PUSH2 0x3F9 JUMP JUMPDEST SWAP2 POP PUSH2 0x9D0 DUP3 PUSH2 0x991 JUMP JUMPDEST PUSH1 0x20 DUP3 ADD SWAP1 POP SWAP2 SWAP1 POP JUMP JUMPDEST PUSH0 PUSH1 0x20 DUP3 ADD SWAP1 POP DUP2 DUP2 SUB PUSH0 DUP4 ADD MSTORE PUSH2 0x9F2 DUP2 PUSH2 0x9B9 JUMP JUMPDEST SWAP1 POP SWAP2 SWAP1 POP JUMP INVALID LOG2 PUSH5 0x6970667358 0x22 SLT KECCAK256 SDIV EXTCODEHASH 0xD8 0xD4 PUSH15 0x2B5986A02F931BDFA0D646B8A71643 SLOAD DUP3 BYTE LT LOG4 PUSH9 0xAAE0D9F611E864736F PUSH13 0x634300081E0033000000000000 "
				},
				"gasEstimates": {
					"creation": {
						"codeDepositCost": "521400",
						"executionCost": "554",
						"totalCost": "521954"
					},
					"external": {
						"addStudent(string,uint256)": "infinite",
						"count()": "2403",
						"getStudent(uint256)": "infinite",
						"students(uint256)": "infinite",
						"updateGrade(uint256,uint256)": "infinite"
					}
				},
				"methodIdentifiers": {
					"addStudent(string,uint256)": "0e5eeef7",
					"count()": "06661abd",
					"getStudent(uint256)": "642f9163",
					"students(uint256)": "06ead22e",
					"updateGrade(uint256,uint256)": "50bf95ce"
				}
			},
			"storageLayout": {
				"storage": [
					{
						"astId": 11,
						"contract": "vjezba2-remix ide/StudentRecords.sol:StudentRecord",
						"label": "students",
						"offset": 0,
						"slot": "0",
						"type": "t_mapping(t_uint256,t_struct(Student)6_storage)"
					},
					{
						"astId": 13,
						"contract": "vjezba2-remix ide/StudentRecords.sol:StudentRecord",
						"label": "count",
						"offset": 0,
						"slot": "1",
						"type": "t_uint256"
					}
				],
				"types": {
					"t_mapping(t_uint256,t_struct(Student)6_storage)": {
						"encoding": "mapping",
						"key": "t_uint256",
						"label": "mapping(uint256 => struct StudentRecord.Student)",
						"numberOfBytes": "32",
						"value": "t_struct(Student)6_storage"
					},
					"t_string_storage": {
						"encoding": "bytes",
						"label": "string",
						"numberOfBytes": "32"
					},
					"t_struct(Student)6_storage": {
						"encoding": "inplace",
						"label": "struct StudentRecord.Student",
						"members": [
							{
								"astId": 3,
								"contract": "vjezba2-remix ide/StudentRecords.sol:StudentRecord",
								"label": "name",
								"offset": 0,
								"slot": "0",
								"type": "t_string_storage"
							},
							{
								"astId": 5,
								"contract": "vjezba2-remix ide/StudentRecords.sol:StudentRecord",
								"label": "grade",
								"offset": 0,
								"slot": "1",
								"type": "t_uint256"
							}
						],
						"numberOfBytes": "64"
					},
					"t_uint256": {
						"encoding": "inplace",
						"label": "uint256",
						"numberOfBytes": "32"
					}
				}
			},
			"userdoc": {
				"kind": "user",
				"methods": {},
				"version": 1
			}
		}
	}
}