{
	"Crowdfunding/CrowFunding.sol": {
		"CrowdFund": {
			"abi": [
				{
					"inputs": [
						{
							"internalType": "uint256",
							"name": "_goal",
							"type": "uint256"
						},
						{
							"internalType": "uint256",
							"name": "_durationMinutes",
							"type": "uint256"
						}
					],
					"stateMutability": "nonpayable",
					"type": "constructor"
				},
				{
					"anonymous": false,
					"inputs": [
						{
							"indexed": true,
							"internalType": "address",
							"name": "donor",
							"type": "address"
						},
						{
							"indexed": false,
							"internalType": "uint256",
							"name": "amount",
							"type": "uint256"
						}
					],
					"name": "Donation",
					"type": "event"
				},
				{
					"anonymous": false,
					"inputs": [
						{
							"indexed": true,
							"internalType": "address",
							"name": "owner",
							"type": "address"
						},
						{
							"indexed": false,
							"internalType": "uint256",
							"name": "amount",
							"type": "uint256"
						}
					],
					"name": "FundsWithdrawn",
					"type": "event"
				},
				{
					"anonymous": false,
					"inputs": [
						{
							"indexed": true,
							"internalType": "address",
							"name": "donor",
							"type": "address"
						},
						{
							"indexed": false,
							"internalType": "uint256",
							"name": "amount",
							"type": "uint256"
						}
					],
					"name": "RefundIssued",
					"type": "event"
				},
				{
					"inputs": [
						{
							"internalType": "address",
							"name": "",
							"type": "address"
						}
					],
					"name": "contributions",
					"outputs": [
						{
							"internalType": "uint256",
							"name": "",
							"type": "uint256"
						}
					],
					"stateMutability": "view",
					"type": "function"
				},
				{
					"inputs": [],
					"name": "deadline",
					"outputs": [
						{
							"internalType": "uint256",
							"name": "",
							"type": "uint256"
						}
					],
					"stateMutability": "view",
					"type": "function"
				},
				{
					"inputs": [],
					"name": "donate",
					"outputs": [],
					"stateMutability": "payable",
					"type": "function"
				},
				{
					"inputs": [],
					"name": "fundsWithdrawn",
					"outputs": [
						{
							"internalType": "bool",
							"name": "",
							"type": "bool"
						}
					],
					"stateMutability": "view",
					"type": "function"
				},
				{
					"inputs": [],
					"name": "getBalance",
					"outputs": [
						{
							"internalType": "uint256",
							"name": "",
							"type": "uint256"
						}
					],
					"stateMutability": "view",
					"type": "function"
				},
				{
					"inputs": [],
					"name": "getTimeLeft",
					"outputs": [
						{
							"internalType": "uint256",
							"name": "",
							"type": "uint256"
						}
					],
					"stateMutability": "view",
					"type": "function"
				},
				{
					"inputs": [],
					"name": "goal",
					"outputs": [
						{
							"internalType": "uint256",
							"name": "",
							"type": "uint256"
						}
					],
					"stateMutability": "view",
					"type": "function"
				},
				{
					"inputs": [],
					"name": "goalReached",
					"outputs": [
						{
							"internalType": "bool",
							"name": "",
							"type": "bool"
						}
					],
					"stateMutability": "view",
					"type": "function"
				},
				{
					"inputs": [],
					"name": "owner",
					"outputs": [
						{
							"internalType": "address",
							"name": "",
							"type": "address"
						}
					],
					"stateMutability": "view",
					"type": "function"
				},
				{
					"inputs": [],
					"name": "refund",
					"outputs": [],
					"stateMutability": "nonpayable",
					"type": "function"
				},
				{
					"inputs": [],
					"name": "totalRaised",
					"outputs": [
						{
							"internalType": "uint256",
							"name": "",
							"type": "uint256"
						}
					],
					"stateMutability": "view",
					"type": "function"
				},
				{
					"inputs": [],
					"name": "withdrawFunds",
					"outputs": [],
					"stateMutability": "nonpayable",
					"type": "function"
				}
			],
			"devdoc": {
				"kind": "dev",
				"methods": {},
				"version": 1
			},
			"evm": {
				"assembly": "    /* \"Crowdfunding/CrowFunding.sol\":58:2612  contract CrowdFund {... */\n  mstore(0x40, 0x80)\n    /* \"Crowdfunding/CrowFunding.sol\":850:1109  constructor(uint _goal, uint _durationMinutes) {... */\n  callvalue\n  dup1\n  iszero\n  tag_1\n  jumpi\n  revert(0x00, 0x00)\ntag_1:\n  pop\n  mload(0x40)\n  sub(codesize, bytecodeSize)\n  dup1\n  bytecodeSize\n  dup4\n  codecopy\n  dup2\n  dup2\n  add\n  0x40\n  mstore\n  dup2\n  add\n  swap1\n  tag_2\n  swap2\n  swap1\n  tag_3\n  jump\t// in\ntag_2:\n    /* \"Crowdfunding/CrowFunding.sol\":915:925  msg.sender */\n  caller\n    /* \"Crowdfunding/CrowFunding.sol\":907:912  owner */\n  0x00\n  0x00\n    /* \"Crowdfunding/CrowFunding.sol\":907:925  owner = msg.sender */\n  0x0100\n  exp\n  dup2\n  sload\n  dup2\n  0xffffffffffffffffffffffffffffffffffffffff\n  mul\n  not\n  and\n  swap1\n  dup4\n  0xffffffffffffffffffffffffffffffffffffffff\n  and\n  mul\n  or\n  swap1\n  sstore\n  pop\n    /* \"Crowdfunding/CrowFunding.sol\":942:947  _goal */\n  dup2\n    /* \"Crowdfunding/CrowFunding.sol\":935:939  goal */\n  0x01\n    /* \"Crowdfunding/CrowFunding.sol\":935:947  goal = _goal */\n  dup2\n  swap1\n  sstore\n  pop\n    /* \"Crowdfunding/CrowFunding.sol\":1006:1015  1 minutes */\n  0x3c\n    /* \"Crowdfunding/CrowFunding.sol\":987:1003  _durationMinutes */\n  dup2\n    /* \"Crowdfunding/CrowFunding.sol\":987:1015  _durationMinutes * 1 minutes */\n  tag_6\n  swap2\n  swap1\n  tag_7\n  jump\t// in\ntag_6:\n    /* \"Crowdfunding/CrowFunding.sol\":968:983  block.timestamp */\n  timestamp\n    /* \"Crowdfunding/CrowFunding.sol\":968:1016  block.timestamp + (_durationMinutes * 1 minutes) */\n  tag_8\n  swap2\n  swap1\n  tag_9\n  jump\t// in\ntag_8:\n    /* \"Crowdfunding/CrowFunding.sol\":957:965  deadline */\n  0x02\n    /* \"Crowdfunding/CrowFunding.sol\":957:1016  deadline = block.timestamp + (_durationMinutes * 1 minutes) */\n  dup2\n  swap1\n  sstore\n  pop\n    /* \"Crowdfunding/CrowFunding.sol\":1040:1041  0 */\n  0x00\n    /* \"Crowdfunding/CrowFunding.sol\":1026:1037  totalRaised */\n  0x03\n    /* \"Crowdfunding/CrowFunding.sol\":1026:1041  totalRaised = 0 */\n  dup2\n  swap1\n  sstore\n  pop\n    /* \"Crowdfunding/CrowFunding.sol\":1065:1070  false */\n  0x00\n    /* \"Crowdfunding/CrowFunding.sol\":1051:1062  goalReached */\n  0x04\n  0x00\n    /* \"Crowdfunding/CrowFunding.sol\":1051:1070  goalReached = false */\n  0x0100\n  exp\n  dup2\n  sload\n  dup2\n  0xff\n  mul\n  not\n  and\n  swap1\n  dup4\n  iszero\n  iszero\n  mul\n  or\n  swap1\n  sstore\n  pop\n    /* \"Crowdfunding/CrowFunding.sol\":1097:1102  false */\n  0x00\n    /* \"Crowdfunding/CrowFunding.sol\":1080:1094  fundsWithdrawn */\n  0x04\n  0x01\n    /* \"Crowdfunding/CrowFunding.sol\":1080:1102  fundsWithdrawn = false */\n  0x0100\n  exp\n  dup2\n  sload\n  dup2\n  0xff\n  mul\n  not\n  and\n  swap1\n  dup4\n  iszero\n  iszero\n  mul\n  or\n  swap1\n  sstore\n  pop\n    /* \"Crowdfunding/CrowFunding.sol\":850:1109  constructor(uint _goal, uint _durationMinutes) {... */\n  pop\n  pop\n    /* \"Crowdfunding/CrowFunding.sol\":58:2612  contract CrowdFund {... */\n  jump(tag_10)\n    /* \"#utility.yul\":88:205   */\ntag_12:\n    /* \"#utility.yul\":197:198   */\n  0x00\n    /* \"#utility.yul\":194:195   */\n  0x00\n    /* \"#utility.yul\":187:199   */\n  revert\n    /* \"#utility.yul\":334:411   */\ntag_14:\n    /* \"#utility.yul\":371:378   */\n  0x00\n    /* \"#utility.yul\":400:405   */\n  dup2\n    /* \"#utility.yul\":389:405   */\n  swap1\n  pop\n    /* \"#utility.yul\":334:411   */\n  swap2\n  swap1\n  pop\n  jump\t// out\n    /* \"#utility.yul\":417:539   */\ntag_15:\n    /* \"#utility.yul\":490:514   */\n  tag_24\n    /* \"#utility.yul\":508:513   */\n  dup2\n    /* \"#utility.yul\":490:514   */\n  tag_14\n  jump\t// in\ntag_24:\n    /* \"#utility.yul\":483:488   */\n  dup2\n    /* \"#utility.yul\":480:515   */\n  eq\n    /* \"#utility.yul\":470:533   */\n  tag_25\n  jumpi\n    /* \"#utility.yul\":529:530   */\n  0x00\n    /* \"#utility.yul\":526:527   */\n  0x00\n    /* \"#utility.yul\":519:531   */\n  revert\n    /* \"#utility.yul\":470:533   */\ntag_25:\n    /* \"#utility.yul\":417:539   */\n  pop\n  jump\t// out\n    /* \"#utility.yul\":545:688   */\ntag_16:\n    /* \"#utility.yul\":602:607   */\n  0x00\n    /* \"#utility.yul\":633:639   */\n  dup2\n    /* \"#utility.yul\":627:640   */\n  mload\n    /* \"#utility.yul\":618:640   */\n  swap1\n  pop\n    /* \"#utility.yul\":649:682   */\n  tag_27\n    /* \"#utility.yul\":676:681   */\n  dup2\n    /* \"#utility.yul\":649:682   */\n  tag_15\n  jump\t// in\ntag_27:\n    /* \"#utility.yul\":545:688   */\n  swap3\n  swap2\n  pop\n  pop\n  jump\t// out\n    /* \"#utility.yul\":694:1201   */\ntag_3:\n    /* \"#utility.yul\":773:779   */\n  0x00\n    /* \"#utility.yul\":781:787   */\n  0x00\n    /* \"#utility.yul\":830:832   */\n  0x40\n    /* \"#utility.yul\":818:827   */\n  dup4\n    /* \"#utility.yul\":809:816   */\n  dup6\n    /* \"#utility.yul\":805:828   */\n  sub\n    /* \"#utility.yul\":801:833   */\n  slt\n    /* \"#utility.yul\":798:917   */\n  iszero\n  tag_29\n  jumpi\n    /* \"#utility.yul\":836:915   */\n  tag_30\n  tag_12\n  jump\t// in\ntag_30:\n    /* \"#utility.yul\":798:917   */\ntag_29:\n    /* \"#utility.yul\":956:957   */\n  0x00\n    /* \"#utility.yul\":981:1045   */\n  tag_31\n    /* \"#utility.yul\":1037:1044   */\n  dup6\n    /* \"#utility.yul\":1028:1034   */\n  dup3\n    /* \"#utility.yul\":1017:1026   */\n  dup7\n    /* \"#utility.yul\":1013:1035   */\n  add\n    /* \"#utility.yul\":981:1045   */\n  tag_16\n  jump\t// in\ntag_31:\n    /* \"#utility.yul\":971:1045   */\n  swap3\n  pop\n    /* \"#utility.yul\":927:1055   */\n  pop\n    /* \"#utility.yul\":1094:1096   */\n  0x20\n    /* \"#utility.yul\":1120:1184   */\n  tag_32\n    /* \"#utility.yul\":1176:1183   */\n  dup6\n    /* \"#utility.yul\":1167:1173   */\n  dup3\n    /* \"#utility.yul\":1156:1165   */\n  dup7\n    /* \"#utility.yul\":1152:1174   */\n  add\n    /* \"#utility.yul\":1120:1184   */\n  tag_16\n  jump\t// in\ntag_32:\n    /* \"#utility.yul\":1110:1184   */\n  swap2\n  pop\n    /* \"#utility.yul\":1065:1194   */\n  pop\n    /* \"#utility.yul\":694:1201   */\n  swap3\n  pop\n  swap3\n  swap1\n  pop\n  jump\t// out\n    /* \"#utility.yul\":1207:1387   */\ntag_17:\n    /* \"#utility.yul\":1255:1332   */\n  0x4e487b7100000000000000000000000000000000000000000000000000000000\n    /* \"#utility.yul\":1252:1253   */\n  0x00\n    /* \"#utility.yul\":1245:1333   */\n  mstore\n    /* \"#utility.yul\":1352:1356   */\n  0x11\n    /* \"#utility.yul\":1349:1350   */\n  0x04\n    /* \"#utility.yul\":1342:1357   */\n  mstore\n    /* \"#utility.yul\":1376:1380   */\n  0x24\n    /* \"#utility.yul\":1373:1374   */\n  0x00\n    /* \"#utility.yul\":1366:1381   */\n  revert\n    /* \"#utility.yul\":1393:1803   */\ntag_7:\n    /* \"#utility.yul\":1433:1440   */\n  0x00\n    /* \"#utility.yul\":1456:1476   */\n  tag_35\n    /* \"#utility.yul\":1474:1475   */\n  dup3\n    /* \"#utility.yul\":1456:1476   */\n  tag_14\n  jump\t// in\ntag_35:\n    /* \"#utility.yul\":1451:1476   */\n  swap2\n  pop\n    /* \"#utility.yul\":1490:1510   */\n  tag_36\n    /* \"#utility.yul\":1508:1509   */\n  dup4\n    /* \"#utility.yul\":1490:1510   */\n  tag_14\n  jump\t// in\ntag_36:\n    /* \"#utility.yul\":1485:1510   */\n  swap3\n  pop\n    /* \"#utility.yul\":1545:1546   */\n  dup3\n    /* \"#utility.yul\":1542:1543   */\n  dup3\n    /* \"#utility.yul\":1538:1547   */\n  mul\n    /* \"#utility.yul\":1567:1597   */\n  tag_37\n    /* \"#utility.yul\":1585:1596   */\n  dup2\n    /* \"#utility.yul\":1567:1597   */\n  tag_14\n  jump\t// in\ntag_37:\n    /* \"#utility.yul\":1556:1597   */\n  swap2\n  pop\n    /* \"#utility.yul\":1746:1747   */\n  dup3\n    /* \"#utility.yul\":1737:1744   */\n  dup3\n    /* \"#utility.yul\":1733:1748   */\n  div\n    /* \"#utility.yul\":1730:1731   */\n  dup5\n    /* \"#utility.yul\":1727:1749   */\n  eq\n    /* \"#utility.yul\":1707:1708   */\n  dup4\n    /* \"#utility.yul\":1700:1709   */\n  iszero\n    /* \"#utility.yul\":1680:1763   */\n  or\n    /* \"#utility.yul\":1657:1796   */\n  tag_38\n  jumpi\n    /* \"#utility.yul\":1776:1794   */\n  tag_39\n  tag_17\n  jump\t// in\ntag_39:\n    /* \"#utility.yul\":1657:1796   */\ntag_38:\n    /* \"#utility.yul\":1441:1803   */\n  pop\n    /* \"#utility.yul\":1393:1803   */\n  swap3\n  swap2\n  pop\n  pop\n  jump\t// out\n    /* \"#utility.yul\":1809:2000   */\ntag_9:\n    /* \"#utility.yul\":1849:1852   */\n  0x00\n    /* \"#utility.yul\":1868:1888   */\n  tag_41\n    /* \"#utility.yul\":1886:1887   */\n  dup3\n    /* \"#utility.yul\":1868:1888   */\n  tag_14\n  jump\t// in\ntag_41:\n    /* \"#utility.yul\":1863:1888   */\n  swap2\n  pop\n    /* \"#utility.yul\":1902:1922   */\n  tag_42\n    /* \"#utility.yul\":1920:1921   */\n  dup4\n    /* \"#utility.yul\":1902:1922   */\n  tag_14\n  jump\t// in\ntag_42:\n    /* \"#utility.yul\":1897:1922   */\n  swap3\n  pop\n    /* \"#utility.yul\":1945:1946   */\n  dup3\n    /* \"#utility.yul\":1942:1943   */\n  dup3\n    /* \"#utility.yul\":1938:1947   */\n  add\n    /* \"#utility.yul\":1931:1947   */\n  swap1\n  pop\n    /* \"#utility.yul\":1966:1969   */\n  dup1\n    /* \"#utility.yul\":1963:1964   */\n  dup3\n    /* \"#utility.yul\":1960:1970   */\n  gt\n    /* \"#utility.yul\":1957:1993   */\n  iszero\n  tag_43\n  jumpi\n    /* \"#utility.yul\":1973:1991   */\n  tag_44\n  tag_17\n  jump\t// in\ntag_44:\n    /* \"#utility.yul\":1957:1993   */\ntag_43:\n    /* \"#utility.yul\":1809:2000   */\n  swap3\n  swap2\n  pop\n  pop\n  jump\t// out\n    /* \"Crowdfunding/CrowFunding.sol\":58:2612  contract CrowdFund {... */\ntag_10:\n  dataSize(sub_0)\n  dup1\n  dataOffset(sub_0)\n  0x00\n  codecopy\n  0x00\n  return\nstop\n\nsub_0: assembly {\n        /* \"Crowdfunding/CrowFunding.sol\":58:2612  contract CrowdFund {... */\n      mstore(0x40, 0x80)\n      jumpi(tag_1, lt(calldatasize, 0x04))\n      shr(0xe0, calldataload(0x00))\n      dup1\n      0x7d3d6522\n      gt\n      tag_14\n      jumpi\n      dup1\n      0x7d3d6522\n      eq\n      tag_8\n      jumpi\n      dup1\n      0x8da5cb5b\n      eq\n      tag_9\n      jumpi\n      dup1\n      0xac307fcf\n      eq\n      tag_10\n      jumpi\n      dup1\n      0xc5c4744c\n      eq\n      tag_11\n      jumpi\n      dup1\n      0xc7e284b8\n      eq\n      tag_12\n      jumpi\n      dup1\n      0xed88c68e\n      eq\n      tag_13\n      jumpi\n      jump(tag_1)\n    tag_14:\n      dup1\n      0x12065fe0\n      eq\n      tag_2\n      jumpi\n      dup1\n      0x24600fc3\n      eq\n      tag_3\n      jumpi\n      dup1\n      0x29dcb0cf\n      eq\n      tag_4\n      jumpi\n      dup1\n      0x40193883\n      eq\n      tag_5\n      jumpi\n      dup1\n      0x42e94c90\n      eq\n      tag_6\n      jumpi\n      dup1\n      0x590e1ae3\n      eq\n      tag_7\n      jumpi\n    tag_1:\n      revert(0x00, 0x00)\n        /* \"Crowdfunding/CrowFunding.sol\":2327:2423  function getBalance() external view returns (uint) {... */\n    tag_2:\n      callvalue\n      dup1\n      iszero\n      tag_15\n      jumpi\n      revert(0x00, 0x00)\n    tag_15:\n      pop\n      tag_16\n      tag_17\n      jump\t// in\n    tag_16:\n      mload(0x40)\n      tag_18\n      swap2\n      swap1\n      tag_19\n      jump\t// in\n    tag_18:\n      mload(0x40)\n      dup1\n      swap2\n      sub\n      swap1\n      return\n        /* \"Crowdfunding/CrowFunding.sol\":1460:1871  function withdrawFunds() external onlyOwner campaignEnded {... */\n    tag_3:\n      callvalue\n      dup1\n      iszero\n      tag_20\n      jumpi\n      revert(0x00, 0x00)\n    tag_20:\n      pop\n      tag_21\n      tag_22\n      jump\t// in\n    tag_21:\n      stop\n        /* \"Crowdfunding/CrowFunding.sol\":136:156  uint public deadline */\n    tag_4:\n      callvalue\n      dup1\n      iszero\n      tag_23\n      jumpi\n      revert(0x00, 0x00)\n    tag_23:\n      pop\n      tag_24\n      tag_25\n      jump\t// in\n    tag_24:\n      mload(0x40)\n      tag_26\n      swap2\n      swap1\n      tag_19\n      jump\t// in\n    tag_26:\n      mload(0x40)\n      dup1\n      swap2\n      sub\n      swap1\n      return\n        /* \"Crowdfunding/CrowFunding.sol\":114:130  uint public goal */\n    tag_5:\n      callvalue\n      dup1\n      iszero\n      tag_27\n      jumpi\n      revert(0x00, 0x00)\n    tag_27:\n      pop\n      tag_28\n      tag_29\n      jump\t// in\n    tag_28:\n      mload(0x40)\n      tag_30\n      swap2\n      swap1\n      tag_19\n      jump\t// in\n    tag_30:\n      mload(0x40)\n      dup1\n      swap2\n      sub\n      swap1\n      return\n        /* \"Crowdfunding/CrowFunding.sol\":253:298  mapping(address => uint) public contributions */\n    tag_6:\n      callvalue\n      dup1\n      iszero\n      tag_31\n      jumpi\n      revert(0x00, 0x00)\n    tag_31:\n      pop\n      tag_32\n      0x04\n      dup1\n      calldatasize\n      sub\n      dup2\n      add\n      swap1\n      tag_33\n      swap2\n      swap1\n      tag_34\n      jump\t// in\n    tag_33:\n      tag_35\n      jump\t// in\n    tag_32:\n      mload(0x40)\n      tag_36\n      swap2\n      swap1\n      tag_19\n      jump\t// in\n    tag_36:\n      mload(0x40)\n      dup1\n      swap2\n      sub\n      swap1\n      return\n        /* \"Crowdfunding/CrowFunding.sol\":1882:2316  function refund() external campaignEnded {... */\n    tag_7:\n      callvalue\n      dup1\n      iszero\n      tag_37\n      jumpi\n      revert(0x00, 0x00)\n    tag_37:\n      pop\n      tag_38\n      tag_39\n      jump\t// in\n    tag_38:\n      stop\n        /* \"Crowdfunding/CrowFunding.sol\":191:214  bool public goalReached */\n    tag_8:\n      callvalue\n      dup1\n      iszero\n      tag_40\n      jumpi\n      revert(0x00, 0x00)\n    tag_40:\n      pop\n      tag_41\n      tag_42\n      jump\t// in\n    tag_41:\n      mload(0x40)\n      tag_43\n      swap2\n      swap1\n      tag_44\n      jump\t// in\n    tag_43:\n      mload(0x40)\n      dup1\n      swap2\n      sub\n      swap1\n      return\n        /* \"Crowdfunding/CrowFunding.sol\":88:108  address public owner */\n    tag_9:\n      callvalue\n      dup1\n      iszero\n      tag_45\n      jumpi\n      revert(0x00, 0x00)\n    tag_45:\n      pop\n      tag_46\n      tag_47\n      jump\t// in\n    tag_46:\n      mload(0x40)\n      tag_48\n      swap2\n      swap1\n      tag_49\n      jump\t// in\n    tag_48:\n      mload(0x40)\n      dup1\n      swap2\n      sub\n      swap1\n      return\n        /* \"Crowdfunding/CrowFunding.sol\":220:246  bool public fundsWithdrawn */\n    tag_10:\n      callvalue\n      dup1\n      iszero\n      tag_50\n      jumpi\n      revert(0x00, 0x00)\n    tag_50:\n      pop\n      tag_51\n      tag_52\n      jump\t// in\n    tag_51:\n      mload(0x40)\n      tag_53\n      swap2\n      swap1\n      tag_44\n      jump\t// in\n    tag_53:\n      mload(0x40)\n      dup1\n      swap2\n      sub\n      swap1\n      return\n        /* \"Crowdfunding/CrowFunding.sol\":162:185  uint public totalRaised */\n    tag_11:\n      callvalue\n      dup1\n      iszero\n      tag_54\n      jumpi\n      revert(0x00, 0x00)\n    tag_54:\n      pop\n      tag_55\n      tag_56\n      jump\t// in\n    tag_55:\n      mload(0x40)\n      tag_57\n      swap2\n      swap1\n      tag_19\n      jump\t// in\n    tag_57:\n      mload(0x40)\n      dup1\n      swap2\n      sub\n      swap1\n      return\n        /* \"Crowdfunding/CrowFunding.sol\":2434:2610  function getTimeLeft() external view returns (uint) {... */\n    tag_12:\n      callvalue\n      dup1\n      iszero\n      tag_58\n      jumpi\n      revert(0x00, 0x00)\n    tag_58:\n      pop\n      tag_59\n      tag_60\n      jump\t// in\n    tag_59:\n      mload(0x40)\n      tag_61\n      swap2\n      swap1\n      tag_19\n      jump\t// in\n    tag_61:\n      mload(0x40)\n      dup1\n      swap2\n      sub\n      swap1\n      return\n        /* \"Crowdfunding/CrowFunding.sol\":1120:1450  function donate() external payable campaignActive {... */\n    tag_13:\n      tag_62\n      tag_63\n      jump\t// in\n    tag_62:\n      stop\n        /* \"Crowdfunding/CrowFunding.sol\":2327:2423  function getBalance() external view returns (uint) {... */\n    tag_17:\n        /* \"Crowdfunding/CrowFunding.sol\":2372:2376  uint */\n      0x00\n        /* \"Crowdfunding/CrowFunding.sol\":2395:2416  address(this).balance */\n      selfbalance\n        /* \"Crowdfunding/CrowFunding.sol\":2388:2416  return address(this).balance */\n      swap1\n      pop\n        /* \"Crowdfunding/CrowFunding.sol\":2327:2423  function getBalance() external view returns (uint) {... */\n      swap1\n      jump\t// out\n        /* \"Crowdfunding/CrowFunding.sol\":1460:1871  function withdrawFunds() external onlyOwner campaignEnded {... */\n    tag_22:\n        /* \"Crowdfunding/CrowFunding.sol\":542:547  owner */\n      0x00\n      0x00\n      swap1\n      sload\n      swap1\n      0x0100\n      exp\n      swap1\n      div\n      0xffffffffffffffffffffffffffffffffffffffff\n      and\n        /* \"Crowdfunding/CrowFunding.sol\":528:547  msg.sender == owner */\n      0xffffffffffffffffffffffffffffffffffffffff\n      and\n        /* \"Crowdfunding/CrowFunding.sol\":528:538  msg.sender */\n      caller\n        /* \"Crowdfunding/CrowFunding.sol\":528:547  msg.sender == owner */\n      0xffffffffffffffffffffffffffffffffffffffff\n      and\n      eq\n        /* \"Crowdfunding/CrowFunding.sol\":520:590  require(msg.sender == owner, \"Samo vlasnik moze pozvati ovu funkciju\") */\n      tag_66\n      jumpi\n      mload(0x40)\n      0x08c379a000000000000000000000000000000000000000000000000000000000\n      dup2\n      mstore\n      0x04\n      add\n      tag_67\n      swap1\n      tag_68\n      jump\t// in\n    tag_67:\n      mload(0x40)\n      dup1\n      swap2\n      sub\n      swap1\n      revert\n    tag_66:\n        /* \"Crowdfunding/CrowFunding.sol\":795:803  deadline */\n      sload(0x02)\n        /* \"Crowdfunding/CrowFunding.sol\":776:791  block.timestamp */\n      timestamp\n        /* \"Crowdfunding/CrowFunding.sol\":776:803  block.timestamp >= deadline */\n      lt\n      iszero\n        /* \"Crowdfunding/CrowFunding.sol\":768:826  require(block.timestamp >= deadline, \"Kampanja jos traje\") */\n      tag_70\n      jumpi\n      mload(0x40)\n      0x08c379a000000000000000000000000000000000000000000000000000000000\n      dup2\n      mstore\n      0x04\n      add\n      tag_71\n      swap1\n      tag_72\n      jump\t// in\n    tag_71:\n      mload(0x40)\n      dup1\n      swap2\n      sub\n      swap1\n      revert\n    tag_70:\n        /* \"Crowdfunding/CrowFunding.sol\":1536:1547  goalReached */\n      0x04\n      0x00\n      swap1\n      sload\n      swap1\n      0x0100\n      exp\n      swap1\n      div\n      0xff\n      and\n        /* \"Crowdfunding/CrowFunding.sol\":1528:1571  require(goalReached, \"Cilj nije postignut\") */\n      tag_74\n      jumpi\n      mload(0x40)\n      0x08c379a000000000000000000000000000000000000000000000000000000000\n      dup2\n      mstore\n      0x04\n      add\n      tag_75\n      swap1\n      tag_76\n      jump\t// in\n    tag_75:\n      mload(0x40)\n      dup1\n      swap2\n      sub\n      swap1\n      revert\n    tag_74:\n        /* \"Crowdfunding/CrowFunding.sol\":1590:1604  fundsWithdrawn */\n      0x04\n      0x01\n      swap1\n      sload\n      swap1\n      0x0100\n      exp\n      swap1\n      div\n      0xff\n      and\n        /* \"Crowdfunding/CrowFunding.sol\":1589:1604  !fundsWithdrawn */\n      iszero\n        /* \"Crowdfunding/CrowFunding.sol\":1581:1633  require(!fundsWithdrawn, \"Sredstva su vec povucena\") */\n      tag_77\n      jumpi\n      mload(0x40)\n      0x08c379a000000000000000000000000000000000000000000000000000000000\n      dup2\n      mstore\n      0x04\n      add\n      tag_78\n      swap1\n      tag_79\n      jump\t// in\n    tag_78:\n      mload(0x40)\n      dup1\n      swap2\n      sub\n      swap1\n      revert\n    tag_77:\n        /* \"Crowdfunding/CrowFunding.sol\":1661:1665  true */\n      0x01\n        /* \"Crowdfunding/CrowFunding.sol\":1644:1658  fundsWithdrawn */\n      0x04\n      0x01\n        /* \"Crowdfunding/CrowFunding.sol\":1644:1665  fundsWithdrawn = true */\n      0x0100\n      exp\n      dup2\n      sload\n      dup2\n      0xff\n      mul\n      not\n      and\n      swap1\n      dup4\n      iszero\n      iszero\n      mul\n      or\n      swap1\n      sstore\n      pop\n        /* \"Crowdfunding/CrowFunding.sol\":1675:1686  uint amount */\n      0x00\n        /* \"Crowdfunding/CrowFunding.sol\":1689:1710  address(this).balance */\n      selfbalance\n        /* \"Crowdfunding/CrowFunding.sol\":1675:1710  uint amount = address(this).balance */\n      swap1\n      pop\n        /* \"Crowdfunding/CrowFunding.sol\":1721:1733  bool success */\n      0x00\n        /* \"Crowdfunding/CrowFunding.sol\":1739:1744  owner */\n      0x00\n      0x00\n      swap1\n      sload\n      swap1\n      0x0100\n      exp\n      swap1\n      div\n      0xffffffffffffffffffffffffffffffffffffffff\n      and\n        /* \"Crowdfunding/CrowFunding.sol\":1739:1749  owner.call */\n      0xffffffffffffffffffffffffffffffffffffffff\n      and\n        /* \"Crowdfunding/CrowFunding.sol\":1757:1763  amount */\n      dup3\n        /* \"Crowdfunding/CrowFunding.sol\":1739:1768  owner.call{value: amount}(\"\") */\n      mload(0x40)\n      tag_80\n      swap1\n      tag_81\n      jump\t// in\n    tag_80:\n      0x00\n      mload(0x40)\n      dup1\n      dup4\n      sub\n      dup2\n      dup6\n      dup8\n      gas\n      call\n      swap3\n      pop\n      pop\n      pop\n      returndatasize\n      dup1\n      0x00\n      dup2\n      eq\n      tag_84\n      jumpi\n      mload(0x40)\n      swap2\n      pop\n      and(add(returndatasize, 0x3f), not(0x1f))\n      dup3\n      add\n      0x40\n      mstore\n      returndatasize\n      dup3\n      mstore\n      returndatasize\n      0x00\n      0x20\n      dup5\n      add\n      returndatacopy\n      jump(tag_83)\n    tag_84:\n      0x60\n      swap2\n      pop\n    tag_83:\n      pop\n        /* \"Crowdfunding/CrowFunding.sol\":1720:1768  (bool success, ) = owner.call{value: amount}(\"\") */\n      pop\n      swap1\n      pop\n        /* \"Crowdfunding/CrowFunding.sol\":1786:1793  success */\n      dup1\n        /* \"Crowdfunding/CrowFunding.sol\":1778:1819  require(success, \"Povlacenje neuspjesno\") */\n      tag_85\n      jumpi\n      mload(0x40)\n      0x08c379a000000000000000000000000000000000000000000000000000000000\n      dup2\n      mstore\n      0x04\n      add\n      tag_86\n      swap1\n      tag_87\n      jump\t// in\n    tag_86:\n      mload(0x40)\n      dup1\n      swap2\n      sub\n      swap1\n      revert\n    tag_85:\n        /* \"Crowdfunding/CrowFunding.sol\":1850:1855  owner */\n      0x00\n      0x00\n      swap1\n      sload\n      swap1\n      0x0100\n      exp\n      swap1\n      div\n      0xffffffffffffffffffffffffffffffffffffffff\n      and\n        /* \"Crowdfunding/CrowFunding.sol\":1835:1864  FundsWithdrawn(owner, amount) */\n      0xffffffffffffffffffffffffffffffffffffffff\n      and\n      0xeaff4b37086828766ad3268786972c0cd24259d4c87a80f9d3963a3c3d999b0d\n        /* \"Crowdfunding/CrowFunding.sol\":1857:1863  amount */\n      dup4\n        /* \"Crowdfunding/CrowFunding.sol\":1835:1864  FundsWithdrawn(owner, amount) */\n      mload(0x40)\n      tag_88\n      swap2\n      swap1\n      tag_19\n      jump\t// in\n    tag_88:\n      mload(0x40)\n      dup1\n      swap2\n      sub\n      swap1\n      log2\n        /* \"Crowdfunding/CrowFunding.sol\":1518:1871  {... */\n      pop\n      pop\n        /* \"Crowdfunding/CrowFunding.sol\":1460:1871  function withdrawFunds() external onlyOwner campaignEnded {... */\n      jump\t// out\n        /* \"Crowdfunding/CrowFunding.sol\":136:156  uint public deadline */\n    tag_25:\n      sload(0x02)\n      dup2\n      jump\t// out\n        /* \"Crowdfunding/CrowFunding.sol\":114:130  uint public goal */\n    tag_29:\n      sload(0x01)\n      dup2\n      jump\t// out\n        /* \"Crowdfunding/CrowFunding.sol\":253:298  mapping(address => uint) public contributions */\n    tag_35:\n      mstore(0x20, 0x05)\n      dup1\n      0x00\n      mstore\n      keccak256(0x00, 0x40)\n      0x00\n      swap2\n      pop\n      swap1\n      pop\n      sload\n      dup2\n      jump\t// out\n        /* \"Crowdfunding/CrowFunding.sol\":1882:2316  function refund() external campaignEnded {... */\n    tag_39:\n        /* \"Crowdfunding/CrowFunding.sol\":795:803  deadline */\n      sload(0x02)\n        /* \"Crowdfunding/CrowFunding.sol\":776:791  block.timestamp */\n      timestamp\n        /* \"Crowdfunding/CrowFunding.sol\":776:803  block.timestamp >= deadline */\n      lt\n      iszero\n        /* \"Crowdfunding/CrowFunding.sol\":768:826  require(block.timestamp >= deadline, \"Kampanja jos traje\") */\n      tag_90\n      jumpi\n      mload(0x40)\n      0x08c379a000000000000000000000000000000000000000000000000000000000\n      dup2\n      mstore\n      0x04\n      add\n      tag_91\n      swap1\n      tag_72\n      jump\t// in\n    tag_91:\n      mload(0x40)\n      dup1\n      swap2\n      sub\n      swap1\n      revert\n    tag_90:\n        /* \"Crowdfunding/CrowFunding.sol\":1942:1953  goalReached */\n      0x04\n      0x00\n      swap1\n      sload\n      swap1\n      0x0100\n      exp\n      swap1\n      div\n      0xff\n      and\n        /* \"Crowdfunding/CrowFunding.sol\":1941:1953  !goalReached */\n      iszero\n        /* \"Crowdfunding/CrowFunding.sol\":1933:1989  require(!goalReached, \"Cilj je postignut, nema povrata\") */\n      tag_93\n      jumpi\n      mload(0x40)\n      0x08c379a000000000000000000000000000000000000000000000000000000000\n      dup2\n      mstore\n      0x04\n      add\n      tag_94\n      swap1\n      tag_95\n      jump\t// in\n    tag_94:\n      mload(0x40)\n      dup1\n      swap2\n      sub\n      swap1\n      revert\n    tag_93:\n        /* \"Crowdfunding/CrowFunding.sol\":1999:2015  uint contributed */\n      0x00\n        /* \"Crowdfunding/CrowFunding.sol\":2018:2031  contributions */\n      0x05\n        /* \"Crowdfunding/CrowFunding.sol\":2018:2043  contributions[msg.sender] */\n      0x00\n        /* \"Crowdfunding/CrowFunding.sol\":2032:2042  msg.sender */\n      caller\n        /* \"Crowdfunding/CrowFunding.sol\":2018:2043  contributions[msg.sender] */\n      0xffffffffffffffffffffffffffffffffffffffff\n      and\n      0xffffffffffffffffffffffffffffffffffffffff\n      and\n      dup2\n      mstore\n      0x20\n      add\n      swap1\n      dup2\n      mstore\n      0x20\n      add\n      0x00\n      keccak256\n      sload\n        /* \"Crowdfunding/CrowFunding.sol\":1999:2043  uint contributed = contributions[msg.sender] */\n      swap1\n      pop\n        /* \"Crowdfunding/CrowFunding.sol\":2075:2076  0 */\n      0x00\n        /* \"Crowdfunding/CrowFunding.sol\":2061:2072  contributed */\n      dup2\n        /* \"Crowdfunding/CrowFunding.sol\":2061:2076  contributed > 0 */\n      gt\n        /* \"Crowdfunding/CrowFunding.sol\":2053:2101  require(contributed > 0, \"Nema nista za povrat\") */\n      tag_96\n      jumpi\n      mload(0x40)\n      0x08c379a000000000000000000000000000000000000000000000000000000000\n      dup2\n      mstore\n      0x04\n      add\n      tag_97\n      swap1\n      tag_98\n      jump\t// in\n    tag_97:\n      mload(0x40)\n      dup1\n      swap2\n      sub\n      swap1\n      revert\n    tag_96:\n        /* \"Crowdfunding/CrowFunding.sol\":2140:2141  0 */\n      0x00\n        /* \"Crowdfunding/CrowFunding.sol\":2112:2125  contributions */\n      0x05\n        /* \"Crowdfunding/CrowFunding.sol\":2112:2137  contributions[msg.sender] */\n      0x00\n        /* \"Crowdfunding/CrowFunding.sol\":2126:2136  msg.sender */\n      caller\n        /* \"Crowdfunding/CrowFunding.sol\":2112:2137  contributions[msg.sender] */\n      0xffffffffffffffffffffffffffffffffffffffff\n      and\n      0xffffffffffffffffffffffffffffffffffffffff\n      and\n      dup2\n      mstore\n      0x20\n      add\n      swap1\n      dup2\n      mstore\n      0x20\n      add\n      0x00\n      keccak256\n        /* \"Crowdfunding/CrowFunding.sol\":2112:2141  contributions[msg.sender] = 0 */\n      dup2\n      swap1\n      sstore\n      pop\n        /* \"Crowdfunding/CrowFunding.sol\":2152:2164  bool success */\n      0x00\n        /* \"Crowdfunding/CrowFunding.sol\":2170:2180  msg.sender */\n      caller\n        /* \"Crowdfunding/CrowFunding.sol\":2170:2185  msg.sender.call */\n      0xffffffffffffffffffffffffffffffffffffffff\n      and\n        /* \"Crowdfunding/CrowFunding.sol\":2193:2204  contributed */\n      dup3\n        /* \"Crowdfunding/CrowFunding.sol\":2170:2209  msg.sender.call{value: contributed}(\"\") */\n      mload(0x40)\n      tag_99\n      swap1\n      tag_81\n      jump\t// in\n    tag_99:\n      0x00\n      mload(0x40)\n      dup1\n      dup4\n      sub\n      dup2\n      dup6\n      dup8\n      gas\n      call\n      swap3\n      pop\n      pop\n      pop\n      returndatasize\n      dup1\n      0x00\n      dup2\n      eq\n      tag_102\n      jumpi\n      mload(0x40)\n      swap2\n      pop\n      and(add(returndatasize, 0x3f), not(0x1f))\n      dup3\n      add\n      0x40\n      mstore\n      returndatasize\n      dup3\n      mstore\n      returndatasize\n      0x00\n      0x20\n      dup5\n      add\n      returndatacopy\n      jump(tag_101)\n    tag_102:\n      0x60\n      swap2\n      pop\n    tag_101:\n      pop\n        /* \"Crowdfunding/CrowFunding.sol\":2151:2209  (bool success, ) = msg.sender.call{value: contributed}(\"\") */\n      pop\n      swap1\n      pop\n        /* \"Crowdfunding/CrowFunding.sol\":2227:2234  success */\n      dup1\n        /* \"Crowdfunding/CrowFunding.sol\":2219:2256  require(success, \"Povrat neuspjesan\") */\n      tag_103\n      jumpi\n      mload(0x40)\n      0x08c379a000000000000000000000000000000000000000000000000000000000\n      dup2\n      mstore\n      0x04\n      add\n      tag_104\n      swap1\n      tag_105\n      jump\t// in\n    tag_104:\n      mload(0x40)\n      dup1\n      swap2\n      sub\n      swap1\n      revert\n    tag_103:\n        /* \"Crowdfunding/CrowFunding.sol\":2285:2295  msg.sender */\n      caller\n        /* \"Crowdfunding/CrowFunding.sol\":2272:2309  RefundIssued(msg.sender, contributed) */\n      0xffffffffffffffffffffffffffffffffffffffff\n      and\n      0xa171b6942063c6f2800ce40a780edce37baa2b618571b11eedd1e69e626e7d76\n        /* \"Crowdfunding/CrowFunding.sol\":2297:2308  contributed */\n      dup4\n        /* \"Crowdfunding/CrowFunding.sol\":2272:2309  RefundIssued(msg.sender, contributed) */\n      mload(0x40)\n      tag_106\n      swap2\n      swap1\n      tag_19\n      jump\t// in\n    tag_106:\n      mload(0x40)\n      dup1\n      swap2\n      sub\n      swap1\n      log2\n        /* \"Crowdfunding/CrowFunding.sol\":1923:2316  {... */\n      pop\n      pop\n        /* \"Crowdfunding/CrowFunding.sol\":1882:2316  function refund() external campaignEnded {... */\n      jump\t// out\n        /* \"Crowdfunding/CrowFunding.sol\":191:214  bool public goalReached */\n    tag_42:\n      0x04\n      0x00\n      swap1\n      sload\n      swap1\n      0x0100\n      exp\n      swap1\n      div\n      0xff\n      and\n      dup2\n      jump\t// out\n        /* \"Crowdfunding/CrowFunding.sol\":88:108  address public owner */\n    tag_47:\n      0x00\n      0x00\n      swap1\n      sload\n      swap1\n      0x0100\n      exp\n      swap1\n      div\n      0xffffffffffffffffffffffffffffffffffffffff\n      and\n      dup2\n      jump\t// out\n        /* \"Crowdfunding/CrowFunding.sol\":220:246  bool public fundsWithdrawn */\n    tag_52:\n      0x04\n      0x01\n      swap1\n      sload\n      swap1\n      0x0100\n      exp\n      swap1\n      div\n      0xff\n      and\n      dup2\n      jump\t// out\n        /* \"Crowdfunding/CrowFunding.sol\":162:185  uint public totalRaised */\n    tag_56:\n      sload(0x03)\n      dup2\n      jump\t// out\n        /* \"Crowdfunding/CrowFunding.sol\":2434:2610  function getTimeLeft() external view returns (uint) {... */\n    tag_60:\n        /* \"Crowdfunding/CrowFunding.sol\":2480:2484  uint */\n      0x00\n        /* \"Crowdfunding/CrowFunding.sol\":2518:2526  deadline */\n      sload(0x02)\n        /* \"Crowdfunding/CrowFunding.sol\":2499:2514  block.timestamp */\n      timestamp\n        /* \"Crowdfunding/CrowFunding.sol\":2499:2526  block.timestamp >= deadline */\n      lt\n        /* \"Crowdfunding/CrowFunding.sol\":2496:2561  if(block.timestamp >= deadline) {... */\n      tag_108\n      jumpi\n        /* \"Crowdfunding/CrowFunding.sol\":2549:2550  0 */\n      0x00\n        /* \"Crowdfunding/CrowFunding.sol\":2542:2550  return 0 */\n      swap1\n      pop\n      jump(tag_107)\n        /* \"Crowdfunding/CrowFunding.sol\":2496:2561  if(block.timestamp >= deadline) {... */\n    tag_108:\n        /* \"Crowdfunding/CrowFunding.sol\":2588:2603  block.timestamp */\n      timestamp\n        /* \"Crowdfunding/CrowFunding.sol\":2577:2585  deadline */\n      sload(0x02)\n        /* \"Crowdfunding/CrowFunding.sol\":2577:2603  deadline - block.timestamp */\n      tag_109\n      swap2\n      swap1\n      tag_110\n      jump\t// in\n    tag_109:\n        /* \"Crowdfunding/CrowFunding.sol\":2570:2603  return deadline - block.timestamp */\n      swap1\n      pop\n        /* \"Crowdfunding/CrowFunding.sol\":2434:2610  function getTimeLeft() external view returns (uint) {... */\n    tag_107:\n      swap1\n      jump\t// out\n        /* \"Crowdfunding/CrowFunding.sol\":1120:1450  function donate() external payable campaignActive {... */\n    tag_63:\n        /* \"Crowdfunding/CrowFunding.sol\":676:684  deadline */\n      sload(0x02)\n        /* \"Crowdfunding/CrowFunding.sol\":658:673  block.timestamp */\n      timestamp\n        /* \"Crowdfunding/CrowFunding.sol\":658:684  block.timestamp < deadline */\n      lt\n        /* \"Crowdfunding/CrowFunding.sol\":650:709  require(block.timestamp < deadline, \"Kampanja je zavrsila\") */\n      tag_112\n      jumpi\n      mload(0x40)\n      0x08c379a000000000000000000000000000000000000000000000000000000000\n      dup2\n      mstore\n      0x04\n      add\n      tag_113\n      swap1\n      tag_114\n      jump\t// in\n    tag_113:\n      mload(0x40)\n      dup1\n      swap2\n      sub\n      swap1\n      revert\n    tag_112:\n        /* \"Crowdfunding/CrowFunding.sol\":1200:1201  0 */\n      0x00\n        /* \"Crowdfunding/CrowFunding.sol\":1188:1197  msg.value */\n      callvalue\n        /* \"Crowdfunding/CrowFunding.sol\":1188:1201  msg.value > 0 */\n      gt\n        /* \"Crowdfunding/CrowFunding.sol\":1180:1227  require(msg.value > 0, \"Mora se poslati Ether\") */\n      tag_116\n      jumpi\n      mload(0x40)\n      0x08c379a000000000000000000000000000000000000000000000000000000000\n      dup2\n      mstore\n      0x04\n      add\n      tag_117\n      swap1\n      tag_118\n      jump\t// in\n    tag_117:\n      mload(0x40)\n      dup1\n      swap2\n      sub\n      swap1\n      revert\n    tag_116:\n        /* \"Crowdfunding/CrowFunding.sol\":1267:1276  msg.value */\n      callvalue\n        /* \"Crowdfunding/CrowFunding.sol\":1238:1251  contributions */\n      0x05\n        /* \"Crowdfunding/CrowFunding.sol\":1238:1263  contributions[msg.sender] */\n      0x00\n        /* \"Crowdfunding/CrowFunding.sol\":1252:1262  msg.sender */\n      caller\n        /* \"Crowdfunding/CrowFunding.sol\":1238:1263  contributions[msg.sender] */\n      0xffffffffffffffffffffffffffffffffffffffff\n      and\n      0xffffffffffffffffffffffffffffffffffffffff\n      and\n      dup2\n      mstore\n      0x20\n      add\n      swap1\n      dup2\n      mstore\n      0x20\n      add\n      0x00\n      keccak256\n      0x00\n        /* \"Crowdfunding/CrowFunding.sol\":1238:1276  contributions[msg.sender] += msg.value */\n      dup3\n      dup3\n      sload\n      tag_119\n      swap2\n      swap1\n      tag_120\n      jump\t// in\n    tag_119:\n      swap3\n      pop\n      pop\n      dup2\n      swap1\n      sstore\n      pop\n        /* \"Crowdfunding/CrowFunding.sol\":1301:1310  msg.value */\n      callvalue\n        /* \"Crowdfunding/CrowFunding.sol\":1286:1297  totalRaised */\n      0x03\n      0x00\n        /* \"Crowdfunding/CrowFunding.sol\":1286:1310  totalRaised += msg.value */\n      dup3\n      dup3\n      sload\n      tag_121\n      swap2\n      swap1\n      tag_120\n      jump\t// in\n    tag_121:\n      swap3\n      pop\n      pop\n      dup2\n      swap1\n      sstore\n      pop\n        /* \"Crowdfunding/CrowFunding.sol\":1335:1345  msg.sender */\n      caller\n        /* \"Crowdfunding/CrowFunding.sol\":1326:1357  Donation(msg.sender, msg.value) */\n      0xffffffffffffffffffffffffffffffffffffffff\n      and\n      0x5d8bc849764969eb1bcc6d0a2f55999d0167c1ccec240a4f39cf664ca9c4148e\n        /* \"Crowdfunding/CrowFunding.sol\":1347:1356  msg.value */\n      callvalue\n        /* \"Crowdfunding/CrowFunding.sol\":1326:1357  Donation(msg.sender, msg.value) */\n      mload(0x40)\n      tag_122\n      swap2\n      swap1\n      tag_19\n      jump\t// in\n    tag_122:\n      mload(0x40)\n      dup1\n      swap2\n      sub\n      swap1\n      log2\n        /* \"Crowdfunding/CrowFunding.sol\":1395:1399  goal */\n      sload(0x01)\n        /* \"Crowdfunding/CrowFunding.sol\":1380:1391  totalRaised */\n      sload(0x03)\n        /* \"Crowdfunding/CrowFunding.sol\":1380:1399  totalRaised >= goal */\n      lt\n        /* \"Crowdfunding/CrowFunding.sol\":1377:1444  if(totalRaised >= goal) {... */\n      tag_123\n      jumpi\n        /* \"Crowdfunding/CrowFunding.sol\":1429:1433  true */\n      0x01\n        /* \"Crowdfunding/CrowFunding.sol\":1415:1426  goalReached */\n      0x04\n      0x00\n        /* \"Crowdfunding/CrowFunding.sol\":1415:1433  goalReached = true */\n      0x0100\n      exp\n      dup2\n      sload\n      dup2\n      0xff\n      mul\n      not\n      and\n      swap1\n      dup4\n      iszero\n      iszero\n      mul\n      or\n      swap1\n      sstore\n      pop\n        /* \"Crowdfunding/CrowFunding.sol\":1377:1444  if(totalRaised >= goal) {... */\n    tag_123:\n        /* \"Crowdfunding/CrowFunding.sol\":1120:1450  function donate() external payable campaignActive {... */\n      jump\t// out\n        /* \"#utility.yul\":7:84   */\n    tag_124:\n        /* \"#utility.yul\":44:51   */\n      0x00\n        /* \"#utility.yul\":73:78   */\n      dup2\n        /* \"#utility.yul\":62:78   */\n      swap1\n      pop\n        /* \"#utility.yul\":7:84   */\n      swap2\n      swap1\n      pop\n      jump\t// out\n        /* \"#utility.yul\":90:208   */\n    tag_125:\n        /* \"#utility.yul\":177:201   */\n      tag_164\n        /* \"#utility.yul\":195:200   */\n      dup2\n        /* \"#utility.yul\":177:201   */\n      tag_124\n      jump\t// in\n    tag_164:\n        /* \"#utility.yul\":172:175   */\n      dup3\n        /* \"#utility.yul\":165:202   */\n      mstore\n        /* \"#utility.yul\":90:208   */\n      pop\n      pop\n      jump\t// out\n        /* \"#utility.yul\":214:436   */\n    tag_19:\n        /* \"#utility.yul\":307:311   */\n      0x00\n        /* \"#utility.yul\":345:347   */\n      0x20\n        /* \"#utility.yul\":334:343   */\n      dup3\n        /* \"#utility.yul\":330:348   */\n      add\n        /* \"#utility.yul\":322:348   */\n      swap1\n      pop\n        /* \"#utility.yul\":358:429   */\n      tag_166\n        /* \"#utility.yul\":426:427   */\n      0x00\n        /* \"#utility.yul\":415:424   */\n      dup4\n        /* \"#utility.yul\":411:428   */\n      add\n        /* \"#utility.yul\":402:408   */\n      dup5\n        /* \"#utility.yul\":358:429   */\n      tag_125\n      jump\t// in\n    tag_166:\n        /* \"#utility.yul\":214:436   */\n      swap3\n      swap2\n      pop\n      pop\n      jump\t// out\n        /* \"#utility.yul\":523:640   */\n    tag_127:\n        /* \"#utility.yul\":632:633   */\n      0x00\n        /* \"#utility.yul\":629:630   */\n      0x00\n        /* \"#utility.yul\":622:634   */\n      revert\n        /* \"#utility.yul\":769:895   */\n    tag_129:\n        /* \"#utility.yul\":806:813   */\n      0x00\n        /* \"#utility.yul\":846:888   */\n      0xffffffffffffffffffffffffffffffffffffffff\n        /* \"#utility.yul\":839:844   */\n      dup3\n        /* \"#utility.yul\":835:889   */\n      and\n        /* \"#utility.yul\":824:889   */\n      swap1\n      pop\n        /* \"#utility.yul\":769:895   */\n      swap2\n      swap1\n      pop\n      jump\t// out\n        /* \"#utility.yul\":901:997   */\n    tag_130:\n        /* \"#utility.yul\":938:945   */\n      0x00\n        /* \"#utility.yul\":967:991   */\n      tag_172\n        /* \"#utility.yul\":985:990   */\n      dup3\n        /* \"#utility.yul\":967:991   */\n      tag_129\n      jump\t// in\n    tag_172:\n        /* \"#utility.yul\":956:991   */\n      swap1\n      pop\n        /* \"#utility.yul\":901:997   */\n      swap2\n      swap1\n      pop\n      jump\t// out\n        /* \"#utility.yul\":1003:1125   */\n    tag_131:\n        /* \"#utility.yul\":1076:1100   */\n      tag_174\n        /* \"#utility.yul\":1094:1099   */\n      dup2\n        /* \"#utility.yul\":1076:1100   */\n      tag_130\n      jump\t// in\n    tag_174:\n        /* \"#utility.yul\":1069:1074   */\n      dup2\n        /* \"#utility.yul\":1066:1101   */\n      eq\n        /* \"#utility.yul\":1056:1119   */\n      tag_175\n      jumpi\n        /* \"#utility.yul\":1115:1116   */\n      0x00\n        /* \"#utility.yul\":1112:1113   */\n      0x00\n        /* \"#utility.yul\":1105:1117   */\n      revert\n        /* \"#utility.yul\":1056:1119   */\n    tag_175:\n        /* \"#utility.yul\":1003:1125   */\n      pop\n      jump\t// out\n        /* \"#utility.yul\":1131:1270   */\n    tag_132:\n        /* \"#utility.yul\":1177:1182   */\n      0x00\n        /* \"#utility.yul\":1215:1221   */\n      dup2\n        /* \"#utility.yul\":1202:1222   */\n      calldataload\n        /* \"#utility.yul\":1193:1222   */\n      swap1\n      pop\n        /* \"#utility.yul\":1231:1264   */\n      tag_177\n        /* \"#utility.yul\":1258:1263   */\n      dup2\n        /* \"#utility.yul\":1231:1264   */\n      tag_131\n      jump\t// in\n    tag_177:\n        /* \"#utility.yul\":1131:1270   */\n      swap3\n      swap2\n      pop\n      pop\n      jump\t// out\n        /* \"#utility.yul\":1276:1605   */\n    tag_34:\n        /* \"#utility.yul\":1335:1341   */\n      0x00\n        /* \"#utility.yul\":1384:1386   */\n      0x20\n        /* \"#utility.yul\":1372:1381   */\n      dup3\n        /* \"#utility.yul\":1363:1370   */\n      dup5\n        /* \"#utility.yul\":1359:1382   */\n      sub\n        /* \"#utility.yul\":1355:1387   */\n      slt\n        /* \"#utility.yul\":1352:1471   */\n      iszero\n      tag_179\n      jumpi\n        /* \"#utility.yul\":1390:1469   */\n      tag_180\n      tag_127\n      jump\t// in\n    tag_180:\n        /* \"#utility.yul\":1352:1471   */\n    tag_179:\n        /* \"#utility.yul\":1510:1511   */\n      0x00\n        /* \"#utility.yul\":1535:1588   */\n      tag_181\n        /* \"#utility.yul\":1580:1587   */\n      dup5\n        /* \"#utility.yul\":1571:1577   */\n      dup3\n        /* \"#utility.yul\":1560:1569   */\n      dup6\n        /* \"#utility.yul\":1556:1578   */\n      add\n        /* \"#utility.yul\":1535:1588   */\n      tag_132\n      jump\t// in\n    tag_181:\n        /* \"#utility.yul\":1525:1588   */\n      swap2\n      pop\n        /* \"#utility.yul\":1481:1598   */\n      pop\n        /* \"#utility.yul\":1276:1605   */\n      swap3\n      swap2\n      pop\n      pop\n      jump\t// out\n        /* \"#utility.yul\":1611:1701   */\n    tag_133:\n        /* \"#utility.yul\":1645:1652   */\n      0x00\n        /* \"#utility.yul\":1688:1693   */\n      dup2\n        /* \"#utility.yul\":1681:1694   */\n      iszero\n        /* \"#utility.yul\":1674:1695   */\n      iszero\n        /* \"#utility.yul\":1663:1695   */\n      swap1\n      pop\n        /* \"#utility.yul\":1611:1701   */\n      swap2\n      swap1\n      pop\n      jump\t// out\n        /* \"#utility.yul\":1707:1816   */\n    tag_134:\n        /* \"#utility.yul\":1788:1809   */\n      tag_184\n        /* \"#utility.yul\":1803:1808   */\n      dup2\n        /* \"#utility.yul\":1788:1809   */\n      tag_133\n      jump\t// in\n    tag_184:\n        /* \"#utility.yul\":1783:1786   */\n      dup3\n        /* \"#utility.yul\":1776:1810   */\n      mstore\n        /* \"#utility.yul\":1707:1816   */\n      pop\n      pop\n      jump\t// out\n        /* \"#utility.yul\":1822:2032   */\n    tag_44:\n        /* \"#utility.yul\":1909:1913   */\n      0x00\n        /* \"#utility.yul\":1947:1949   */\n      0x20\n        /* \"#utility.yul\":1936:1945   */\n      dup3\n        /* \"#utility.yul\":1932:1950   */\n      add\n        /* \"#utility.yul\":1924:1950   */\n      swap1\n      pop\n        /* \"#utility.yul\":1960:2025   */\n      tag_186\n        /* \"#utility.yul\":2022:2023   */\n      0x00\n        /* \"#utility.yul\":2011:2020   */\n      dup4\n        /* \"#utility.yul\":2007:2024   */\n      add\n        /* \"#utility.yul\":1998:2004   */\n      dup5\n        /* \"#utility.yul\":1960:2025   */\n      tag_134\n      jump\t// in\n    tag_186:\n        /* \"#utility.yul\":1822:2032   */\n      swap3\n      swap2\n      pop\n      pop\n      jump\t// out\n        /* \"#utility.yul\":2038:2156   */\n    tag_135:\n        /* \"#utility.yul\":2125:2149   */\n      tag_188\n        /* \"#utility.yul\":2143:2148   */\n      dup2\n        /* \"#utility.yul\":2125:2149   */\n      tag_130\n      jump\t// in\n    tag_188:\n        /* \"#utility.yul\":2120:2123   */\n      dup3\n        /* \"#utility.yul\":2113:2150   */\n      mstore\n        /* \"#utility.yul\":2038:2156   */\n      pop\n      pop\n      jump\t// out\n        /* \"#utility.yul\":2162:2384   */\n    tag_49:\n        /* \"#utility.yul\":2255:2259   */\n      0x00\n        /* \"#utility.yul\":2293:2295   */\n      0x20\n        /* \"#utility.yul\":2282:2291   */\n      dup3\n        /* \"#utility.yul\":2278:2296   */\n      add\n        /* \"#utility.yul\":2270:2296   */\n      swap1\n      pop\n        /* \"#utility.yul\":2306:2377   */\n      tag_190\n        /* \"#utility.yul\":2374:2375   */\n      0x00\n        /* \"#utility.yul\":2363:2372   */\n      dup4\n        /* \"#utility.yul\":2359:2376   */\n      add\n        /* \"#utility.yul\":2350:2356   */\n      dup5\n        /* \"#utility.yul\":2306:2377   */\n      tag_135\n      jump\t// in\n    tag_190:\n        /* \"#utility.yul\":2162:2384   */\n      swap3\n      swap2\n      pop\n      pop\n      jump\t// out\n        /* \"#utility.yul\":2390:2559   */\n    tag_136:\n        /* \"#utility.yul\":2474:2485   */\n      0x00\n        /* \"#utility.yul\":2508:2514   */\n      dup3\n        /* \"#utility.yul\":2503:2506   */\n      dup3\n        /* \"#utility.yul\":2496:2515   */\n      mstore\n        /* \"#utility.yul\":2548:2552   */\n      0x20\n        /* \"#utility.yul\":2543:2546   */\n      dup3\n        /* \"#utility.yul\":2539:2553   */\n      add\n        /* \"#utility.yul\":2524:2553   */\n      swap1\n      pop\n        /* \"#utility.yul\":2390:2559   */\n      swap3\n      swap2\n      pop\n      pop\n      jump\t// out\n        /* \"#utility.yul\":2565:2790   */\n    tag_137:\n        /* \"#utility.yul\":2705:2739   */\n      0x53616d6f20766c61736e696b206d6f7a6520706f7a76617469206f7675206675\n        /* \"#utility.yul\":2701:2702   */\n      0x00\n        /* \"#utility.yul\":2693:2699   */\n      dup3\n        /* \"#utility.yul\":2689:2703   */\n      add\n        /* \"#utility.yul\":2682:2740   */\n      mstore\n        /* \"#utility.yul\":2774:2782   */\n      0x6e6b63696a750000000000000000000000000000000000000000000000000000\n        /* \"#utility.yul\":2769:2771   */\n      0x20\n        /* \"#utility.yul\":2761:2767   */\n      dup3\n        /* \"#utility.yul\":2757:2772   */\n      add\n        /* \"#utility.yul\":2750:2783   */\n      mstore\n        /* \"#utility.yul\":2565:2790   */\n      pop\n      jump\t// out\n        /* \"#utility.yul\":2796:3162   */\n    tag_138:\n        /* \"#utility.yul\":2938:2941   */\n      0x00\n        /* \"#utility.yul\":2959:3026   */\n      tag_194\n        /* \"#utility.yul\":3023:3025   */\n      0x26\n        /* \"#utility.yul\":3018:3021   */\n      dup4\n        /* \"#utility.yul\":2959:3026   */\n      tag_136\n      jump\t// in\n    tag_194:\n        /* \"#utility.yul\":2952:3026   */\n      swap2\n      pop\n        /* \"#utility.yul\":3035:3128   */\n      tag_195\n        /* \"#utility.yul\":3124:3127   */\n      dup3\n        /* \"#utility.yul\":3035:3128   */\n      tag_137\n      jump\t// in\n    tag_195:\n        /* \"#utility.yul\":3153:3155   */\n      0x40\n        /* \"#utility.yul\":3148:3151   */\n      dup3\n        /* \"#utility.yul\":3144:3156   */\n      add\n        /* \"#utility.yul\":3137:3156   */\n      swap1\n      pop\n        /* \"#utility.yul\":2796:3162   */\n      swap2\n      swap1\n      pop\n      jump\t// out\n        /* \"#utility.yul\":3168:3587   */\n    tag_68:\n        /* \"#utility.yul\":3334:3338   */\n      0x00\n        /* \"#utility.yul\":3372:3374   */\n      0x20\n        /* \"#utility.yul\":3361:3370   */\n      dup3\n        /* \"#utility.yul\":3357:3375   */\n      add\n        /* \"#utility.yul\":3349:3375   */\n      swap1\n      pop\n        /* \"#utility.yul\":3421:3430   */\n      dup2\n        /* \"#utility.yul\":3415:3419   */\n      dup2\n        /* \"#utility.yul\":3411:3431   */\n      sub\n        /* \"#utility.yul\":3407:3408   */\n      0x00\n        /* \"#utility.yul\":3396:3405   */\n      dup4\n        /* \"#utility.yul\":3392:3409   */\n      add\n        /* \"#utility.yul\":3385:3432   */\n      mstore\n        /* \"#utility.yul\":3449:3580   */\n      tag_197\n        /* \"#utility.yul\":3575:3579   */\n      dup2\n        /* \"#utility.yul\":3449:3580   */\n      tag_138\n      jump\t// in\n    tag_197:\n        /* \"#utility.yul\":3441:3580   */\n      swap1\n      pop\n        /* \"#utility.yul\":3168:3587   */\n      swap2\n      swap1\n      pop\n      jump\t// out\n        /* \"#utility.yul\":3593:3761   */\n    tag_139:\n        /* \"#utility.yul\":3733:3753   */\n      0x4b616d70616e6a61206a6f73207472616a650000000000000000000000000000\n        /* \"#utility.yul\":3729:3730   */\n      0x00\n        /* \"#utility.yul\":3721:3727   */\n      dup3\n        /* \"#utility.yul\":3717:3731   */\n      add\n        /* \"#utility.yul\":3710:3754   */\n      mstore\n        /* \"#utility.yul\":3593:3761   */\n      pop\n      jump\t// out\n        /* \"#utility.yul\":3767:4133   */\n    tag_140:\n        /* \"#utility.yul\":3909:3912   */\n      0x00\n        /* \"#utility.yul\":3930:3997   */\n      tag_200\n        /* \"#utility.yul\":3994:3996   */\n      0x12\n        /* \"#utility.yul\":3989:3992   */\n      dup4\n        /* \"#utility.yul\":3930:3997   */\n      tag_136\n      jump\t// in\n    tag_200:\n        /* \"#utility.yul\":3923:3997   */\n      swap2\n      pop\n        /* \"#utility.yul\":4006:4099   */\n      tag_201\n        /* \"#utility.yul\":4095:4098   */\n      dup3\n        /* \"#utility.yul\":4006:4099   */\n      tag_139\n      jump\t// in\n    tag_201:\n        /* \"#utility.yul\":4124:4126   */\n      0x20\n        /* \"#utility.yul\":4119:4122   */\n      dup3\n        /* \"#utility.yul\":4115:4127   */\n      add\n        /* \"#utility.yul\":4108:4127   */\n      swap1\n      pop\n        /* \"#utility.yul\":3767:4133   */\n      swap2\n      swap1\n      pop\n      jump\t// out\n        /* \"#utility.yul\":4139:4558   */\n    tag_72:\n        /* \"#utility.yul\":4305:4309   */\n      0x00\n        /* \"#utility.yul\":4343:4345   */\n      0x20\n        /* \"#utility.yul\":4332:4341   */\n      dup3\n        /* \"#utility.yul\":4328:4346   */\n      add\n        /* \"#utility.yul\":4320:4346   */\n      swap1\n      pop\n        /* \"#utility.yul\":4392:4401   */\n      dup2\n        /* \"#utility.yul\":4386:4390   */\n      dup2\n        /* \"#utility.yul\":4382:4402   */\n      sub\n        /* \"#utility.yul\":4378:4379   */\n      0x00\n        /* \"#utility.yul\":4367:4376   */\n      dup4\n        /* \"#utility.yul\":4363:4380   */\n      add\n        /* \"#utility.yul\":4356:4403   */\n      mstore\n        /* \"#utility.yul\":4420:4551   */\n      tag_203\n        /* \"#utility.yul\":4546:4550   */\n      dup2\n        /* \"#utility.yul\":4420:4551   */\n      tag_140\n      jump\t// in\n    tag_203:\n        /* \"#utility.yul\":4412:4551   */\n      swap1\n      pop\n        /* \"#utility.yul\":4139:4558   */\n      swap2\n      swap1\n      pop\n      jump\t// out\n        /* \"#utility.yul\":4564:4733   */\n    tag_141:\n        /* \"#utility.yul\":4704:4725   */\n      0x43696c6a206e696a6520706f737469676e757400000000000000000000000000\n        /* \"#utility.yul\":4700:4701   */\n      0x00\n        /* \"#utility.yul\":4692:4698   */\n      dup3\n        /* \"#utility.yul\":4688:4702   */\n      add\n        /* \"#utility.yul\":4681:4726   */\n      mstore\n        /* \"#utility.yul\":4564:4733   */\n      pop\n      jump\t// out\n        /* \"#utility.yul\":4739:5105   */\n    tag_142:\n        /* \"#utility.yul\":4881:4884   */\n      0x00\n        /* \"#utility.yul\":4902:4969   */\n      tag_206\n        /* \"#utility.yul\":4966:4968   */\n      0x13\n        /* \"#utility.yul\":4961:4964   */\n      dup4\n        /* \"#utility.yul\":4902:4969   */\n      tag_136\n      jump\t// in\n    tag_206:\n        /* \"#utility.yul\":4895:4969   */\n      swap2\n      pop\n        /* \"#utility.yul\":4978:5071   */\n      tag_207\n        /* \"#utility.yul\":5067:5070   */\n      dup3\n        /* \"#utility.yul\":4978:5071   */\n      tag_141\n      jump\t// in\n    tag_207:\n        /* \"#utility.yul\":5096:5098   */\n      0x20\n        /* \"#utility.yul\":5091:5094   */\n      dup3\n        /* \"#utility.yul\":5087:5099   */\n      add\n        /* \"#utility.yul\":5080:5099   */\n      swap1\n      pop\n        /* \"#utility.yul\":4739:5105   */\n      swap2\n      swap1\n      pop\n      jump\t// out\n        /* \"#utility.yul\":5111:5530   */\n    tag_76:\n        /* \"#utility.yul\":5277:5281   */\n      0x00\n        /* \"#utility.yul\":5315:5317   */\n      0x20\n        /* \"#utility.yul\":5304:5313   */\n      dup3\n        /* \"#utility.yul\":5300:5318   */\n      add\n        /* \"#utility.yul\":5292:5318   */\n      swap1\n      pop\n        /* \"#utility.yul\":5364:5373   */\n      dup2\n        /* \"#utility.yul\":5358:5362   */\n      dup2\n        /* \"#utility.yul\":5354:5374   */\n      sub\n        /* \"#utility.yul\":5350:5351   */\n      0x00\n        /* \"#utility.yul\":5339:5348   */\n      dup4\n        /* \"#utility.yul\":5335:5352   */\n      add\n        /* \"#utility.yul\":5328:5375   */\n      mstore\n        /* \"#utility.yul\":5392:5523   */\n      tag_209\n        /* \"#utility.yul\":5518:5522   */\n      dup2\n        /* \"#utility.yul\":5392:5523   */\n      tag_142\n      jump\t// in\n    tag_209:\n        /* \"#utility.yul\":5384:5523   */\n      swap1\n      pop\n        /* \"#utility.yul\":5111:5530   */\n      swap2\n      swap1\n      pop\n      jump\t// out\n        /* \"#utility.yul\":5536:5710   */\n    tag_143:\n        /* \"#utility.yul\":5676:5702   */\n      0x53726564737476612073752076656320706f767563656e610000000000000000\n        /* \"#utility.yul\":5672:5673   */\n      0x00\n        /* \"#utility.yul\":5664:5670   */\n      dup3\n        /* \"#utility.yul\":5660:5674   */\n      add\n        /* \"#utility.yul\":5653:5703   */\n      mstore\n        /* \"#utility.yul\":5536:5710   */\n      pop\n      jump\t// out\n        /* \"#utility.yul\":5716:6082   */\n    tag_144:\n        /* \"#utility.yul\":5858:5861   */\n      0x00\n        /* \"#utility.yul\":5879:5946   */\n      tag_212\n        /* \"#utility.yul\":5943:5945   */\n      0x18\n        /* \"#utility.yul\":5938:5941   */\n      dup4\n        /* \"#utility.yul\":5879:5946   */\n      tag_136\n      jump\t// in\n    tag_212:\n        /* \"#utility.yul\":5872:5946   */\n      swap2\n      pop\n        /* \"#utility.yul\":5955:6048   */\n      tag_213\n        /* \"#utility.yul\":6044:6047   */\n      dup3\n        /* \"#utility.yul\":5955:6048   */\n      tag_143\n      jump\t// in\n    tag_213:\n        /* \"#utility.yul\":6073:6075   */\n      0x20\n        /* \"#utility.yul\":6068:6071   */\n      dup3\n        /* \"#utility.yul\":6064:6076   */\n      add\n        /* \"#utility.yul\":6057:6076   */\n      swap1\n      pop\n        /* \"#utility.yul\":5716:6082   */\n      swap2\n      swap1\n      pop\n      jump\t// out\n        /* \"#utility.yul\":6088:6507   */\n    tag_79:\n        /* \"#utility.yul\":6254:6258   */\n      0x00\n        /* \"#utility.yul\":6292:6294   */\n      0x20\n        /* \"#utility.yul\":6281:6290   */\n      dup3\n        /* \"#utility.yul\":6277:6295   */\n      add\n        /* \"#utility.yul\":6269:6295   */\n      swap1\n      pop\n        /* \"#utility.yul\":6341:6350   */\n      dup2\n        /* \"#utility.yul\":6335:6339   */\n      dup2\n        /* \"#utility.yul\":6331:6351   */\n      sub\n        /* \"#utility.yul\":6327:6328   */\n      0x00\n        /* \"#utility.yul\":6316:6325   */\n      dup4\n        /* \"#utility.yul\":6312:6329   */\n      add\n        /* \"#utility.yul\":6305:6352   */\n      mstore\n        /* \"#utility.yul\":6369:6500   */\n      tag_215\n        /* \"#utility.yul\":6495:6499   */\n      dup2\n        /* \"#utility.yul\":6369:6500   */\n      tag_144\n      jump\t// in\n    tag_215:\n        /* \"#utility.yul\":6361:6500   */\n      swap1\n      pop\n        /* \"#utility.yul\":6088:6507   */\n      swap2\n      swap1\n      pop\n      jump\t// out\n        /* \"#utility.yul\":6513:6660   */\n    tag_145:\n        /* \"#utility.yul\":6614:6625   */\n      0x00\n        /* \"#utility.yul\":6651:6654   */\n      dup2\n        /* \"#utility.yul\":6636:6654   */\n      swap1\n      pop\n        /* \"#utility.yul\":6513:6660   */\n      swap3\n      swap2\n      pop\n      pop\n      jump\t// out\n        /* \"#utility.yul\":6666:6780   */\n    tag_146:\n      pop\n      jump\t// out\n        /* \"#utility.yul\":6786:7184   */\n    tag_147:\n        /* \"#utility.yul\":6945:6948   */\n      0x00\n        /* \"#utility.yul\":6966:7049   */\n      tag_219\n        /* \"#utility.yul\":7047:7048   */\n      0x00\n        /* \"#utility.yul\":7042:7045   */\n      dup4\n        /* \"#utility.yul\":6966:7049   */\n      tag_145\n      jump\t// in\n    tag_219:\n        /* \"#utility.yul\":6959:7049   */\n      swap2\n      pop\n        /* \"#utility.yul\":7058:7151   */\n      tag_220\n        /* \"#utility.yul\":7147:7150   */\n      dup3\n        /* \"#utility.yul\":7058:7151   */\n      tag_146\n      jump\t// in\n    tag_220:\n        /* \"#utility.yul\":7176:7177   */\n      0x00\n        /* \"#utility.yul\":7171:7174   */\n      dup3\n        /* \"#utility.yul\":7167:7178   */\n      add\n        /* \"#utility.yul\":7160:7178   */\n      swap1\n      pop\n        /* \"#utility.yul\":6786:7184   */\n      swap2\n      swap1\n      pop\n      jump\t// out\n        /* \"#utility.yul\":7190:7569   */\n    tag_81:\n        /* \"#utility.yul\":7374:7377   */\n      0x00\n        /* \"#utility.yul\":7396:7543   */\n      tag_222\n        /* \"#utility.yul\":7539:7542   */\n      dup3\n        /* \"#utility.yul\":7396:7543   */\n      tag_147\n      jump\t// in\n    tag_222:\n        /* \"#utility.yul\":7389:7543   */\n      swap2\n      pop\n        /* \"#utility.yul\":7560:7563   */\n      dup2\n        /* \"#utility.yul\":7553:7563   */\n      swap1\n      pop\n        /* \"#utility.yul\":7190:7569   */\n      swap2\n      swap1\n      pop\n      jump\t// out\n        /* \"#utility.yul\":7575:7746   */\n    tag_148:\n        /* \"#utility.yul\":7715:7738   */\n      0x506f766c6163656e6a65206e657573706a65736e6f0000000000000000000000\n        /* \"#utility.yul\":7711:7712   */\n      0x00\n        /* \"#utility.yul\":7703:7709   */\n      dup3\n        /* \"#utility.yul\":7699:7713   */\n      add\n        /* \"#utility.yul\":7692:7739   */\n      mstore\n        /* \"#utility.yul\":7575:7746   */\n      pop\n      jump\t// out\n        /* \"#utility.yul\":7752:8118   */\n    tag_149:\n        /* \"#utility.yul\":7894:7897   */\n      0x00\n        /* \"#utility.yul\":7915:7982   */\n      tag_225\n        /* \"#utility.yul\":7979:7981   */\n      0x15\n        /* \"#utility.yul\":7974:7977   */\n      dup4\n        /* \"#utility.yul\":7915:7982   */\n      tag_136\n      jump\t// in\n    tag_225:\n        /* \"#utility.yul\":7908:7982   */\n      swap2\n      pop\n        /* \"#utility.yul\":7991:8084   */\n      tag_226\n        /* \"#utility.yul\":8080:8083   */\n      dup3\n        /* \"#utility.yul\":7991:8084   */\n      tag_148\n      jump\t// in\n    tag_226:\n        /* \"#utility.yul\":8109:8111   */\n      0x20\n        /* \"#utility.yul\":8104:8107   */\n      dup3\n        /* \"#utility.yul\":8100:8112   */\n      add\n        /* \"#utility.yul\":8093:8112   */\n      swap1\n      pop\n        /* \"#utility.yul\":7752:8118   */\n      swap2\n      swap1\n      pop\n      jump\t// out\n        /* \"#utility.yul\":8124:8543   */\n    tag_87:\n        /* \"#utility.yul\":8290:8294   */\n      0x00\n        /* \"#utility.yul\":8328:8330   */\n      0x20\n        /* \"#utility.yul\":8317:8326   */\n      dup3\n        /* \"#utility.yul\":8313:8331   */\n      add\n        /* \"#utility.yul\":8305:8331   */\n      swap1\n      pop\n        /* \"#utility.yul\":8377:8386   */\n      dup2\n        /* \"#utility.yul\":8371:8375   */\n      dup2\n        /* \"#utility.yul\":8367:8387   */\n      sub\n        /* \"#utility.yul\":8363:8364   */\n      0x00\n        /* \"#utility.yul\":8352:8361   */\n      dup4\n        /* \"#utility.yul\":8348:8365   */\n      add\n        /* \"#utility.yul\":8341:8388   */\n      mstore\n        /* \"#utility.yul\":8405:8536   */\n      tag_228\n        /* \"#utility.yul\":8531:8535   */\n      dup2\n        /* \"#utility.yul\":8405:8536   */\n      tag_149\n      jump\t// in\n    tag_228:\n        /* \"#utility.yul\":8397:8536   */\n      swap1\n      pop\n        /* \"#utility.yul\":8124:8543   */\n      swap2\n      swap1\n      pop\n      jump\t// out\n        /* \"#utility.yul\":8549:8730   */\n    tag_150:\n        /* \"#utility.yul\":8689:8722   */\n      0x43696c6a206a6520706f737469676e75742c206e656d6120706f767261746100\n        /* \"#utility.yul\":8685:8686   */\n      0x00\n        /* \"#utility.yul\":8677:8683   */\n      dup3\n        /* \"#utility.yul\":8673:8687   */\n      add\n        /* \"#utility.yul\":8666:8723   */\n      mstore\n        /* \"#utility.yul\":8549:8730   */\n      pop\n      jump\t// out\n        /* \"#utility.yul\":8736:9102   */\n    tag_151:\n        /* \"#utility.yul\":8878:8881   */\n      0x00\n        /* \"#utility.yul\":8899:8966   */\n      tag_231\n        /* \"#utility.yul\":8963:8965   */\n      0x1f\n        /* \"#utility.yul\":8958:8961   */\n      dup4\n        /* \"#utility.yul\":8899:8966   */\n      tag_136\n      jump\t// in\n    tag_231:\n        /* \"#utility.yul\":8892:8966   */\n      swap2\n      pop\n        /* \"#utility.yul\":8975:9068   */\n      tag_232\n        /* \"#utility.yul\":9064:9067   */\n      dup3\n        /* \"#utility.yul\":8975:9068   */\n      tag_150\n      jump\t// in\n    tag_232:\n        /* \"#utility.yul\":9093:9095   */\n      0x20\n        /* \"#utility.yul\":9088:9091   */\n      dup3\n        /* \"#utility.yul\":9084:9096   */\n      add\n        /* \"#utility.yul\":9077:9096   */\n      swap1\n      pop\n        /* \"#utility.yul\":8736:9102   */\n      swap2\n      swap1\n      pop\n      jump\t// out\n        /* \"#utility.yul\":9108:9527   */\n    tag_95:\n        /* \"#utility.yul\":9274:9278   */\n      0x00\n        /* \"#utility.yul\":9312:9314   */\n      0x20\n        /* \"#utility.yul\":9301:9310   */\n      dup3\n        /* \"#utility.yul\":9297:9315   */\n      add\n        /* \"#utility.yul\":9289:9315   */\n      swap1\n      pop\n        /* \"#utility.yul\":9361:9370   */\n      dup2\n        /* \"#utility.yul\":9355:9359   */\n      dup2\n        /* \"#utility.yul\":9351:9371   */\n      sub\n        /* \"#utility.yul\":9347:9348   */\n      0x00\n        /* \"#utility.yul\":9336:9345   */\n      dup4\n        /* \"#utility.yul\":9332:9349   */\n      add\n        /* \"#utility.yul\":9325:9372   */\n      mstore\n        /* \"#utility.yul\":9389:9520   */\n      tag_234\n        /* \"#utility.yul\":9515:9519   */\n      dup2\n        /* \"#utility.yul\":9389:9520   */\n      tag_151\n      jump\t// in\n    tag_234:\n        /* \"#utility.yul\":9381:9520   */\n      swap1\n      pop\n        /* \"#utility.yul\":9108:9527   */\n      swap2\n      swap1\n      pop\n      jump\t// out\n        /* \"#utility.yul\":9533:9703   */\n    tag_152:\n        /* \"#utility.yul\":9673:9695   */\n      0x4e656d61206e69737461207a6120706f76726174000000000000000000000000\n        /* \"#utility.yul\":9669:9670   */\n      0x00\n        /* \"#utility.yul\":9661:9667   */\n      dup3\n        /* \"#utility.yul\":9657:9671   */\n      add\n        /* \"#utility.yul\":9650:9696   */\n      mstore\n        /* \"#utility.yul\":9533:9703   */\n      pop\n      jump\t// out\n        /* \"#utility.yul\":9709:10075   */\n    tag_153:\n        /* \"#utility.yul\":9851:9854   */\n      0x00\n        /* \"#utility.yul\":9872:9939   */\n      tag_237\n        /* \"#utility.yul\":9936:9938   */\n      0x14\n        /* \"#utility.yul\":9931:9934   */\n      dup4\n        /* \"#utility.yul\":9872:9939   */\n      tag_136\n      jump\t// in\n    tag_237:\n        /* \"#utility.yul\":9865:9939   */\n      swap2\n      pop\n        /* \"#utility.yul\":9948:10041   */\n      tag_238\n        /* \"#utility.yul\":10037:10040   */\n      dup3\n        /* \"#utility.yul\":9948:10041   */\n      tag_152\n      jump\t// in\n    tag_238:\n        /* \"#utility.yul\":10066:10068   */\n      0x20\n        /* \"#utility.yul\":10061:10064   */\n      dup3\n        /* \"#utility.yul\":10057:10069   */\n      add\n        /* \"#utility.yul\":10050:10069   */\n      swap1\n      pop\n        /* \"#utility.yul\":9709:10075   */\n      swap2\n      swap1\n      pop\n      jump\t// out\n        /* \"#utility.yul\":10081:10500   */\n    tag_98:\n        /* \"#utility.yul\":10247:10251   */\n      0x00\n        /* \"#utility.yul\":10285:10287   */\n      0x20\n        /* \"#utility.yul\":10274:10283   */\n      dup3\n        /* \"#utility.yul\":10270:10288   */\n      add\n        /* \"#utility.yul\":10262:10288   */\n      swap1\n      pop\n        /* \"#utility.yul\":10334:10343   */\n      dup2\n        /* \"#utility.yul\":10328:10332   */\n      dup2\n        /* \"#utility.yul\":10324:10344   */\n      sub\n        /* \"#utility.yul\":10320:10321   */\n      0x00\n        /* \"#utility.yul\":10309:10318   */\n      dup4\n        /* \"#utility.yul\":10305:10322   */\n      add\n        /* \"#utility.yul\":10298:10345   */\n      mstore\n        /* \"#utility.yul\":10362:10493   */\n      tag_240\n        /* \"#utility.yul\":10488:10492   */\n      dup2\n        /* \"#utility.yul\":10362:10493   */\n      tag_153\n      jump\t// in\n    tag_240:\n        /* \"#utility.yul\":10354:10493   */\n      swap1\n      pop\n        /* \"#utility.yul\":10081:10500   */\n      swap2\n      swap1\n      pop\n      jump\t// out\n        /* \"#utility.yul\":10506:10673   */\n    tag_154:\n        /* \"#utility.yul\":10646:10665   */\n      0x506f76726174206e657573706a6573616e000000000000000000000000000000\n        /* \"#utility.yul\":10642:10643   */\n      0x00\n        /* \"#utility.yul\":10634:10640   */\n      dup3\n        /* \"#utility.yul\":10630:10644   */\n      add\n        /* \"#utility.yul\":10623:10666   */\n      mstore\n        /* \"#utility.yul\":10506:10673   */\n      pop\n      jump\t// out\n        /* \"#utility.yul\":10679:11045   */\n    tag_155:\n        /* \"#utility.yul\":10821:10824   */\n      0x00\n        /* \"#utility.yul\":10842:10909   */\n      tag_243\n        /* \"#utility.yul\":10906:10908   */\n      0x11\n        /* \"#utility.yul\":10901:10904   */\n      dup4\n        /* \"#utility.yul\":10842:10909   */\n      tag_136\n      jump\t// in\n    tag_243:\n        /* \"#utility.yul\":10835:10909   */\n      swap2\n      pop\n        /* \"#utility.yul\":10918:11011   */\n      tag_244\n        /* \"#utility.yul\":11007:11010   */\n      dup3\n        /* \"#utility.yul\":10918:11011   */\n      tag_154\n      jump\t// in\n    tag_244:\n        /* \"#utility.yul\":11036:11038   */\n      0x20\n        /* \"#utility.yul\":11031:11034   */\n      dup3\n        /* \"#utility.yul\":11027:11039   */\n      add\n        /* \"#utility.yul\":11020:11039   */\n      swap1\n      pop\n        /* \"#utility.yul\":10679:11045   */\n      swap2\n      swap1\n      pop\n      jump\t// out\n        /* \"#utility.yul\":11051:11470   */\n    tag_105:\n        /* \"#utility.yul\":11217:11221   */\n      0x00\n        /* \"#utility.yul\":11255:11257   */\n      0x20\n        /* \"#utility.yul\":11244:11253   */\n      dup3\n        /* \"#utility.yul\":11240:11258   */\n      add\n        /* \"#utility.yul\":11232:11258   */\n      swap1\n      pop\n        /* \"#utility.yul\":11304:11313   */\n      dup2\n        /* \"#utility.yul\":11298:11302   */\n      dup2\n        /* \"#utility.yul\":11294:11314   */\n      sub\n        /* \"#utility.yul\":11290:11291   */\n      0x00\n        /* \"#utility.yul\":11279:11288   */\n      dup4\n        /* \"#utility.yul\":11275:11292   */\n      add\n        /* \"#utility.yul\":11268:11315   */\n      mstore\n        /* \"#utility.yul\":11332:11463   */\n      tag_246\n        /* \"#utility.yul\":11458:11462   */\n      dup2\n        /* \"#utility.yul\":11332:11463   */\n      tag_155\n      jump\t// in\n    tag_246:\n        /* \"#utility.yul\":11324:11463   */\n      swap1\n      pop\n        /* \"#utility.yul\":11051:11470   */\n      swap2\n      swap1\n      pop\n      jump\t// out\n        /* \"#utility.yul\":11476:11656   */\n    tag_156:\n        /* \"#utility.yul\":11524:11601   */\n      0x4e487b7100000000000000000000000000000000000000000000000000000000\n        /* \"#utility.yul\":11521:11522   */\n      0x00\n        /* \"#utility.yul\":11514:11602   */\n      mstore\n        /* \"#utility.yul\":11621:11625   */\n      0x11\n        /* \"#utility.yul\":11618:11619   */\n      0x04\n        /* \"#utility.yul\":11611:11626   */\n      mstore\n        /* \"#utility.yul\":11645:11649   */\n      0x24\n        /* \"#utility.yul\":11642:11643   */\n      0x00\n        /* \"#utility.yul\":11635:11650   */\n      revert\n        /* \"#utility.yul\":11662:11856   */\n    tag_110:\n        /* \"#utility.yul\":11702:11706   */\n      0x00\n        /* \"#utility.yul\":11722:11742   */\n      tag_249\n        /* \"#utility.yul\":11740:11741   */\n      dup3\n        /* \"#utility.yul\":11722:11742   */\n      tag_124\n      jump\t// in\n    tag_249:\n        /* \"#utility.yul\":11717:11742   */\n      swap2\n      pop\n        /* \"#utility.yul\":11756:11776   */\n      tag_250\n        /* \"#utility.yul\":11774:11775   */\n      dup4\n        /* \"#utility.yul\":11756:11776   */\n      tag_124\n      jump\t// in\n    tag_250:\n        /* \"#utility.yul\":11751:11776   */\n      swap3\n      pop\n        /* \"#utility.yul\":11800:11801   */\n      dup3\n        /* \"#utility.yul\":11797:11798   */\n      dup3\n        /* \"#utility.yul\":11793:11802   */\n      sub\n        /* \"#utility.yul\":11785:11802   */\n      swap1\n      pop\n        /* \"#utility.yul\":11824:11825   */\n      dup2\n        /* \"#utility.yul\":11818:11822   */\n      dup2\n        /* \"#utility.yul\":11815:11826   */\n      gt\n        /* \"#utility.yul\":11812:11849   */\n      iszero\n      tag_251\n      jumpi\n        /* \"#utility.yul\":11829:11847   */\n      tag_252\n      tag_156\n      jump\t// in\n    tag_252:\n        /* \"#utility.yul\":11812:11849   */\n    tag_251:\n        /* \"#utility.yul\":11662:11856   */\n      swap3\n      swap2\n      pop\n      pop\n      jump\t// out\n        /* \"#utility.yul\":11862:12032   */\n    tag_157:\n        /* \"#utility.yul\":12002:12024   */\n      0x4b616d70616e6a61206a65207a61767273696c61000000000000000000000000\n        /* \"#utility.yul\":11998:11999   */\n      0x00\n        /* \"#utility.yul\":11990:11996   */\n      dup3\n        /* \"#utility.yul\":11986:12000   */\n      add\n        /* \"#utility.yul\":11979:12025   */\n      mstore\n        /* \"#utility.yul\":11862:12032   */\n      pop\n      jump\t// out\n        /* \"#utility.yul\":12038:12404   */\n    tag_158:\n        /* \"#utility.yul\":12180:12183   */\n      0x00\n        /* \"#utility.yul\":12201:12268   */\n      tag_255\n        /* \"#utility.yul\":12265:12267   */\n      0x14\n        /* \"#utility.yul\":12260:12263   */\n      dup4\n        /* \"#utility.yul\":12201:12268   */\n      tag_136\n      jump\t// in\n    tag_255:\n        /* \"#utility.yul\":12194:12268   */\n      swap2\n      pop\n        /* \"#utility.yul\":12277:12370   */\n      tag_256\n        /* \"#utility.yul\":12366:12369   */\n      dup3\n        /* \"#utility.yul\":12277:12370   */\n      tag_157\n      jump\t// in\n    tag_256:\n        /* \"#utility.yul\":12395:12397   */\n      0x20\n        /* \"#utility.yul\":12390:12393   */\n      dup3\n        /* \"#utility.yul\":12386:12398   */\n      add\n        /* \"#utility.yul\":12379:12398   */\n      swap1\n      pop\n        /* \"#utility.yul\":12038:12404   */\n      swap2\n      swap1\n      pop\n      jump\t// out\n        /* \"#utility.yul\":12410:12829   */\n    tag_114:\n        /* \"#utility.yul\":12576:12580   */\n      0x00\n        /* \"#utility.yul\":12614:12616   */\n      0x20\n        /* \"#utility.yul\":12603:12612   */\n      dup3\n        /* \"#utility.yul\":12599:12617   */\n      add\n        /* \"#utility.yul\":12591:12617   */\n      swap1\n      pop\n        /* \"#utility.yul\":12663:12672   */\n      dup2\n        /* \"#utility.yul\":12657:12661   */\n      dup2\n        /* \"#utility.yul\":12653:12673   */\n      sub\n        /* \"#utility.yul\":12649:12650   */\n      0x00\n        /* \"#utility.yul\":12638:12647   */\n      dup4\n        /* \"#utility.yul\":12634:12651   */\n      add\n        /* \"#utility.yul\":12627:12674   */\n      mstore\n        /* \"#utility.yul\":12691:12822   */\n      tag_258\n        /* \"#utility.yul\":12817:12821   */\n      dup2\n        /* \"#utility.yul\":12691:12822   */\n      tag_158\n      jump\t// in\n    tag_258:\n        /* \"#utility.yul\":12683:12822   */\n      swap1\n      pop\n        /* \"#utility.yul\":12410:12829   */\n      swap2\n      swap1\n      pop\n      jump\t// out\n        /* \"#utility.yul\":12835:13006   */\n    tag_159:\n        /* \"#utility.yul\":12975:12998   */\n      0x4d6f726120736520706f736c6174692045746865720000000000000000000000\n        /* \"#utility.yul\":12971:12972   */\n      0x00\n        /* \"#utility.yul\":12963:12969   */\n      dup3\n        /* \"#utility.yul\":12959:12973   */\n      add\n        /* \"#utility.yul\":12952:12999   */\n      mstore\n        /* \"#utility.yul\":12835:13006   */\n      pop\n      jump\t// out\n        /* \"#utility.yul\":13012:13378   */\n    tag_160:\n        /* \"#utility.yul\":13154:13157   */\n      0x00\n        /* \"#utility.yul\":13175:13242   */\n      tag_261\n        /* \"#utility.yul\":13239:13241   */\n      0x15\n        /* \"#utility.yul\":13234:13237   */\n      dup4\n        /* \"#utility.yul\":13175:13242   */\n      tag_136\n      jump\t// in\n    tag_261:\n        /* \"#utility.yul\":13168:13242   */\n      swap2\n      pop\n        /* \"#utility.yul\":13251:13344   */\n      tag_262\n        /* \"#utility.yul\":13340:13343   */\n      dup3\n        /* \"#utility.yul\":13251:13344   */\n      tag_159\n      jump\t// in\n    tag_262:\n        /* \"#utility.yul\":13369:13371   */\n      0x20\n        /* \"#utility.yul\":13364:13367   */\n      dup3\n        /* \"#utility.yul\":13360:13372   */\n      add\n        /* \"#utility.yul\":13353:13372   */\n      swap1\n      pop\n        /* \"#utility.yul\":13012:13378   */\n      swap2\n      swap1\n      pop\n      jump\t// out\n        /* \"#utility.yul\":13384:13803   */\n    tag_118:\n        /* \"#utility.yul\":13550:13554   */\n      0x00\n        /* \"#utility.yul\":13588:13590   */\n      0x20\n        /* \"#utility.yul\":13577:13586   */\n      dup3\n        /* \"#utility.yul\":13573:13591   */\n      add\n        /* \"#utility.yul\":13565:13591   */\n      swap1\n      pop\n        /* \"#utility.yul\":13637:13646   */\n      dup2\n        /* \"#utility.yul\":13631:13635   */\n      dup2\n        /* \"#utility.yul\":13627:13647   */\n      sub\n        /* \"#utility.yul\":13623:13624   */\n      0x00\n        /* \"#utility.yul\":13612:13621   */\n      dup4\n        /* \"#utility.yul\":13608:13625   */\n      add\n        /* \"#utility.yul\":13601:13648   */\n      mstore\n        /* \"#utility.yul\":13665:13796   */\n      tag_264\n        /* \"#utility.yul\":13791:13795   */\n      dup2\n        /* \"#utility.yul\":13665:13796   */\n      tag_160\n      jump\t// in\n    tag_264:\n        /* \"#utility.yul\":13657:13796   */\n      swap1\n      pop\n        /* \"#utility.yul\":13384:13803   */\n      swap2\n      swap1\n      pop\n      jump\t// out\n        /* \"#utility.yul\":13809:14000   */\n    tag_120:\n        /* \"#utility.yul\":13849:13852   */\n      0x00\n        /* \"#utility.yul\":13868:13888   */\n      tag_266\n        /* \"#utility.yul\":13886:13887   */\n      dup3\n        /* \"#utility.yul\":13868:13888   */\n      tag_124\n      jump\t// in\n    tag_266:\n        /* \"#utility.yul\":13863:13888   */\n      swap2\n      pop\n        /* \"#utility.yul\":13902:13922   */\n      tag_267\n        /* \"#utility.yul\":13920:13921   */\n      dup4\n        /* \"#utility.yul\":13902:13922   */\n      tag_124\n      jump\t// in\n    tag_267:\n        /* \"#utility.yul\":13897:13922   */\n      swap3\n      pop\n        /* \"#utility.yul\":13945:13946   */\n      dup3\n        /* \"#utility.yul\":13942:13943   */\n      dup3\n        /* \"#utility.yul\":13938:13947   */\n      add\n        /* \"#utility.yul\":13931:13947   */\n      swap1\n      pop\n        /* \"#utility.yul\":13966:13969   */\n      dup1\n        /* \"#utility.yul\":13963:13964   */\n      dup3\n        /* \"#utility.yul\":13960:13970   */\n      gt\n        /* \"#utility.yul\":13957:13993   */\n      iszero\n      tag_268\n      jumpi\n        /* \"#utility.yul\":13973:13991   */\n      tag_269\n      tag_156\n      jump\t// in\n    tag_269:\n        /* \"#utility.yul\":13957:13993   */\n    tag_268:\n        /* \"#utility.yul\":13809:14000   */\n      swap3\n      swap2\n      pop\n      pop\n      jump\t// out\n\n    auxdata: 0xa2646970667358221220142fe26f254ce586f0153bd47e18f4e25306385729c8828ec9fc5e5a5b75f9e364736f6c634300081e0033\n}\n",
				"bytecode": {
					"linkReferences": {},
					"object": "608060405234801561000f575f5ffd5b506040516111eb3803806111eb8339818101604052810190610031919061010d565b335f5f6101000a81548173ffffffffffffffffffffffffffffffffffffffff021916908373ffffffffffffffffffffffffffffffffffffffff16021790555081600181905550603c816100849190610178565b4261008f91906101b9565b6002819055505f6003819055505f60045f6101000a81548160ff0219169083151502179055505f600460016101000a81548160ff02191690831515021790555050506101ec565b5f5ffd5b5f819050919050565b6100ec816100da565b81146100f6575f5ffd5b50565b5f81519050610107816100e3565b92915050565b5f5f60408385031215610123576101226100d6565b5b5f610130858286016100f9565b9250506020610141858286016100f9565b9150509250929050565b7f4e487b71000000000000000000000000000000000000000000000000000000005f52601160045260245ffd5b5f610182826100da565b915061018d836100da565b925082820261019b816100da565b915082820484148315176101b2576101b161014b565b5b5092915050565b5f6101c3826100da565b91506101ce836100da565b92508282019050808211156101e6576101e561014b565b5b92915050565b610ff2806101f95f395ff3fe6080604052600436106100a6575f3560e01c80637d3d6522116100635780637d3d6522146101905780638da5cb5b146101ba578063ac307fcf146101e4578063c5c4744c1461020e578063c7e284b814610238578063ed88c68e14610262576100a6565b806312065fe0146100aa57806324600fc3146100d457806329dcb0cf146100ea578063401938831461011457806342e94c901461013e578063590e1ae31461017a575b5f5ffd5b3480156100b5575f5ffd5b506100be61026c565b6040516100cb91906109a5565b60405180910390f35b3480156100df575f5ffd5b506100e8610273565b005b3480156100f5575f5ffd5b506100fe61053d565b60405161010b91906109a5565b60405180910390f35b34801561011f575f5ffd5b50610128610543565b60405161013591906109a5565b60405180910390f35b348015610149575f5ffd5b50610164600480360381019061015f9190610a1c565b610549565b60405161017191906109a5565b60405180910390f35b348015610185575f5ffd5b5061018e61055e565b005b34801561019b575f5ffd5b506101a46107b1565b6040516101b19190610a61565b60405180910390f35b3480156101c5575f5ffd5b506101ce6107c3565b6040516101db9190610a89565b60405180910390f35b3480156101ef575f5ffd5b506101f86107e7565b6040516102059190610a61565b60405180910390f35b348015610219575f5ffd5b506102226107fa565b60405161022f91906109a5565b60405180910390f35b348015610243575f5ffd5b5061024c610800565b60405161025991906109a5565b60405180910390f35b61026a610826565b005b5f47905090565b5f5f9054906101000a900473ffffffffffffffffffffffffffffffffffffffff1673ffffffffffffffffffffffffffffffffffffffff163373ffffffffffffffffffffffffffffffffffffffff1614610301576040517f08c379a00000000000000000000000000000000000000000000000000000000081526004016102f890610b22565b60405180910390fd5b600254421015610346576040517f08c379a000000000000000000000000000000000000000000000000000000000815260040161033d90610b8a565b60405180910390fd5b60045f9054906101000a900460ff16610394576040517f08c379a000000000000000000000000000000000000000000000000000000000815260040161038b90610bf2565b60405180910390fd5b600460019054906101000a900460ff16156103e4576040517f08c379a00000000000000000000000000000000000000000000000000000000081526004016103db90610c5a565b60405180910390fd5b6001600460016101000a81548160ff0219169083151502179055505f4790505f5f5f9054906101000a900473ffffffffffffffffffffffffffffffffffffffff1673ffffffffffffffffffffffffffffffffffffffff168260405161044890610ca5565b5f6040518083038185875af1925050503d805f8114610482576040519150601f19603f3d011682016040523d82523d5f602084013e610487565b606091505b50509050806104cb576040517f08c379a00000000000000000000000000000000000000000000000000000000081526004016104c290610d03565b60405180910390fd5b5f5f9054906101000a900473ffffffffffffffffffffffffffffffffffffffff1673ffffffffffffffffffffffffffffffffffffffff167feaff4b37086828766ad3268786972c0cd24259d4c87a80f9d3963a3c3d999b0d8360405161053191906109a5565b60405180910390a25050565b60025481565b60015481565b6005602052805f5260405f205f915090505481565b6002544210156105a3576040517f08c379a000000000000000000000000000000000000000000000000000000000815260040161059a90610b8a565b60405180910390fd5b60045f9054906101000a900460ff16156105f2576040517f08c379a00000000000000000000000000000000000000000000000000000000081526004016105e990610d6b565b60405180910390fd5b5f60055f3373ffffffffffffffffffffffffffffffffffffffff1673ffffffffffffffffffffffffffffffffffffffff1681526020019081526020015f205490505f8111610675576040517f08c379a000000000000000000000000000000000000000000000000000000000815260040161066c90610dd3565b60405180910390fd5b5f60055f3373ffffffffffffffffffffffffffffffffffffffff1673ffffffffffffffffffffffffffffffffffffffff1681526020019081526020015f20819055505f3373ffffffffffffffffffffffffffffffffffffffff16826040516106dc90610ca5565b5f6040518083038185875af1925050503d805f8114610716576040519150601f19603f3d011682016040523d82523d5f602084013e61071b565b606091505b505090508061075f576040517f08c379a000000000000000000000000000000000000000000000000000000000815260040161075690610e3b565b60405180910390fd5b3373ffffffffffffffffffffffffffffffffffffffff167fa171b6942063c6f2800ce40a780edce37baa2b618571b11eedd1e69e626e7d76836040516107a591906109a5565b60405180910390a25050565b60045f9054906101000a900460ff1681565b5f5f9054906101000a900473ffffffffffffffffffffffffffffffffffffffff1681565b600460019054906101000a900460ff1681565b60035481565b5f6002544210610812575f9050610823565b426002546108209190610e86565b90505b90565b600254421061086a576040517f08c379a000000000000000000000000000000000000000000000000000000000815260040161086190610f03565b60405180910390fd5b5f34116108ac576040517f08c379a00000000000000000000000000000000000000000000000000000000081526004016108a390610f6b565b60405180910390fd5b3460055f3373ffffffffffffffffffffffffffffffffffffffff1673ffffffffffffffffffffffffffffffffffffffff1681526020019081526020015f205f8282546108f89190610f89565b925050819055503460035f8282546109109190610f89565b925050819055503373ffffffffffffffffffffffffffffffffffffffff167f5d8bc849764969eb1bcc6d0a2f55999d0167c1ccec240a4f39cf664ca9c4148e3460405161095d91906109a5565b60405180910390a26001546003541061098b57600160045f6101000a81548160ff0219169083151502179055505b565b5f819050919050565b61099f8161098d565b82525050565b5f6020820190506109b85f830184610996565b92915050565b5f5ffd5b5f73ffffffffffffffffffffffffffffffffffffffff82169050919050565b5f6109eb826109c2565b9050919050565b6109fb816109e1565b8114610a05575f5ffd5b50565b5f81359050610a16816109f2565b92915050565b5f60208284031215610a3157610a306109be565b5b5f610a3e84828501610a08565b91505092915050565b5f8115159050919050565b610a5b81610a47565b82525050565b5f602082019050610a745f830184610a52565b92915050565b610a83816109e1565b82525050565b5f602082019050610a9c5f830184610a7a565b92915050565b5f82825260208201905092915050565b7f53616d6f20766c61736e696b206d6f7a6520706f7a76617469206f76752066755f8201527f6e6b63696a750000000000000000000000000000000000000000000000000000602082015250565b5f610b0c602683610aa2565b9150610b1782610ab2565b604082019050919050565b5f6020820190508181035f830152610b3981610b00565b9050919050565b7f4b616d70616e6a61206a6f73207472616a6500000000000000000000000000005f82015250565b5f610b74601283610aa2565b9150610b7f82610b40565b602082019050919050565b5f6020820190508181035f830152610ba181610b68565b9050919050565b7f43696c6a206e696a6520706f737469676e7574000000000000000000000000005f82015250565b5f610bdc601383610aa2565b9150610be782610ba8565b602082019050919050565b5f6020820190508181035f830152610c0981610bd0565b9050919050565b7f53726564737476612073752076656320706f767563656e6100000000000000005f82015250565b5f610c44601883610aa2565b9150610c4f82610c10565b602082019050919050565b5f6020820190508181035f830152610c7181610c38565b9050919050565b5f81905092915050565b50565b5f610c905f83610c78565b9150610c9b82610c82565b5f82019050919050565b5f610caf82610c85565b9150819050919050565b7f506f766c6163656e6a65206e657573706a65736e6f00000000000000000000005f82015250565b5f610ced601583610aa2565b9150610cf882610cb9565b602082019050919050565b5f6020820190508181035f830152610d1a81610ce1565b9050919050565b7f43696c6a206a6520706f737469676e75742c206e656d6120706f7672617461005f82015250565b5f610d55601f83610aa2565b9150610d6082610d21565b602082019050919050565b5f6020820190508181035f830152610d8281610d49565b9050919050565b7f4e656d61206e69737461207a6120706f767261740000000000000000000000005f82015250565b5f610dbd601483610aa2565b9150610dc882610d89565b602082019050919050565b5f6020820190508181035f830152610dea81610db1565b9050919050565b7f506f76726174206e657573706a6573616e0000000000000000000000000000005f82015250565b5f610e25601183610aa2565b9150610e3082610df1565b602082019050919050565b5f6020820190508181035f830152610e5281610e19565b9050919050565b7f4e487b71000000000000000000000000000000000000000000000000000000005f52601160045260245ffd5b5f610e908261098d565b9150610e9b8361098d565b9250828203905081811115610eb357610eb2610e59565b5b92915050565b7f4b616d70616e6a61206a65207a61767273696c610000000000000000000000005f82015250565b5f610eed601483610aa2565b9150610ef882610eb9565b602082019050919050565b5f6020820190508181035f830152610f1a81610ee1565b9050919050565b7f4d6f726120736520706f736c61746920457468657200000000000000000000005f82015250565b5f610f55601583610aa2565b9150610f6082610f21565b602082019050919050565b5f6020820190508181035f830152610f8281610f49565b9050919050565b5f610f938261098d565b9150610f9e8361098d565b9250828201905080821115610fb657610fb5610e59565b5b9291505056fea2646970667358221220142fe26f254ce586f0153bd47e18f4e25306385729c8828ec9fc5e5a5b75f9e364736f6c634300081e0033",
					"opcodes": "PUSH1 0x80 PUSH1 0x40 MSTORE CALLVALUE DUP1 ISZERO PUSH2 0xF JUMPI PUSH0 PUSH0 REVERT JUMPDEST POP PUSH1 0x40 MLOAD PUSH2 0x11EB CODESIZE SUB DUP1 PUSH2 0x11EB DUP4 CODECOPY DUP2 DUP2 ADD PUSH1 0x40 MSTORE DUP2 ADD SWAP1 PUSH2 0x31 SWAP2 SWAP1 PUSH2 0x10D JUMP JUMPDEST CALLER PUSH0 PUSH0 PUSH2 0x100 EXP DUP2 SLOAD DUP2 PUSH20 0xFFFFFFFFFFFFFFFFFFFFFFFFFFFFFFFFFFFFFFFF MUL NOT AND SWAP1 DUP4 PUSH20 0xFFFFFFFFFFFFFFFFFFFFFFFFFFFFFFFFFFFFFFFF AND MUL OR SWAP1 SSTORE POP DUP2 PUSH1 0x1 DUP2 SWAP1 SSTORE POP PUSH1 0x3C DUP2 PUSH2 0x84 SWAP2 SWAP1 PUSH2 0x178 JUMP JUMPDEST TIMESTAMP PUSH2 0x8F SWAP2 SWAP1 PUSH2 0x1B9 JUMP JUMPDEST PUSH1 0x2 DUP2 SWAP1 SSTORE POP PUSH0 PUSH1 0x3 DUP2 SWAP1 SSTORE POP PUSH0 PUSH1 0x4 PUSH0 PUSH2 0x100 EXP DUP2 SLOAD DUP2 PUSH1 0xFF MUL NOT AND SWAP1 DUP4 ISZERO ISZERO MUL OR SWAP1 SSTORE POP PUSH0 PUSH1 0x4 PUSH1 0x1 PUSH2 0x100 EXP DUP2 SLOAD DUP2 PUSH1 0xFF MUL NOT AND SWAP1 DUP4 ISZERO ISZERO MUL OR SWAP1 SSTORE POP POP POP PUSH2 0x1EC JUMP JUMPDEST PUSH0 PUSH0 REVERT JUMPDEST PUSH0 DUP2 SWAP1 POP SWAP2 SWAP1 POP JUMP JUMPDEST PUSH2 0xEC DUP2 PUSH2 0xDA JUMP JUMPDEST DUP2 EQ PUSH2 0xF6 JUMPI PUSH0 PUSH0 REVERT JUMPDEST POP JUMP JUMPDEST PUSH0 DUP2 MLOAD SWAP1 POP PUSH2 0x107 DUP2 PUSH2 0xE3 JUMP JUMPDEST SWAP3 SWAP2 POP POP JUMP JUMPDEST PUSH0 PUSH0 PUSH1 0x40 DUP4 DUP6 SUB SLT ISZERO PUSH2 0x123 JUMPI PUSH2 0x122 PUSH2 0xD6 JUMP JUMPDEST JUMPDEST PUSH0 PUSH2 0x130 DUP6 DUP3 DUP7 ADD PUSH2 0xF9 JUMP JUMPDEST SWAP3 POP POP PUSH1 0x20 PUSH2 0x141 DUP6 DUP3 DUP7 ADD PUSH2 0xF9 JUMP JUMPDEST SWAP2 POP POP SWAP3 POP SWAP3 SWAP1 POP JUMP JUMPDEST PUSH32 0x4E487B7100000000000000000000000000000000000000000000000000000000 PUSH0 MSTORE PUSH1 0x11 PUSH1 0x4 MSTORE PUSH1 0x24 PUSH0 REVERT JUMPDEST PUSH0 PUSH2 0x182 DUP3 PUSH2 0xDA JUMP JUMPDEST SWAP2 POP PUSH2 0x18D DUP4 PUSH2 0xDA JUMP JUMPDEST SWAP3 POP DUP3 DUP3 MUL PUSH2 0x19B DUP2 PUSH2 0xDA JUMP JUMPDEST SWAP2 POP DUP3 DUP3 DIV DUP5 EQ DUP4 ISZERO OR PUSH2 0x1B2 JUMPI PUSH2 0x1B1 PUSH2 0x14B JUMP JUMPDEST JUMPDEST POP SWAP3 SWAP2 POP POP JUMP JUMPDEST PUSH0 PUSH2 0x1C3 DUP3 PUSH2 0xDA JUMP JUMPDEST SWAP2 POP PUSH2 0x1CE DUP4 PUSH2 0xDA JUMP JUMPDEST SWAP3 POP DUP3 DUP3 ADD SWAP1 POP DUP1 DUP3 GT ISZERO PUSH2 0x1E6 JUMPI PUSH2 0x1E5 PUSH2 0x14B JUMP JUMPDEST JUMPDEST SWAP3 SWAP2 POP POP JUMP JUMPDEST PUSH2 0xFF2 DUP1 PUSH2 0x1F9 PUSH0 CODECOPY PUSH0 RETURN INVALID PUSH1 0x80 PUSH1 0x40 MSTORE PUSH1 0x4 CALLDATASIZE LT PUSH2 0xA6 JUMPI PUSH0 CALLDATALOAD PUSH1 0xE0 SHR DUP1 PUSH4 0x7D3D6522 GT PUSH2 0x63 JUMPI DUP1 PUSH4 0x7D3D6522 EQ PUSH2 0x190 JUMPI DUP1 PUSH4 0x8DA5CB5B EQ PUSH2 0x1BA JUMPI DUP1 PUSH4 0xAC307FCF EQ PUSH2 0x1E4 JUMPI DUP1 PUSH4 0xC5C4744C EQ PUSH2 0x20E JUMPI DUP1 PUSH4 0xC7E284B8 EQ PUSH2 0x238 JUMPI DUP1 PUSH4 0xED88C68E EQ PUSH2 0x262 JUMPI PUSH2 0xA6 JUMP JUMPDEST DUP1 PUSH4 0x12065FE0 EQ PUSH2 0xAA JUMPI DUP1 PUSH4 0x24600FC3 EQ PUSH2 0xD4 JUMPI DUP1 PUSH4 0x29DCB0CF EQ PUSH2 0xEA JUMPI DUP1 PUSH4 0x40193883 EQ PUSH2 0x114 JUMPI DUP1 PUSH4 0x42E94C90 EQ PUSH2 0x13E JUMPI DUP1 PUSH4 0x590E1AE3 EQ PUSH2 0x17A JUMPI JUMPDEST PUSH0 PUSH0 REVERT JUMPDEST CALLVALUE DUP1 ISZERO PUSH2 0xB5 JUMPI PUSH0 PUSH0 REVERT JUMPDEST POP PUSH2 0xBE PUSH2 0x26C JUMP JUMPDEST PUSH1 0x40 MLOAD PUSH2 0xCB SWAP2 SWAP1 PUSH2 0x9A5 JUMP JUMPDEST PUSH1 0x40 MLOAD DUP1 SWAP2 SUB SWAP1 RETURN JUMPDEST CALLVALUE DUP1 ISZERO PUSH2 0xDF JUMPI PUSH0 PUSH0 REVERT JUMPDEST POP PUSH2 0xE8 PUSH2 0x273 JUMP JUMPDEST STOP JUMPDEST CALLVALUE DUP1 ISZERO PUSH2 0xF5 JUMPI PUSH0 PUSH0 REVERT JUMPDEST POP PUSH2 0xFE PUSH2 0x53D JUMP JUMPDEST PUSH1 0x40 MLOAD PUSH2 0x10B SWAP2 SWAP1 PUSH2 0x9A5 JUMP JUMPDEST PUSH1 0x40 MLOAD DUP1 SWAP2 SUB SWAP1 RETURN JUMPDEST CALLVALUE DUP1 ISZERO PUSH2 0x11F JUMPI PUSH0 PUSH0 REVERT JUMPDEST POP PUSH2 0x128 PUSH2 0x543 JUMP JUMPDEST PUSH1 0x40 MLOAD PUSH2 0x135 SWAP2 SWAP1 PUSH2 0x9A5 JUMP JUMPDEST PUSH1 0x40 MLOAD DUP1 SWAP2 SUB SWAP1 RETURN JUMPDEST CALLVALUE DUP1 ISZERO PUSH2 0x149 JUMPI PUSH0 PUSH0 REVERT JUMPDEST POP PUSH2 0x164 PUSH1 0x4 DUP1 CALLDATASIZE SUB DUP2 ADD SWAP1 PUSH2 0x15F SWAP2 SWAP1 PUSH2 0xA1C JUMP JUMPDEST PUSH2 0x549 JUMP JUMPDEST PUSH1 0x40 MLOAD PUSH2 0x171 SWAP2 SWAP1 PUSH2 0x9A5 JUMP JUMPDEST PUSH1 0x40 MLOAD DUP1 SWAP2 SUB SWAP1 RETURN JUMPDEST CALLVALUE DUP1 ISZERO PUSH2 0x185 JUMPI PUSH0 PUSH0 REVERT JUMPDEST POP PUSH2 0x18E PUSH2 0x55E JUMP JUMPDEST STOP JUMPDEST CALLVALUE DUP1 ISZERO PUSH2 0x19B JUMPI PUSH0 PUSH0 REVERT JUMPDEST POP PUSH2 0x1A4 PUSH2 0x7B1 JUMP JUMPDEST PUSH1 0x40 MLOAD PUSH2 0x1B1 SWAP2 SWAP1 PUSH2 0xA61 JUMP JUMPDEST PUSH1 0x40 MLOAD DUP1 SWAP2 SUB SWAP1 RETURN JUMPDEST CALLVALUE DUP1 ISZERO PUSH2 0x1C5 JUMPI PUSH0 PUSH0 REVERT JUMPDEST POP PUSH2 0x1CE PUSH2 0x7C3 JUMP JUMPDEST PUSH1 0x40 MLOAD PUSH2 0x1DB SWAP2 SWAP1 PUSH2 0xA89 JUMP JUMPDEST PUSH1 0x40 MLOAD DUP1 SWAP2 SUB SWAP1 RETURN JUMPDEST CALLVALUE DUP1 ISZERO PUSH2 0x1EF JUMPI PUSH0 PUSH0 REVERT JUMPDEST POP PUSH2 0x1F8 PUSH2 0x7E7 JUMP JUMPDEST PUSH1 0x40 MLOAD PUSH2 0x205 SWAP2 SWAP1 PUSH2 0xA61 JUMP JUMPDEST PUSH1 0x40 MLOAD DUP1 SWAP2 SUB SWAP1 RETURN JUMPDEST CALLVALUE DUP1 ISZERO PUSH2 0x219 JUMPI PUSH0 PUSH0 REVERT JUMPDEST POP PUSH2 0x222 PUSH2 0x7FA JUMP JUMPDEST PUSH1 0x40 MLOAD PUSH2 0x22F SWAP2 SWAP1 PUSH2 0x9A5 JUMP JUMPDEST PUSH1 0x40 MLOAD DUP1 SWAP2 SUB SWAP1 RETURN JUMPDEST CALLVALUE DUP1 ISZERO PUSH2 0x243 JUMPI PUSH0 PUSH0 REVERT JUMPDEST POP PUSH2 0x24C PUSH2 0x800 JUMP JUMPDEST PUSH1 0x40 MLOAD PUSH2 0x259 SWAP2 SWAP1 PUSH2 0x9A5 JUMP JUMPDEST PUSH1 0x40 MLOAD DUP1 SWAP2 SUB SWAP1 RETURN JUMPDEST PUSH2 0x26A PUSH2 0x826 JUMP JUMPDEST STOP JUMPDEST PUSH0 SELFBALANCE SWAP1 POP SWAP1 JUMP JUMPDEST PUSH0 PUSH0 SWAP1 SLOAD SWAP1 PUSH2 0x100 EXP SWAP1 DIV PUSH20 0xFFFFFFFFFFFFFFFFFFFFFFFFFFFFFFFFFFFFFFFF AND PUSH20 0xFFFFFFFFFFFFFFFFFFFFFFFFFFFFFFFFFFFFFFFF AND CALLER PUSH20 0xFFFFFFFFFFFFFFFFFFFFFFFFFFFFFFFFFFFFFFFF AND EQ PUSH2 0x301 JUMPI PUSH1 0x40 MLOAD PUSH32 0x8C379A000000000000000000000000000000000000000000000000000000000 DUP2 MSTORE PUSH1 0x4 ADD PUSH2 0x2F8 SWAP1 PUSH2 0xB22 JUMP JUMPDEST PUSH1 0x40 MLOAD DUP1 SWAP2 SUB SWAP1 REVERT JUMPDEST PUSH1 0x2 SLOAD TIMESTAMP LT ISZERO PUSH2 0x346 JUMPI PUSH1 0x40 MLOAD PUSH32 0x8C379A000000000000000000000000000000000000000000000000000000000 DUP2 MSTORE PUSH1 0x4 ADD PUSH2 0x33D SWAP1 PUSH2 0xB8A JUMP JUMPDEST PUSH1 0x40 MLOAD DUP1 SWAP2 SUB SWAP1 REVERT JUMPDEST PUSH1 0x4 PUSH0 SWAP1 SLOAD SWAP1 PUSH2 0x100 EXP SWAP1 DIV PUSH1 0xFF AND PUSH2 0x394 JUMPI PUSH1 0x40 MLOAD PUSH32 0x8C379A000000000000000000000000000000000000000000000000000000000 DUP2 MSTORE PUSH1 0x4 ADD PUSH2 0x38B SWAP1 PUSH2 0xBF2 JUMP JUMPDEST PUSH1 0x40 MLOAD DUP1 SWAP2 SUB SWAP1 REVERT JUMPDEST PUSH1 0x4 PUSH1 0x1 SWAP1 SLOAD SWAP1 PUSH2 0x100 EXP SWAP1 DIV PUSH1 0xFF AND ISZERO PUSH2 0x3E4 JUMPI PUSH1 0x40 MLOAD PUSH32 0x8C379A000000000000000000000000000000000000000000000000000000000 DUP2 MSTORE PUSH1 0x4 ADD PUSH2 0x3DB SWAP1 PUSH2 0xC5A JUMP JUMPDEST PUSH1 0x40 MLOAD DUP1 SWAP2 SUB SWAP1 REVERT JUMPDEST PUSH1 0x1 PUSH1 0x4 PUSH1 0x1 PUSH2 0x100 EXP DUP2 SLOAD DUP2 PUSH1 0xFF MUL NOT AND SWAP1 DUP4 ISZERO ISZERO MUL OR SWAP1 SSTORE POP PUSH0 SELFBALANCE SWAP1 POP PUSH0 PUSH0 PUSH0 SWAP1 SLOAD SWAP1 PUSH2 0x100 EXP SWAP1 DIV PUSH20 0xFFFFFFFFFFFFFFFFFFFFFFFFFFFFFFFFFFFFFFFF AND PUSH20 0xFFFFFFFFFFFFFFFFFFFFFFFFFFFFFFFFFFFFFFFF AND DUP3 PUSH1 0x40 MLOAD PUSH2 0x448 SWAP1 PUSH2 0xCA5 JUMP JUMPDEST PUSH0 PUSH1 0x40 MLOAD DUP1 DUP4 SUB DUP2 DUP6 DUP8 GAS CALL SWAP3 POP POP POP RETURNDATASIZE DUP1 PUSH0 DUP2 EQ PUSH2 0x482 JUMPI PUSH1 0x40 MLOAD SWAP2 POP PUSH1 0x1F NOT PUSH1 0x3F RETURNDATASIZE ADD AND DUP3 ADD PUSH1 0x40 MSTORE RETURNDATASIZE DUP3 MSTORE RETURNDATASIZE PUSH0 PUSH1 0x20 DUP5 ADD RETURNDATACOPY PUSH2 0x487 JUMP JUMPDEST PUSH1 0x60 SWAP2 POP JUMPDEST POP POP SWAP1 POP DUP1 PUSH2 0x4CB JUMPI PUSH1 0x40 MLOAD PUSH32 0x8C379A000000000000000000000000000000000000000000000000000000000 DUP2 MSTORE PUSH1 0x4 ADD PUSH2 0x4C2 SWAP1 PUSH2 0xD03 JUMP JUMPDEST PUSH1 0x40 MLOAD DUP1 SWAP2 SUB SWAP1 REVERT JUMPDEST PUSH0 PUSH0 SWAP1 SLOAD SWAP1 PUSH2 0x100 EXP SWAP1 DIV PUSH20 0xFFFFFFFFFFFFFFFFFFFFFFFFFFFFFFFFFFFFFFFF AND PUSH20 0xFFFFFFFFFFFFFFFFFFFFFFFFFFFFFFFFFFFFFFFF AND PUSH32 0xEAFF4B37086828766AD3268786972C0CD24259D4C87A80F9D3963A3C3D999B0D DUP4 PUSH1 0x40 MLOAD PUSH2 0x531 SWAP2 SWAP1 PUSH2 0x9A5 JUMP JUMPDEST PUSH1 0x40 MLOAD DUP1 SWAP2 SUB SWAP1 LOG2 POP POP JUMP JUMPDEST PUSH1 0x2 SLOAD DUP2 JUMP JUMPDEST PUSH1 0x1 SLOAD DUP2 JUMP JUMPDEST PUSH1 0x5 PUSH1 0x20 MSTORE DUP1 PUSH0 MSTORE PUSH1 0x40 PUSH0 KECCAK256 PUSH0 SWAP2 POP SWAP1 POP SLOAD DUP2 JUMP JUMPDEST PUSH1 0x2 SLOAD TIMESTAMP LT ISZERO PUSH2 0x5A3 JUMPI PUSH1 0x40 MLOAD PUSH32 0x8C379A000000000000000000000000000000000000000000000000000000000 DUP2 MSTORE PUSH1 0x4 ADD PUSH2 0x59A SWAP1 PUSH2 0xB8A JUMP JUMPDEST PUSH1 0x40 MLOAD DUP1 SWAP2 SUB SWAP1 REVERT JUMPDEST PUSH1 0x4 PUSH0 SWAP1 SLOAD SWAP1 PUSH2 0x100 EXP SWAP1 DIV PUSH1 0xFF AND ISZERO PUSH2 0x5F2 JUMPI PUSH1 0x40 MLOAD PUSH32 0x8C379A000000000000000000000000000000000000000000000000000000000 DUP2 MSTORE PUSH1 0x4 ADD PUSH2 0x5E9 SWAP1 PUSH2 0xD6B JUMP JUMPDEST PUSH1 0x40 MLOAD DUP1 SWAP2 SUB SWAP1 REVERT JUMPDEST PUSH0 PUSH1 0x5 PUSH0 CALLER PUSH20 0xFFFFFFFFFFFFFFFFFFFFFFFFFFFFFFFFFFFFFFFF AND PUSH20 0xFFFFFFFFFFFFFFFFFFFFFFFFFFFFFFFFFFFFFFFF AND DUP2 MSTORE PUSH1 0x20 ADD SWAP1 DUP2 MSTORE PUSH1 0x20 ADD PUSH0 KECCAK256 SLOAD SWAP1 POP PUSH0 DUP2 GT PUSH2 0x675 JUMPI PUSH1 0x40 MLOAD PUSH32 0x8C379A000000000000000000000000000000000000000000000000000000000 DUP2 MSTORE PUSH1 0x4 ADD PUSH2 0x66C SWAP1 PUSH2 0xDD3 JUMP JUMPDEST PUSH1 0x40 MLOAD DUP1 SWAP2 SUB SWAP1 REVERT JUMPDEST PUSH0 PUSH1 0x5 PUSH0 CALLER PUSH20 0xFFFFFFFFFFFFFFFFFFFFFFFFFFFFFFFFFFFFFFFF AND PUSH20 0xFFFFFFFFFFFFFFFFFFFFFFFFFFFFFFFFFFFFFFFF AND DUP2 MSTORE PUSH1 0x20 ADD SWAP1 DUP2 MSTORE PUSH1 0x20 ADD PUSH0 KECCAK256 DUP2 SWAP1 SSTORE POP PUSH0 CALLER PUSH20 0xFFFFFFFFFFFFFFFFFFFFFFFFFFFFFFFFFFFFFFFF AND DUP3 PUSH1 0x40 MLOAD PUSH2 0x6DC SWAP1 PUSH2 0xCA5 JUMP JUMPDEST PUSH0 PUSH1 0x40 MLOAD DUP1 DUP4 SUB DUP2 DUP6 DUP8 GAS CALL SWAP3 POP POP POP RETURNDATASIZE DUP1 PUSH0 DUP2 EQ PUSH2 0x716 JUMPI PUSH1 0x40 MLOAD SWAP2 POP PUSH1 0x1F NOT PUSH1 0x3F RETURNDATASIZE ADD AND DUP3 ADD PUSH1 0x40 MSTORE RETURNDATASIZE DUP3 MSTORE RETURNDATASIZE PUSH0 PUSH1 0x20 DUP5 ADD RETURNDATACOPY PUSH2 0x71B JUMP JUMPDEST PUSH1 0x60 SWAP2 POP JUMPDEST POP POP SWAP1 POP DUP1 PUSH2 0x75F JUMPI PUSH1 0x40 MLOAD PUSH32 0x8C379A000000000000000000000000000000000000000000000000000000000 DUP2 MSTORE PUSH1 0x4 ADD PUSH2 0x756 SWAP1 PUSH2 0xE3B JUMP JUMPDEST PUSH1 0x40 MLOAD DUP1 SWAP2 SUB SWAP1 REVERT JUMPDEST CALLER PUSH20 0xFFFFFFFFFFFFFFFFFFFFFFFFFFFFFFFFFFFFFFFF AND PUSH32 0xA171B6942063C6F2800CE40A780EDCE37BAA2B618571B11EEDD1E69E626E7D76 DUP4 PUSH1 0x40 MLOAD PUSH2 0x7A5 SWAP2 SWAP1 PUSH2 0x9A5 JUMP JUMPDEST PUSH1 0x40 MLOAD DUP1 SWAP2 SUB SWAP1 LOG2 POP POP JUMP JUMPDEST PUSH1 0x4 PUSH0 SWAP1 SLOAD SWAP1 PUSH2 0x100 EXP SWAP1 DIV PUSH1 0xFF AND DUP2 JUMP JUMPDEST PUSH0 PUSH0 SWAP1 SLOAD SWAP1 PUSH2 0x100 EXP SWAP1 DIV PUSH20 0xFFFFFFFFFFFFFFFFFFFFFFFFFFFFFFFFFFFFFFFF AND DUP2 JUMP JUMPDEST PUSH1 0x4 PUSH1 0x1 SWAP1 SLOAD SWAP1 PUSH2 0x100 EXP SWAP1 DIV PUSH1 0xFF AND DUP2 JUMP JUMPDEST PUSH1 0x3 SLOAD DUP2 JUMP JUMPDEST PUSH0 PUSH1 0x2 SLOAD TIMESTAMP LT PUSH2 0x812 JUMPI PUSH0 SWAP1 POP PUSH2 0x823 JUMP JUMPDEST TIMESTAMP PUSH1 0x2 SLOAD PUSH2 0x820 SWAP2 SWAP1 PUSH2 0xE86 JUMP JUMPDEST SWAP1 POP JUMPDEST SWAP1 JUMP JUMPDEST PUSH1 0x2 SLOAD TIMESTAMP LT PUSH2 0x86A JUMPI PUSH1 0x40 MLOAD PUSH32 0x8C379A000000000000000000000000000000000000000000000000000000000 DUP2 MSTORE PUSH1 0x4 ADD PUSH2 0x861 SWAP1 PUSH2 0xF03 JUMP JUMPDEST PUSH1 0x40 MLOAD DUP1 SWAP2 SUB SWAP1 REVERT JUMPDEST PUSH0 CALLVALUE GT PUSH2 0x8AC JUMPI PUSH1 0x40 MLOAD PUSH32 0x8C379A000000000000000000000000000000000000000000000000000000000 DUP2 MSTORE PUSH1 0x4 ADD PUSH2 0x8A3 SWAP1 PUSH2 0xF6B JUMP JUMPDEST PUSH1 0x40 MLOAD DUP1 SWAP2 SUB SWAP1 REVERT JUMPDEST CALLVALUE PUSH1 0x5 PUSH0 CALLER PUSH20 0xFFFFFFFFFFFFFFFFFFFFFFFFFFFFFFFFFFFFFFFF AND PUSH20 0xFFFFFFFFFFFFFFFFFFFFFFFFFFFFFFFFFFFFFFFF AND DUP2 MSTORE PUSH1 0x20 ADD SWAP1 DUP2 MSTORE PUSH1 0x20 ADD PUSH0 KECCAK256 PUSH0 DUP3 DUP3 SLOAD PUSH2 0x8F8 SWAP2 SWAP1 PUSH2 0xF89 JUMP JUMPDEST SWAP3 POP POP DUP2 SWAP1 SSTORE POP CALLVALUE PUSH1 0x3 PUSH0 DUP3 DUP3 SLOAD PUSH2 0x910 SWAP2 SWAP1 PUSH2 0xF89 JUMP JUMPDEST SWAP3 POP POP DUP2 SWAP1 SSTORE POP CALLER PUSH20 0xFFFFFFFFFFFFFFFFFFFFFFFFFFFFFFFFFFFFFFFF AND PUSH32 0x5D8BC849764969EB1BCC6D0A2F55999D0167C1CCEC240A4F39CF664CA9C4148E CALLVALUE PUSH1 0x40 MLOAD PUSH2 0x95D SWAP2 SWAP1 PUSH2 0x9A5 JUMP JUMPDEST PUSH1 0x40 MLOAD DUP1 SWAP2 SUB SWAP1 LOG2 PUSH1 0x1 SLOAD PUSH1 0x3 SLOAD LT PUSH2 0x98B JUMPI PUSH1 0x1 PUSH1 0x4 PUSH0 PUSH2 0x100 EXP DUP2 SLOAD DUP2 PUSH1 0xFF MUL NOT AND SWAP1 DUP4 ISZERO ISZERO MUL OR SWAP1 SSTORE POP JUMPDEST JUMP JUMPDEST PUSH0 DUP2 SWAP1 POP SWAP2 SWAP1 POP JUMP JUMPDEST PUSH2 0x99F DUP2 PUSH2 0x98D JUMP JUMPDEST DUP3 MSTORE POP POP JUMP JUMPDEST PUSH0 PUSH1 0x20 DUP3 ADD SWAP1 POP PUSH2 0x9B8 PUSH0 DUP4 ADD DUP5 PUSH2 0x996 JUMP JUMPDEST SWAP3 SWAP2 POP POP JUMP JUMPDEST PUSH0 PUSH0 REVERT JUMPDEST PUSH0 PUSH20 0xFFFFFFFFFFFFFFFFFFFFFFFFFFFFFFFFFFFFFFFF DUP3 AND SWAP1 POP SWAP2 SWAP1 POP JUMP JUMPDEST PUSH0 PUSH2 0x9EB DUP3 PUSH2 0x9C2 JUMP JUMPDEST SWAP1 POP SWAP2 SWAP1 POP JUMP JUMPDEST PUSH2 0x9FB DUP2 PUSH2 0x9E1 JUMP JUMPDEST DUP2 EQ PUSH2 0xA05 JUMPI PUSH0 PUSH0 REVERT JUMPDEST POP JUMP JUMPDEST PUSH0 DUP2 CALLDATALOAD SWAP1 POP PUSH2 0xA16 DUP2 PUSH2 0x9F2 JUMP JUMPDEST SWAP3 SWAP2 POP POP JUMP JUMPDEST PUSH0 PUSH1 0x20 DUP3 DUP5 SUB SLT ISZERO PUSH2 0xA31 JUMPI PUSH2 0xA30 PUSH2 0x9BE JUMP JUMPDEST JUMPDEST PUSH0 PUSH2 0xA3E DUP5 DUP3 DUP6 ADD PUSH2 0xA08 JUMP JUMPDEST SWAP2 POP POP SWAP3 SWAP2 POP POP JUMP JUMPDEST PUSH0 DUP2 ISZERO ISZERO SWAP1 POP SWAP2 SWAP1 POP JUMP JUMPDEST PUSH2 0xA5B DUP2 PUSH2 0xA47 JUMP JUMPDEST DUP3 MSTORE POP POP JUMP JUMPDEST PUSH0 PUSH1 0x20 DUP3 ADD SWAP1 POP PUSH2 0xA74 PUSH0 DUP4 ADD DUP5 PUSH2 0xA52 JUMP JUMPDEST SWAP3 SWAP2 POP POP JUMP JUMPDEST PUSH2 0xA83 DUP2 PUSH2 0x9E1 JUMP JUMPDEST DUP3 MSTORE POP POP JUMP JUMPDEST PUSH0 PUSH1 0x20 DUP3 ADD SWAP1 POP PUSH2 0xA9C PUSH0 DUP4 ADD DUP5 PUSH2 0xA7A JUMP JUMPDEST SWAP3 SWAP2 POP POP JUMP JUMPDEST PUSH0 DUP3 DUP3 MSTORE PUSH1 0x20 DUP3 ADD SWAP1 POP SWAP3 SWAP2 POP POP JUMP JUMPDEST PUSH32 0x53616D6F20766C61736E696B206D6F7A6520706F7A76617469206F7675206675 PUSH0 DUP3 ADD MSTORE PUSH32 0x6E6B63696A750000000000000000000000000000000000000000000000000000 PUSH1 0x20 DUP3 ADD MSTORE POP JUMP JUMPDEST PUSH0 PUSH2 0xB0C PUSH1 0x26 DUP4 PUSH2 0xAA2 JUMP JUMPDEST SWAP2 POP PUSH2 0xB17 DUP3 PUSH2 0xAB2 JUMP JUMPDEST PUSH1 0x40 DUP3 ADD SWAP1 POP SWAP2 SWAP1 POP JUMP JUMPDEST PUSH0 PUSH1 0x20 DUP3 ADD SWAP1 POP DUP2 DUP2 SUB PUSH0 DUP4 ADD MSTORE PUSH2 0xB39 DUP2 PUSH2 0xB00 JUMP JUMPDEST SWAP1 POP SWAP2 SWAP1 POP JUMP JUMPDEST PUSH32 0x4B616D70616E6A61206A6F73207472616A650000000000000000000000000000 PUSH0 DUP3 ADD MSTORE POP JUMP JUMPDEST PUSH0 PUSH2 0xB74 PUSH1 0x12 DUP4 PUSH2 0xAA2 JUMP JUMPDEST SWAP2 POP PUSH2 0xB7F DUP3 PUSH2 0xB40 JUMP JUMPDEST PUSH1 0x20 DUP3 ADD SWAP1 POP SWAP2 SWAP1 POP JUMP JUMPDEST PUSH0 PUSH1 0x20 DUP3 ADD SWAP1 POP DUP2 DUP2 SUB PUSH0 DUP4 ADD MSTORE PUSH2 0xBA1 DUP2 PUSH2 0xB68 JUMP JUMPDEST SWAP1 POP SWAP2 SWAP1 POP JUMP JUMPDEST PUSH32 0x43696C6A206E696A6520706F737469676E757400000000000000000000000000 PUSH0 DUP3 ADD MSTORE POP JUMP JUMPDEST PUSH0 PUSH2 0xBDC PUSH1 0x13 DUP4 PUSH2 0xAA2 JUMP JUMPDEST SWAP2 POP PUSH2 0xBE7 DUP3 PUSH2 0xBA8 JUMP JUMPDEST PUSH1 0x20 DUP3 ADD SWAP1 POP SWAP2 SWAP1 POP JUMP JUMPDEST PUSH0 PUSH1 0x20 DUP3 ADD SWAP1 POP DUP2 DUP2 SUB PUSH0 DUP4 ADD MSTORE PUSH2 0xC09 DUP2 PUSH2 0xBD0 JUMP JUMPDEST SWAP1 POP SWAP2 SWAP1 POP JUMP JUMPDEST PUSH32 0x53726564737476612073752076656320706F767563656E610000000000000000 PUSH0 DUP3 ADD MSTORE POP JUMP JUMPDEST PUSH0 PUSH2 0xC44 PUSH1 0x18 DUP4 PUSH2 0xAA2 JUMP JUMPDEST SWAP2 POP PUSH2 0xC4F DUP3 PUSH2 0xC10 JUMP JUMPDEST PUSH1 0x20 DUP3 ADD SWAP1 POP SWAP2 SWAP1 POP JUMP JUMPDEST PUSH0 PUSH1 0x20 DUP3 ADD SWAP1 POP DUP2 DUP2 SUB PUSH0 DUP4 ADD MSTORE PUSH2 0xC71 DUP2 PUSH2 0xC38 JUMP JUMPDEST SWAP1 POP SWAP2 SWAP1 POP JUMP JUMPDEST PUSH0 DUP2 SWAP1 POP SWAP3 SWAP2 POP POP JUMP JUMPDEST POP JUMP JUMPDEST PUSH0 PUSH2 0xC90 PUSH0 DUP4 PUSH2 0xC78 JUMP JUMPDEST SWAP2 POP PUSH2 0xC9B DUP3 PUSH2 0xC82 JUMP JUMPDEST PUSH0 DUP3 ADD SWAP1 POP SWAP2 SWAP1 POP JUMP JUMPDEST PUSH0 PUSH2 0xCAF DUP3 PUSH2 0xC85 JUMP JUMPDEST SWAP2 POP DUP2 SWAP1 POP SWAP2 SWAP1 POP JUMP JUMPDEST PUSH32 0x506F766C6163656E6A65206E657573706A65736E6F0000000000000000000000 PUSH0 DUP3 ADD MSTORE POP JUMP JUMPDEST PUSH0 PUSH2 0xCED PUSH1 0x15 DUP4 PUSH2 0xAA2 JUMP JUMPDEST SWAP2 POP PUSH2 0xCF8 DUP3 PUSH2 0xCB9 JUMP JUMPDEST PUSH1 0x20 DUP3 ADD SWAP1 POP SWAP2 SWAP1 POP JUMP JUMPDEST PUSH0 PUSH1 0x20 DUP3 ADD SWAP1 POP DUP2 DUP2 SUB PUSH0 DUP4 ADD MSTORE PUSH2 0xD1A DUP2 PUSH2 0xCE1 JUMP JUMPDEST SWAP1 POP SWAP2 SWAP1 POP JUMP JUMPDEST PUSH32 0x43696C6A206A6520706F737469676E75742C206E656D6120706F767261746100 PUSH0 DUP3 ADD MSTORE POP JUMP JUMPDEST PUSH0 PUSH2 0xD55 PUSH1 0x1F DUP4 PUSH2 0xAA2 JUMP JUMPDEST SWAP2 POP PUSH2 0xD60 DUP3 PUSH2 0xD21 JUMP JUMPDEST PUSH1 0x20 DUP3 ADD SWAP1 POP SWAP2 SWAP1 POP JUMP JUMPDEST PUSH0 PUSH1 0x20 DUP3 ADD SWAP1 POP DUP2 DUP2 SUB PUSH0 DUP4 ADD MSTORE PUSH2 0xD82 DUP2 PUSH2 0xD49 JUMP JUMPDEST SWAP1 POP SWAP2 SWAP1 POP JUMP JUMPDEST PUSH32 0x4E656D61206E69737461207A6120706F76726174000000000000000000000000 PUSH0 DUP3 ADD MSTORE POP JUMP JUMPDEST PUSH0 PUSH2 0xDBD PUSH1 0x14 DUP4 PUSH2 0xAA2 JUMP JUMPDEST SWAP2 POP PUSH2 0xDC8 DUP3 PUSH2 0xD89 JUMP JUMPDEST PUSH1 0x20 DUP3 ADD SWAP1 POP SWAP2 SWAP1 POP JUMP JUMPDEST PUSH0 PUSH1 0x20 DUP3 ADD SWAP1 POP DUP2 DUP2 SUB PUSH0 DUP4 ADD MSTORE PUSH2 0xDEA DUP2 PUSH2 0xDB1 JUMP JUMPDEST SWAP1 POP SWAP2 SWAP1 POP JUMP JUMPDEST PUSH32 0x506F76726174206E657573706A6573616E000000000000000000000000000000 PUSH0 DUP3 ADD MSTORE POP JUMP JUMPDEST PUSH0 PUSH2 0xE25 PUSH1 0x11 DUP4 PUSH2 0xAA2 JUMP JUMPDEST SWAP2 POP PUSH2 0xE30 DUP3 PUSH2 0xDF1 JUMP JUMPDEST PUSH1 0x20 DUP3 ADD SWAP1 POP SWAP2 SWAP1 POP JUMP JUMPDEST PUSH0 PUSH1 0x20 DUP3 ADD SWAP1 POP DUP2 DUP2 SUB PUSH0 DUP4 ADD MSTORE PUSH2 0xE52 DUP2 PUSH2 0xE19 JUMP JUMPDEST SWAP1 POP SWAP2 SWAP1 POP JUMP JUMPDEST PUSH32 0x4E487B7100000000000000000000000000000000000000000000000000000000 PUSH0 MSTORE PUSH1 0x11 PUSH1 0x4 MSTORE PUSH1 0x24 PUSH0 REVERT JUMPDEST PUSH0 PUSH2 0xE90 DUP3 PUSH2 0x98D JUMP JUMPDEST SWAP2 POP PUSH2 0xE9B DUP4 PUSH2 0x98D JUMP JUMPDEST SWAP3 POP DUP3 DUP3 SUB SWAP1 POP DUP2 DUP2 GT ISZERO PUSH2 0xEB3 JUMPI PUSH2 0xEB2 PUSH2 0xE59 JUMP JUMPDEST JUMPDEST SWAP3 SWAP2 POP POP JUMP JUMPDEST PUSH32 0x4B616D70616E6A61206A65207A61767273696C61000000000000000000000000 PUSH0 DUP3 ADD MSTORE POP JUMP JUMPDEST PUSH0 PUSH2 0xEED PUSH1 0x14 DUP4 PUSH2 0xAA2 JUMP JUMPDEST SWAP2 POP PUSH2 0xEF8 DUP3 PUSH2 0xEB9 JUMP JUMPDEST PUSH1 0x20 DUP3 ADD SWAP1 POP SWAP2 SWAP1 POP JUMP JUMPDEST PUSH0 PUSH1 0x20 DUP3 ADD SWAP1 POP DUP2 DUP2 SUB PUSH0 DUP4 ADD MSTORE PUSH2 0xF1A DUP2 PUSH2 0xEE1 JUMP JUMPDEST SWAP1 POP SWAP2 SWAP1 POP JUMP JUMPDEST PUSH32 0x4D6F726120736520706F736C6174692045746865720000000000000000000000 PUSH0 DUP3 ADD MSTORE POP JUMP JUMPDEST PUSH0 PUSH2 0xF55 PUSH1 0x15 DUP4 PUSH2 0xAA2 JUMP JUMPDEST SWAP2 POP PUSH2 0xF60 DUP3 PUSH2 0xF21 JUMP JUMPDEST PUSH1 0x20 DUP3 ADD SWAP1 POP SWAP2 SWAP1 POP JUMP JUMPDEST PUSH0 PUSH1 0x20 DUP3 ADD SWAP1 POP DUP2 DUP2 SUB PUSH0 DUP4 ADD MSTORE PUSH2 0xF82 DUP2 PUSH2 0xF49 JUMP JUMPDEST SWAP1 POP SWAP2 SWAP1 POP JUMP JUMPDEST PUSH0 PUSH2 0xF93 DUP3 PUSH2 0x98D JUMP JUMPDEST SWAP2 POP PUSH2 0xF9E DUP4 PUSH2 0x98D JUMP JUMPDEST SWAP3 POP DUP3 DUP3 ADD SWAP1 POP DUP1 DUP3 GT ISZERO PUSH2 0xFB6 JUMPI PUSH2 0xFB5 PUSH2 0xE59 JUMP JUMPDEST JUMPDEST SWAP3 SWAP2 POP POP JUMP INVALID LOG2 PUSH5 0x6970667358 0x22 SLT KECCAK256 EQ 0x2F 0xE2 PUSH16 0x254CE586F0153BD47E18F4E253063857 0x29 0xC8 DUP3 DUP15 0xC9 0xFC MCOPY GAS JUMPDEST PUSH22 0xF9E364736F6C634300081E0033000000000000000000 "
				},
				"gasEstimates": {
					"creation": {
						"codeDepositCost": "816400",
						"executionCost": "infinite",
						"totalCost": "infinite"
					},
					"external": {
						"contributions(address)": "2891",
						"deadline()": "2470",
						"donate()": "infinite",
						"fundsWithdrawn()": "2561",
						"getBalance()": "335",
						"getTimeLeft()": "infinite",
						"goal()": "2492",
						"goalReached()": "2466",
						"owner()": "2529",
						"refund()": "infinite",
						"totalRaised()": "2491",
						"withdrawFunds()": "infinite"
					}
				},
				"methodIdentifiers": {
					"contributions(address)": "42e94c90",
					"deadline()": "29dcb0cf",
					"donate()": "ed88c68e",
					"fundsWithdrawn()": "ac307fcf",
					"getBalance()": "12065fe0",
					"getTimeLeft()": "c7e284b8",
					"goal()": "40193883",
					"goalReached()": "7d3d6522",
					"owner()": "8da5cb5b",
					"refund()": "590e1ae3",
					"totalRaised()": "c5c4744c",
					"withdrawFunds()": "24600fc3"
				}
			},
			"storageLayout": {
				"storage": [
					{
						"astId": 3,
						"contract": "Crowdfunding/CrowFunding.sol:CrowdFund",
						"label": "owner",
						"offset": 0,
						"slot": "0",
						"type": "t_address"
					},
					{
						"astId": 5,
						"contract": "Crowdfunding/CrowFunding.sol:CrowdFund",
						"label": "goal",
						"offset": 0,
						"slot": "1",
						"type": "t_uint256"
					},
					{
						"astId": 7,
						"contract": "Crowdfunding/CrowFunding.sol:CrowdFund",
						"label": "deadline",
						"offset": 0,
						"slot": "2",
						"type": "t_uint256"
					},
					{
						"astId": 9,
						"contract": "Crowdfunding/CrowFunding.sol:CrowdFund",
						"label": "totalRaised",
						"offset": 0,
						"slot": "3",
						"type": "t_uint256"
					},
					{
						"astId": 11,
						"contract": "Crowdfunding/CrowFunding.sol:CrowdFund",
						"label": "goalReached",
						"offset": 0,
						"slot": "4",
						"type": "t_bool"
					},
					{
						"astId": 13,
						"contract": "Crowdfunding/CrowFunding.sol:CrowdFund",
						"label": "fundsWithdrawn",
						"offset": 1,
						"slot": "4",
						"type": "t_bool"
					},
					{
						"astId": 17,
						"contract": "Crowdfunding/CrowFunding.sol:CrowdFund",
						"label": "contributions",
						"offset": 0,
						"slot": "5",
						"type": "t_mapping(t_address,t_uint256)"
					}
				],
				"types": {
					"t_address": {
						"encoding": "inplace",
						"label": "address",
						"numberOfBytes": "20"
					},
					"t_bool": {
						"encoding": "inplace",
						"label": "bool",
						"numberOfBytes": "1"
					},
					"t_mapping(t_address,t_uint256)": {
						"encoding": "mapping",
						"key": "t_address",
						"label": "mapping(address => uint256)",
						"numberOfBytes": "32",
						"value": "t_uint256"
					},
					"t_uint256": {
						"encoding": "inplace",
						"label": "uint256",
						"numberOfBytes": "32"
					}
				}
			},
			"userdoc": {
				"kind": "user",
				"methods": {},
				"version": 1
			}
		}
	}
}